{
	"mycontract.sol": {
		"blockWise": {
			"abi": [
				{
					"inputs": [
						{
							"internalType": "address",
							"name": "_creditor",
							"type": "address"
						},
						{
							"internalType": "uint256",
							"name": "_iou",
							"type": "uint256"
						}
					],
					"name": "add_IOU",
					"outputs": [],
					"stateMutability": "nonpayable",
					"type": "function"
				},
				{
					"inputs": [
						{
							"internalType": "address",
							"name": "_debtor",
							"type": "address"
						},
						{
							"internalType": "address",
							"name": "_creditor",
							"type": "address"
						}
					],
					"name": "lookup",
					"outputs": [
						{
							"internalType": "uint256",
							"name": "",
							"type": "uint256"
						}
					],
					"stateMutability": "view",
					"type": "function"
				}
			],
			"devdoc": {
				"kind": "dev",
				"methods": {},
				"version": 1
			},
			"evm": {
				"assembly": "    /* \"mycontract.sol\":363:801  contract blockWise {... */\n  mstore(0x40, 0x80)\n  callvalue\n  dup1\n  iszero\n  tag_1\n  jumpi\n  0x00\n  dup1\n  revert\ntag_1:\n  pop\n  dataSize(sub_0)\n  dup1\n  dataOffset(sub_0)\n  0x00\n  codecopy\n  0x00\n  return\nstop\n\nsub_0: assembly {\n        /* \"mycontract.sol\":363:801  contract blockWise {... */\n      mstore(0x40, 0x80)\n      callvalue\n      dup1\n      iszero\n      tag_1\n      jumpi\n      0x00\n      dup1\n      revert\n    tag_1:\n      pop\n      jumpi(tag_2, lt(calldatasize, 0x04))\n      shr(0xe0, calldataload(0x00))\n      dup1\n      0x215accc7\n      eq\n      tag_3\n      jumpi\n      dup1\n      0x713584a6\n      eq\n      tag_4\n      jumpi\n    tag_2:\n      0x00\n      dup1\n      revert\n        /* \"mycontract.sol\":454:620  function add_IOU(address _creditor, uint _iou) external {... */\n    tag_3:\n      tag_5\n      0x04\n      dup1\n      calldatasize\n      sub\n      dup2\n      add\n      swap1\n      tag_6\n      swap2\n      swap1\n      tag_7\n      jump\t// in\n    tag_6:\n      tag_8\n      jump\t// in\n    tag_5:\n      stop\n        /* \"mycontract.sol\":628:798  function lookup(address _debtor, address _creditor) external view returns (uint) {... */\n    tag_4:\n      tag_9\n      0x04\n      dup1\n      calldatasize\n      sub\n      dup2\n      add\n      swap1\n      tag_10\n      swap2\n      swap1\n      tag_11\n      jump\t// in\n    tag_10:\n      tag_12\n      jump\t// in\n    tag_9:\n      mload(0x40)\n      tag_13\n      swap2\n      swap1\n      tag_14\n      jump\t// in\n    tag_13:\n      mload(0x40)\n      dup1\n      swap2\n      sub\n      swap1\n      return\n        /* \"mycontract.sol\":454:620  function add_IOU(address _creditor, uint _iou) external {... */\n    tag_8:\n        /* \"mycontract.sol\":600:604  _iou */\n      dup1\n        /* \"mycontract.sol\":569:573  ious */\n      0x00\n        /* \"mycontract.sol\":569:585  ious[msg.sender] */\n      dup1\n        /* \"mycontract.sol\":574:584  msg.sender */\n      caller\n        /* \"mycontract.sol\":569:585  ious[msg.sender] */\n      0xffffffffffffffffffffffffffffffffffffffff\n      and\n      0xffffffffffffffffffffffffffffffffffffffff\n      and\n      dup2\n      mstore\n      0x20\n      add\n      swap1\n      dup2\n      mstore\n      0x20\n      add\n      0x00\n      keccak256\n        /* \"mycontract.sol\":569:596  ious[msg.sender][_creditor] */\n      0x00\n        /* \"mycontract.sol\":586:595  _creditor */\n      dup5\n        /* \"mycontract.sol\":569:596  ious[msg.sender][_creditor] */\n      0xffffffffffffffffffffffffffffffffffffffff\n      and\n      0xffffffffffffffffffffffffffffffffffffffff\n      and\n      dup2\n      mstore\n      0x20\n      add\n      swap1\n      dup2\n      mstore\n      0x20\n      add\n      0x00\n      keccak256\n      0x00\n        /* \"mycontract.sol\":569:604  ious[msg.sender][_creditor] += _iou */\n      dup3\n      dup3\n      sload\n      tag_17\n      swap2\n      swap1\n      tag_18\n      jump\t// in\n    tag_17:\n      swap3\n      pop\n      pop\n      dup2\n      swap1\n      sstore\n      pop\n        /* \"mycontract.sol\":454:620  function add_IOU(address _creditor, uint _iou) external {... */\n      pop\n      pop\n      jump\t// out\n        /* \"mycontract.sol\":628:798  function lookup(address _debtor, address _creditor) external view returns (uint) {... */\n    tag_12:\n        /* \"mycontract.sol\":703:707  uint */\n      0x00\n        /* \"mycontract.sol\":767:771  ious */\n      dup1\n        /* \"mycontract.sol\":767:780  ious[_debtor] */\n      0x00\n        /* \"mycontract.sol\":772:779  _debtor */\n      dup5\n        /* \"mycontract.sol\":767:780  ious[_debtor] */\n      0xffffffffffffffffffffffffffffffffffffffff\n      and\n      0xffffffffffffffffffffffffffffffffffffffff\n      and\n      dup2\n      mstore\n      0x20\n      add\n      swap1\n      dup2\n      mstore\n      0x20\n      add\n      0x00\n      keccak256\n        /* \"mycontract.sol\":767:791  ious[_debtor][_creditor] */\n      0x00\n        /* \"mycontract.sol\":781:790  _creditor */\n      dup4\n        /* \"mycontract.sol\":767:791  ious[_debtor][_creditor] */\n      0xffffffffffffffffffffffffffffffffffffffff\n      and\n      0xffffffffffffffffffffffffffffffffffffffff\n      and\n      dup2\n      mstore\n      0x20\n      add\n      swap1\n      dup2\n      mstore\n      0x20\n      add\n      0x00\n      keccak256\n      sload\n        /* \"mycontract.sol\":760:791  return ious[_debtor][_creditor] */\n      swap1\n      pop\n        /* \"mycontract.sol\":628:798  function lookup(address _debtor, address _creditor) external view returns (uint) {... */\n      swap3\n      swap2\n      pop\n      pop\n      jump\t// out\n        /* \"#utility.yul\":7:146   */\n    tag_21:\n        /* \"#utility.yul\":53:58   */\n      0x00\n        /* \"#utility.yul\":91:97   */\n      dup2\n        /* \"#utility.yul\":78:98   */\n      calldataload\n        /* \"#utility.yul\":69:98   */\n      swap1\n      pop\n        /* \"#utility.yul\":107:140   */\n      tag_23\n        /* \"#utility.yul\":134:139   */\n      dup2\n        /* \"#utility.yul\":107:140   */\n      tag_24\n      jump\t// in\n    tag_23:\n        /* \"#utility.yul\":7:146   */\n      swap3\n      swap2\n      pop\n      pop\n      jump\t// out\n        /* \"#utility.yul\":152:291   */\n    tag_25:\n        /* \"#utility.yul\":198:203   */\n      0x00\n        /* \"#utility.yul\":236:242   */\n      dup2\n        /* \"#utility.yul\":223:243   */\n      calldataload\n        /* \"#utility.yul\":214:243   */\n      swap1\n      pop\n        /* \"#utility.yul\":252:285   */\n      tag_27\n        /* \"#utility.yul\":279:284   */\n      dup2\n        /* \"#utility.yul\":252:285   */\n      tag_28\n      jump\t// in\n    tag_27:\n        /* \"#utility.yul\":152:291   */\n      swap3\n      swap2\n      pop\n      pop\n      jump\t// out\n        /* \"#utility.yul\":297:771   */\n    tag_11:\n        /* \"#utility.yul\":365:371   */\n      0x00\n        /* \"#utility.yul\":373:379   */\n      dup1\n        /* \"#utility.yul\":422:424   */\n      0x40\n        /* \"#utility.yul\":410:419   */\n      dup4\n        /* \"#utility.yul\":401:408   */\n      dup6\n        /* \"#utility.yul\":397:420   */\n      sub\n        /* \"#utility.yul\":393:425   */\n      slt\n        /* \"#utility.yul\":390:509   */\n      iszero\n      tag_30\n      jumpi\n        /* \"#utility.yul\":428:507   */\n      tag_31\n      tag_32\n      jump\t// in\n    tag_31:\n        /* \"#utility.yul\":390:509   */\n    tag_30:\n        /* \"#utility.yul\":548:549   */\n      0x00\n        /* \"#utility.yul\":573:626   */\n      tag_33\n        /* \"#utility.yul\":618:625   */\n      dup6\n        /* \"#utility.yul\":609:615   */\n      dup3\n        /* \"#utility.yul\":598:607   */\n      dup7\n        /* \"#utility.yul\":594:616   */\n      add\n        /* \"#utility.yul\":573:626   */\n      tag_21\n      jump\t// in\n    tag_33:\n        /* \"#utility.yul\":563:626   */\n      swap3\n      pop\n        /* \"#utility.yul\":519:636   */\n      pop\n        /* \"#utility.yul\":675:677   */\n      0x20\n        /* \"#utility.yul\":701:754   */\n      tag_34\n        /* \"#utility.yul\":746:753   */\n      dup6\n        /* \"#utility.yul\":737:743   */\n      dup3\n        /* \"#utility.yul\":726:735   */\n      dup7\n        /* \"#utility.yul\":722:744   */\n      add\n        /* \"#utility.yul\":701:754   */\n      tag_21\n      jump\t// in\n    tag_34:\n        /* \"#utility.yul\":691:754   */\n      swap2\n      pop\n        /* \"#utility.yul\":646:764   */\n      pop\n        /* \"#utility.yul\":297:771   */\n      swap3\n      pop\n      swap3\n      swap1\n      pop\n      jump\t// out\n        /* \"#utility.yul\":777:1251   */\n    tag_7:\n        /* \"#utility.yul\":845:851   */\n      0x00\n        /* \"#utility.yul\":853:859   */\n      dup1\n        /* \"#utility.yul\":902:904   */\n      0x40\n        /* \"#utility.yul\":890:899   */\n      dup4\n        /* \"#utility.yul\":881:888   */\n      dup6\n        /* \"#utility.yul\":877:900   */\n      sub\n        /* \"#utility.yul\":873:905   */\n      slt\n        /* \"#utility.yul\":870:989   */\n      iszero\n      tag_36\n      jumpi\n        /* \"#utility.yul\":908:987   */\n      tag_37\n      tag_32\n      jump\t// in\n    tag_37:\n        /* \"#utility.yul\":870:989   */\n    tag_36:\n        /* \"#utility.yul\":1028:1029   */\n      0x00\n        /* \"#utility.yul\":1053:1106   */\n      tag_38\n        /* \"#utility.yul\":1098:1105   */\n      dup6\n        /* \"#utility.yul\":1089:1095   */\n      dup3\n        /* \"#utility.yul\":1078:1087   */\n      dup7\n        /* \"#utility.yul\":1074:1096   */\n      add\n        /* \"#utility.yul\":1053:1106   */\n      tag_21\n      jump\t// in\n    tag_38:\n        /* \"#utility.yul\":1043:1106   */\n      swap3\n      pop\n        /* \"#utility.yul\":999:1116   */\n      pop\n        /* \"#utility.yul\":1155:1157   */\n      0x20\n        /* \"#utility.yul\":1181:1234   */\n      tag_39\n        /* \"#utility.yul\":1226:1233   */\n      dup6\n        /* \"#utility.yul\":1217:1223   */\n      dup3\n        /* \"#utility.yul\":1206:1215   */\n      dup7\n        /* \"#utility.yul\":1202:1224   */\n      add\n        /* \"#utility.yul\":1181:1234   */\n      tag_25\n      jump\t// in\n    tag_39:\n        /* \"#utility.yul\":1171:1234   */\n      swap2\n      pop\n        /* \"#utility.yul\":1126:1244   */\n      pop\n        /* \"#utility.yul\":777:1251   */\n      swap3\n      pop\n      swap3\n      swap1\n      pop\n      jump\t// out\n        /* \"#utility.yul\":1257:1375   */\n    tag_40:\n        /* \"#utility.yul\":1344:1368   */\n      tag_42\n        /* \"#utility.yul\":1362:1367   */\n      dup2\n        /* \"#utility.yul\":1344:1368   */\n      tag_43\n      jump\t// in\n    tag_42:\n        /* \"#utility.yul\":1339:1342   */\n      dup3\n        /* \"#utility.yul\":1332:1369   */\n      mstore\n        /* \"#utility.yul\":1257:1375   */\n      pop\n      pop\n      jump\t// out\n        /* \"#utility.yul\":1381:1603   */\n    tag_14:\n        /* \"#utility.yul\":1474:1478   */\n      0x00\n        /* \"#utility.yul\":1512:1514   */\n      0x20\n        /* \"#utility.yul\":1501:1510   */\n      dup3\n        /* \"#utility.yul\":1497:1515   */\n      add\n        /* \"#utility.yul\":1489:1515   */\n      swap1\n      pop\n        /* \"#utility.yul\":1525:1596   */\n      tag_45\n        /* \"#utility.yul\":1593:1594   */\n      0x00\n        /* \"#utility.yul\":1582:1591   */\n      dup4\n        /* \"#utility.yul\":1578:1595   */\n      add\n        /* \"#utility.yul\":1569:1575   */\n      dup5\n        /* \"#utility.yul\":1525:1596   */\n      tag_40\n      jump\t// in\n    tag_45:\n        /* \"#utility.yul\":1381:1603   */\n      swap3\n      swap2\n      pop\n      pop\n      jump\t// out\n        /* \"#utility.yul\":1690:1995   */\n    tag_18:\n        /* \"#utility.yul\":1730:1733   */\n      0x00\n        /* \"#utility.yul\":1749:1769   */\n      tag_49\n        /* \"#utility.yul\":1767:1768   */\n      dup3\n        /* \"#utility.yul\":1749:1769   */\n      tag_43\n      jump\t// in\n    tag_49:\n        /* \"#utility.yul\":1744:1769   */\n      swap2\n      pop\n        /* \"#utility.yul\":1783:1803   */\n      tag_50\n        /* \"#utility.yul\":1801:1802   */\n      dup4\n        /* \"#utility.yul\":1783:1803   */\n      tag_43\n      jump\t// in\n    tag_50:\n        /* \"#utility.yul\":1778:1803   */\n      swap3\n      pop\n        /* \"#utility.yul\":1937:1938   */\n      dup3\n        /* \"#utility.yul\":1869:1935   */\n      0xffffffffffffffffffffffffffffffffffffffffffffffffffffffffffffffff\n        /* \"#utility.yul\":1865:1939   */\n      sub\n        /* \"#utility.yul\":1862:1863   */\n      dup3\n        /* \"#utility.yul\":1859:1940   */\n      gt\n        /* \"#utility.yul\":1856:1963   */\n      iszero\n      tag_51\n      jumpi\n        /* \"#utility.yul\":1943:1961   */\n      tag_52\n      tag_53\n      jump\t// in\n    tag_52:\n        /* \"#utility.yul\":1856:1963   */\n    tag_51:\n        /* \"#utility.yul\":1987:1988   */\n      dup3\n        /* \"#utility.yul\":1984:1985   */\n      dup3\n        /* \"#utility.yul\":1980:1989   */\n      add\n        /* \"#utility.yul\":1973:1989   */\n      swap1\n      pop\n        /* \"#utility.yul\":1690:1995   */\n      swap3\n      swap2\n      pop\n      pop\n      jump\t// out\n        /* \"#utility.yul\":2001:2097   */\n    tag_54:\n        /* \"#utility.yul\":2038:2045   */\n      0x00\n        /* \"#utility.yul\":2067:2091   */\n      tag_56\n        /* \"#utility.yul\":2085:2090   */\n      dup3\n        /* \"#utility.yul\":2067:2091   */\n      tag_57\n      jump\t// in\n    tag_56:\n        /* \"#utility.yul\":2056:2091   */\n      swap1\n      pop\n        /* \"#utility.yul\":2001:2097   */\n      swap2\n      swap1\n      pop\n      jump\t// out\n        /* \"#utility.yul\":2103:2229   */\n    tag_57:\n        /* \"#utility.yul\":2140:2147   */\n      0x00\n        /* \"#utility.yul\":2180:2222   */\n      0xffffffffffffffffffffffffffffffffffffffff\n        /* \"#utility.yul\":2173:2178   */\n      dup3\n        /* \"#utility.yul\":2169:2223   */\n      and\n        /* \"#utility.yul\":2158:2223   */\n      swap1\n      pop\n        /* \"#utility.yul\":2103:2229   */\n      swap2\n      swap1\n      pop\n      jump\t// out\n        /* \"#utility.yul\":2235:2312   */\n    tag_43:\n        /* \"#utility.yul\":2272:2279   */\n      0x00\n        /* \"#utility.yul\":2301:2306   */\n      dup2\n        /* \"#utility.yul\":2290:2306   */\n      swap1\n      pop\n        /* \"#utility.yul\":2235:2312   */\n      swap2\n      swap1\n      pop\n      jump\t// out\n        /* \"#utility.yul\":2318:2498   */\n    tag_53:\n        /* \"#utility.yul\":2366:2443   */\n      0x4e487b7100000000000000000000000000000000000000000000000000000000\n        /* \"#utility.yul\":2363:2364   */\n      0x00\n        /* \"#utility.yul\":2356:2444   */\n      mstore\n        /* \"#utility.yul\":2463:2467   */\n      0x11\n        /* \"#utility.yul\":2460:2461   */\n      0x04\n        /* \"#utility.yul\":2453:2468   */\n      mstore\n        /* \"#utility.yul\":2487:2491   */\n      0x24\n        /* \"#utility.yul\":2484:2485   */\n      0x00\n        /* \"#utility.yul\":2477:2492   */\n      revert\n        /* \"#utility.yul\":2627:2744   */\n    tag_32:\n        /* \"#utility.yul\":2736:2737   */\n      0x00\n        /* \"#utility.yul\":2733:2734   */\n      dup1\n        /* \"#utility.yul\":2726:2738   */\n      revert\n        /* \"#utility.yul\":2750:2872   */\n    tag_24:\n        /* \"#utility.yul\":2823:2847   */\n      tag_65\n        /* \"#utility.yul\":2841:2846   */\n      dup2\n        /* \"#utility.yul\":2823:2847   */\n      tag_54\n      jump\t// in\n    tag_65:\n        /* \"#utility.yul\":2816:2821   */\n      dup2\n        /* \"#utility.yul\":2813:2848   */\n      eq\n        /* \"#utility.yul\":2803:2866   */\n      tag_66\n      jumpi\n        /* \"#utility.yul\":2862:2863   */\n      0x00\n        /* \"#utility.yul\":2859:2860   */\n      dup1\n        /* \"#utility.yul\":2852:2864   */\n      revert\n        /* \"#utility.yul\":2803:2866   */\n    tag_66:\n        /* \"#utility.yul\":2750:2872   */\n      pop\n      jump\t// out\n        /* \"#utility.yul\":2878:3000   */\n    tag_28:\n        /* \"#utility.yul\":2951:2975   */\n      tag_68\n        /* \"#utility.yul\":2969:2974   */\n      dup2\n        /* \"#utility.yul\":2951:2975   */\n      tag_43\n      jump\t// in\n    tag_68:\n        /* \"#utility.yul\":2944:2949   */\n      dup2\n        /* \"#utility.yul\":2941:2976   */\n      eq\n        /* \"#utility.yul\":2931:2994   */\n      tag_69\n      jumpi\n        /* \"#utility.yul\":2990:2991   */\n      0x00\n        /* \"#utility.yul\":2987:2988   */\n      dup1\n        /* \"#utility.yul\":2980:2992   */\n      revert\n        /* \"#utility.yul\":2931:2994   */\n    tag_69:\n        /* \"#utility.yul\":2878:3000   */\n      pop\n      jump\t// out\n\n    auxdata: 0xa26469706673582212205dec858a38efe7d0cfb0fe9ebbe70f7d3b8f54b005307713192f851953e60bd064736f6c63430008070033\n}\n",
				"bytecode": {
					"linkReferences": {},
					"object": "608060405234801561001057600080fd5b506103a1806100206000396000f3fe608060405234801561001057600080fd5b50600436106100365760003560e01c8063215accc71461003b578063713584a614610057575b600080fd5b6100556004803603810190610050919061020d565b610087565b005b610071600480360381019061006c91906101cd565b61011d565b60405161007e919061025c565b60405180910390f35b806000803373ffffffffffffffffffffffffffffffffffffffff1673ffffffffffffffffffffffffffffffffffffffff16815260200190815260200160002060008473ffffffffffffffffffffffffffffffffffffffff1673ffffffffffffffffffffffffffffffffffffffff16815260200190815260200160002060008282546101129190610277565b925050819055505050565b60008060008473ffffffffffffffffffffffffffffffffffffffff1673ffffffffffffffffffffffffffffffffffffffff16815260200190815260200160002060008373ffffffffffffffffffffffffffffffffffffffff1673ffffffffffffffffffffffffffffffffffffffff16815260200190815260200160002054905092915050565b6000813590506101b28161033d565b92915050565b6000813590506101c781610354565b92915050565b600080604083850312156101e4576101e3610338565b5b60006101f2858286016101a3565b9250506020610203858286016101a3565b9150509250929050565b6000806040838503121561022457610223610338565b5b6000610232858286016101a3565b9250506020610243858286016101b8565b9150509250929050565b610256816102ff565b82525050565b6000602082019050610271600083018461024d565b92915050565b6000610282826102ff565b915061028d836102ff565b9250827fffffffffffffffffffffffffffffffffffffffffffffffffffffffffffffffff038211156102c2576102c1610309565b5b828201905092915050565b60006102d8826102df565b9050919050565b600073ffffffffffffffffffffffffffffffffffffffff82169050919050565b6000819050919050565b7f4e487b7100000000000000000000000000000000000000000000000000000000600052601160045260246000fd5b600080fd5b610346816102cd565b811461035157600080fd5b50565b61035d816102ff565b811461036857600080fd5b5056fea26469706673582212205dec858a38efe7d0cfb0fe9ebbe70f7d3b8f54b005307713192f851953e60bd064736f6c63430008070033",
					"opcodes": "PUSH1 0x80 PUSH1 0x40 MSTORE CALLVALUE DUP1 ISZERO PUSH2 0x10 JUMPI PUSH1 0x0 DUP1 REVERT JUMPDEST POP PUSH2 0x3A1 DUP1 PUSH2 0x20 PUSH1 0x0 CODECOPY PUSH1 0x0 RETURN INVALID PUSH1 0x80 PUSH1 0x40 MSTORE CALLVALUE DUP1 ISZERO PUSH2 0x10 JUMPI PUSH1 0x0 DUP1 REVERT JUMPDEST POP PUSH1 0x4 CALLDATASIZE LT PUSH2 0x36 JUMPI PUSH1 0x0 CALLDATALOAD PUSH1 0xE0 SHR DUP1 PUSH4 0x215ACCC7 EQ PUSH2 0x3B JUMPI DUP1 PUSH4 0x713584A6 EQ PUSH2 0x57 JUMPI JUMPDEST PUSH1 0x0 DUP1 REVERT JUMPDEST PUSH2 0x55 PUSH1 0x4 DUP1 CALLDATASIZE SUB DUP2 ADD SWAP1 PUSH2 0x50 SWAP2 SWAP1 PUSH2 0x20D JUMP JUMPDEST PUSH2 0x87 JUMP JUMPDEST STOP JUMPDEST PUSH2 0x71 PUSH1 0x4 DUP1 CALLDATASIZE SUB DUP2 ADD SWAP1 PUSH2 0x6C SWAP2 SWAP1 PUSH2 0x1CD JUMP JUMPDEST PUSH2 0x11D JUMP JUMPDEST PUSH1 0x40 MLOAD PUSH2 0x7E SWAP2 SWAP1 PUSH2 0x25C JUMP JUMPDEST PUSH1 0x40 MLOAD DUP1 SWAP2 SUB SWAP1 RETURN JUMPDEST DUP1 PUSH1 0x0 DUP1 CALLER PUSH20 0xFFFFFFFFFFFFFFFFFFFFFFFFFFFFFFFFFFFFFFFF AND PUSH20 0xFFFFFFFFFFFFFFFFFFFFFFFFFFFFFFFFFFFFFFFF AND DUP2 MSTORE PUSH1 0x20 ADD SWAP1 DUP2 MSTORE PUSH1 0x20 ADD PUSH1 0x0 KECCAK256 PUSH1 0x0 DUP5 PUSH20 0xFFFFFFFFFFFFFFFFFFFFFFFFFFFFFFFFFFFFFFFF AND PUSH20 0xFFFFFFFFFFFFFFFFFFFFFFFFFFFFFFFFFFFFFFFF AND DUP2 MSTORE PUSH1 0x20 ADD SWAP1 DUP2 MSTORE PUSH1 0x20 ADD PUSH1 0x0 KECCAK256 PUSH1 0x0 DUP3 DUP3 SLOAD PUSH2 0x112 SWAP2 SWAP1 PUSH2 0x277 JUMP JUMPDEST SWAP3 POP POP DUP2 SWAP1 SSTORE POP POP POP JUMP JUMPDEST PUSH1 0x0 DUP1 PUSH1 0x0 DUP5 PUSH20 0xFFFFFFFFFFFFFFFFFFFFFFFFFFFFFFFFFFFFFFFF AND PUSH20 0xFFFFFFFFFFFFFFFFFFFFFFFFFFFFFFFFFFFFFFFF AND DUP2 MSTORE PUSH1 0x20 ADD SWAP1 DUP2 MSTORE PUSH1 0x20 ADD PUSH1 0x0 KECCAK256 PUSH1 0x0 DUP4 PUSH20 0xFFFFFFFFFFFFFFFFFFFFFFFFFFFFFFFFFFFFFFFF AND PUSH20 0xFFFFFFFFFFFFFFFFFFFFFFFFFFFFFFFFFFFFFFFF AND DUP2 MSTORE PUSH1 0x20 ADD SWAP1 DUP2 MSTORE PUSH1 0x20 ADD PUSH1 0x0 KECCAK256 SLOAD SWAP1 POP SWAP3 SWAP2 POP POP JUMP JUMPDEST PUSH1 0x0 DUP2 CALLDATALOAD SWAP1 POP PUSH2 0x1B2 DUP2 PUSH2 0x33D JUMP JUMPDEST SWAP3 SWAP2 POP POP JUMP JUMPDEST PUSH1 0x0 DUP2 CALLDATALOAD SWAP1 POP PUSH2 0x1C7 DUP2 PUSH2 0x354 JUMP JUMPDEST SWAP3 SWAP2 POP POP JUMP JUMPDEST PUSH1 0x0 DUP1 PUSH1 0x40 DUP4 DUP6 SUB SLT ISZERO PUSH2 0x1E4 JUMPI PUSH2 0x1E3 PUSH2 0x338 JUMP JUMPDEST JUMPDEST PUSH1 0x0 PUSH2 0x1F2 DUP6 DUP3 DUP7 ADD PUSH2 0x1A3 JUMP JUMPDEST SWAP3 POP POP PUSH1 0x20 PUSH2 0x203 DUP6 DUP3 DUP7 ADD PUSH2 0x1A3 JUMP JUMPDEST SWAP2 POP POP SWAP3 POP SWAP3 SWAP1 POP JUMP JUMPDEST PUSH1 0x0 DUP1 PUSH1 0x40 DUP4 DUP6 SUB SLT ISZERO PUSH2 0x224 JUMPI PUSH2 0x223 PUSH2 0x338 JUMP JUMPDEST JUMPDEST PUSH1 0x0 PUSH2 0x232 DUP6 DUP3 DUP7 ADD PUSH2 0x1A3 JUMP JUMPDEST SWAP3 POP POP PUSH1 0x20 PUSH2 0x243 DUP6 DUP3 DUP7 ADD PUSH2 0x1B8 JUMP JUMPDEST SWAP2 POP POP SWAP3 POP SWAP3 SWAP1 POP JUMP JUMPDEST PUSH2 0x256 DUP2 PUSH2 0x2FF JUMP JUMPDEST DUP3 MSTORE POP POP JUMP JUMPDEST PUSH1 0x0 PUSH1 0x20 DUP3 ADD SWAP1 POP PUSH2 0x271 PUSH1 0x0 DUP4 ADD DUP5 PUSH2 0x24D JUMP JUMPDEST SWAP3 SWAP2 POP POP JUMP JUMPDEST PUSH1 0x0 PUSH2 0x282 DUP3 PUSH2 0x2FF JUMP JUMPDEST SWAP2 POP PUSH2 0x28D DUP4 PUSH2 0x2FF JUMP JUMPDEST SWAP3 POP DUP3 PUSH32 0xFFFFFFFFFFFFFFFFFFFFFFFFFFFFFFFFFFFFFFFFFFFFFFFFFFFFFFFFFFFFFFFF SUB DUP3 GT ISZERO PUSH2 0x2C2 JUMPI PUSH2 0x2C1 PUSH2 0x309 JUMP JUMPDEST JUMPDEST DUP3 DUP3 ADD SWAP1 POP SWAP3 SWAP2 POP POP JUMP JUMPDEST PUSH1 0x0 PUSH2 0x2D8 DUP3 PUSH2 0x2DF JUMP JUMPDEST SWAP1 POP SWAP2 SWAP1 POP JUMP JUMPDEST PUSH1 0x0 PUSH20 0xFFFFFFFFFFFFFFFFFFFFFFFFFFFFFFFFFFFFFFFF DUP3 AND SWAP1 POP SWAP2 SWAP1 POP JUMP JUMPDEST PUSH1 0x0 DUP2 SWAP1 POP SWAP2 SWAP1 POP JUMP JUMPDEST PUSH32 0x4E487B7100000000000000000000000000000000000000000000000000000000 PUSH1 0x0 MSTORE PUSH1 0x11 PUSH1 0x4 MSTORE PUSH1 0x24 PUSH1 0x0 REVERT JUMPDEST PUSH1 0x0 DUP1 REVERT JUMPDEST PUSH2 0x346 DUP2 PUSH2 0x2CD JUMP JUMPDEST DUP2 EQ PUSH2 0x351 JUMPI PUSH1 0x0 DUP1 REVERT JUMPDEST POP JUMP JUMPDEST PUSH2 0x35D DUP2 PUSH2 0x2FF JUMP JUMPDEST DUP2 EQ PUSH2 0x368 JUMPI PUSH1 0x0 DUP1 REVERT JUMPDEST POP JUMP INVALID LOG2 PUSH5 0x6970667358 0x22 SLT KECCAK256 0x5D 0xEC DUP6 DUP11 CODESIZE 0xEF 0xE7 0xD0 0xCF 0xB0 INVALID SWAP15 0xBB 0xE7 0xF PUSH30 0x3B8F54B005307713192F851953E60BD064736F6C63430008070033000000 "
				},
				"gasEstimates": {
					"creation": {
						"codeDepositCost": "185800",
						"executionCost": "232",
						"totalCost": "186032"
					},
					"external": {
						"add_IOU(address,uint256)": "infinite",
						"lookup(address,address)": "infinite"
					}
				},
				"methodIdentifiers": {
					"add_IOU(address,uint256)": "215accc7",
					"lookup(address,address)": "713584a6"
				}
			},
			"storageLayout": {
				"storage": [
					{
						"astId": 8,
						"contract": "mycontract.sol:blockWise",
						"label": "ious",
						"offset": 0,
						"slot": "0",
						"type": "t_mapping(t_address,t_mapping(t_address,t_uint256))"
					}
				],
				"types": {
					"t_address": {
						"encoding": "inplace",
						"label": "address",
						"numberOfBytes": "20"
					},
					"t_mapping(t_address,t_mapping(t_address,t_uint256))": {
						"encoding": "mapping",
						"key": "t_address",
						"label": "mapping(address => mapping(address => uint256))",
						"numberOfBytes": "32",
						"value": "t_mapping(t_address,t_uint256)"
					},
					"t_mapping(t_address,t_uint256)": {
						"encoding": "mapping",
						"key": "t_address",
						"label": "mapping(address => uint256)",
						"numberOfBytes": "32",
						"value": "t_uint256"
					},
					"t_uint256": {
						"encoding": "inplace",
						"label": "uint256",
						"numberOfBytes": "32"
					}
				}
			},
			"userdoc": {
				"kind": "user",
				"methods": {},
				"version": 1
			}
		}
	}
}