{
	"mycontract.sol": {
		"blockWise": {
			"abi": [
				{
					"inputs": [
						{
							"internalType": "address",
							"name": "_creditor",
							"type": "address"
						},
						{
							"internalType": "uint256",
							"name": "_iou",
							"type": "uint256"
						},
						{
							"internalType": "address[]",
							"name": "cycle",
							"type": "address[]"
						},
						{
							"internalType": "bool",
							"name": "cyclexist",
							"type": "bool"
						}
					],
					"name": "add_IOU",
					"outputs": [],
					"stateMutability": "nonpayable",
					"type": "function"
				},
				{
					"inputs": [
						{
							"internalType": "address",
							"name": "_debtor",
							"type": "address"
						},
						{
							"internalType": "address",
							"name": "_creditor",
							"type": "address"
						}
					],
					"name": "lookup",
					"outputs": [
						{
							"internalType": "uint256",
							"name": "",
							"type": "uint256"
						}
					],
					"stateMutability": "view",
					"type": "function"
				}
			],
			"devdoc": {
				"kind": "dev",
				"methods": {},
				"version": 1
			},
			"evm": {
				"assembly": "    /* \"mycontract.sol\":363:1704  contract blockWise {... */\n  mstore(0x40, 0x80)\n  callvalue\n  dup1\n  iszero\n  tag_1\n  jumpi\n  0x00\n  dup1\n  revert\ntag_1:\n  pop\n  dataSize(sub_0)\n  dup1\n  dataOffset(sub_0)\n  0x00\n  codecopy\n  0x00\n  return\nstop\n\nsub_0: assembly {\n        /* \"mycontract.sol\":363:1704  contract blockWise {... */\n      mstore(0x40, 0x80)\n      callvalue\n      dup1\n      iszero\n      tag_1\n      jumpi\n      0x00\n      dup1\n      revert\n    tag_1:\n      pop\n      jumpi(tag_2, lt(calldatasize, 0x04))\n      shr(0xe0, calldataload(0x00))\n      dup1\n      0x713584a6\n      eq\n      tag_3\n      jumpi\n      dup1\n      0xab8aee69\n      eq\n      tag_4\n      jumpi\n    tag_2:\n      0x00\n      dup1\n      revert\n        /* \"mycontract.sol\":1572:1701  function lookup(address _debtor, address _creditor) external view returns (uint) {... */\n    tag_3:\n      tag_5\n      0x04\n      dup1\n      calldatasize\n      sub\n      dup2\n      add\n      swap1\n      tag_6\n      swap2\n      swap1\n      tag_7\n      jump\t// in\n    tag_6:\n      tag_8\n      jump\t// in\n    tag_5:\n      mload(0x40)\n      tag_9\n      swap2\n      swap1\n      tag_10\n      jump\t// in\n    tag_9:\n      mload(0x40)\n      dup1\n      swap2\n      sub\n      swap1\n      return\n        /* \"mycontract.sol\":453:1565  function add_IOU(address _creditor, uint _iou, address[] memory cycle, bool cyclexist) external {... */\n    tag_4:\n      tag_11\n      0x04\n      dup1\n      calldatasize\n      sub\n      dup2\n      add\n      swap1\n      tag_12\n      swap2\n      swap1\n      tag_13\n      jump\t// in\n    tag_12:\n      tag_14\n      jump\t// in\n    tag_11:\n      stop\n        /* \"mycontract.sol\":1572:1701  function lookup(address _debtor, address _creditor) external view returns (uint) {... */\n    tag_8:\n        /* \"mycontract.sol\":1647:1651  uint */\n      0x00\n        /* \"mycontract.sol\":1670:1674  ious */\n      dup1\n        /* \"mycontract.sol\":1670:1683  ious[_debtor] */\n      0x00\n        /* \"mycontract.sol\":1675:1682  _debtor */\n      dup5\n        /* \"mycontract.sol\":1670:1683  ious[_debtor] */\n      0xffffffffffffffffffffffffffffffffffffffff\n      and\n      0xffffffffffffffffffffffffffffffffffffffff\n      and\n      dup2\n      mstore\n      0x20\n      add\n      swap1\n      dup2\n      mstore\n      0x20\n      add\n      0x00\n      keccak256\n        /* \"mycontract.sol\":1670:1694  ious[_debtor][_creditor] */\n      0x00\n        /* \"mycontract.sol\":1684:1693  _creditor */\n      dup4\n        /* \"mycontract.sol\":1670:1694  ious[_debtor][_creditor] */\n      0xffffffffffffffffffffffffffffffffffffffff\n      and\n      0xffffffffffffffffffffffffffffffffffffffff\n      and\n      dup2\n      mstore\n      0x20\n      add\n      swap1\n      dup2\n      mstore\n      0x20\n      add\n      0x00\n      keccak256\n      sload\n        /* \"mycontract.sol\":1663:1694  return ious[_debtor][_creditor] */\n      swap1\n      pop\n        /* \"mycontract.sol\":1572:1701  function lookup(address _debtor, address _creditor) external view returns (uint) {... */\n      swap3\n      swap2\n      pop\n      pop\n      jump\t// out\n        /* \"mycontract.sol\":453:1565  function add_IOU(address _creditor, uint _iou, address[] memory cycle, bool cyclexist) external {... */\n    tag_14:\n        /* \"mycontract.sol\":599:603  _iou */\n      dup3\n        /* \"mycontract.sol\":568:572  ious */\n      0x00\n        /* \"mycontract.sol\":568:584  ious[msg.sender] */\n      dup1\n        /* \"mycontract.sol\":573:583  msg.sender */\n      caller\n        /* \"mycontract.sol\":568:584  ious[msg.sender] */\n      0xffffffffffffffffffffffffffffffffffffffff\n      and\n      0xffffffffffffffffffffffffffffffffffffffff\n      and\n      dup2\n      mstore\n      0x20\n      add\n      swap1\n      dup2\n      mstore\n      0x20\n      add\n      0x00\n      keccak256\n        /* \"mycontract.sol\":568:595  ious[msg.sender][_creditor] */\n      0x00\n        /* \"mycontract.sol\":585:594  _creditor */\n      dup7\n        /* \"mycontract.sol\":568:595  ious[msg.sender][_creditor] */\n      0xffffffffffffffffffffffffffffffffffffffff\n      and\n      0xffffffffffffffffffffffffffffffffffffffff\n      and\n      dup2\n      mstore\n      0x20\n      add\n      swap1\n      dup2\n      mstore\n      0x20\n      add\n      0x00\n      keccak256\n      0x00\n        /* \"mycontract.sol\":568:603  ious[msg.sender][_creditor] += _iou */\n      dup3\n      dup3\n      sload\n      tag_17\n      swap2\n      swap1\n      tag_18\n      jump\t// in\n    tag_17:\n      swap3\n      pop\n      pop\n      dup2\n      swap1\n      sstore\n      pop\n        /* \"mycontract.sol\":625:634  cyclexist */\n      dup1\n        /* \"mycontract.sol\":621:1558  if (cyclexist) { ... */\n      iszero\n      tag_19\n      jumpi\n        /* \"mycontract.sol\":651:667  uint cycleAmount */\n      0x00\n        /* \"mycontract.sol\":670:678  10000000 */\n      0x989680\n        /* \"mycontract.sol\":651:678  uint cycleAmount = 10000000 */\n      swap1\n      pop\n        /* \"mycontract.sol\":692:706  uint lastIndex */\n      0x00\n        /* \"mycontract.sol\":722:723  1 */\n      0x01\n        /* \"mycontract.sol\":709:714  cycle */\n      dup5\n        /* \"mycontract.sol\":709:721  cycle.length */\n      mload\n        /* \"mycontract.sol\":709:723  cycle.length-1 */\n      tag_20\n      swap2\n      swap1\n      tag_21\n      jump\t// in\n    tag_20:\n        /* \"mycontract.sol\":692:723  uint lastIndex = cycle.length-1 */\n      swap1\n      pop\n        /* \"mycontract.sol\":743:749  uint i */\n      0x00\n        /* \"mycontract.sol\":738:1244  for (uint i = 0; i < cycle.length; i++) {... */\n    tag_22:\n        /* \"mycontract.sol\":759:764  cycle */\n      dup5\n        /* \"mycontract.sol\":759:771  cycle.length */\n      mload\n        /* \"mycontract.sol\":755:756  i */\n      dup2\n        /* \"mycontract.sol\":755:771  i < cycle.length */\n      lt\n        /* \"mycontract.sol\":738:1244  for (uint i = 0; i < cycle.length; i++) {... */\n      iszero\n      tag_23\n      jumpi\n        /* \"mycontract.sol\":819:828  lastIndex */\n      dup2\n        /* \"mycontract.sol\":814:815  i */\n      dup2\n        /* \"mycontract.sol\":814:828  i != lastIndex */\n      eq\n        /* \"mycontract.sol\":810:1009  if (i != lastIndex) {... */\n      tag_25\n      jumpi\n        /* \"mycontract.sol\":887:898  cycleAmount */\n      dup3\n        /* \"mycontract.sol\":856:860  ious */\n      0x00\n        /* \"mycontract.sol\":856:870  ious[cycle[i]] */\n      dup1\n        /* \"mycontract.sol\":861:866  cycle */\n      dup8\n        /* \"mycontract.sol\":867:868  i */\n      dup5\n        /* \"mycontract.sol\":861:869  cycle[i] */\n      dup2\n      mload\n      dup2\n      lt\n      tag_26\n      jumpi\n      tag_27\n      tag_28\n      jump\t// in\n    tag_27:\n    tag_26:\n      0x20\n      mul\n      0x20\n      add\n      add\n      mload\n        /* \"mycontract.sol\":856:870  ious[cycle[i]] */\n      0xffffffffffffffffffffffffffffffffffffffff\n      and\n      0xffffffffffffffffffffffffffffffffffffffff\n      and\n      dup2\n      mstore\n      0x20\n      add\n      swap1\n      dup2\n      mstore\n      0x20\n      add\n      0x00\n      keccak256\n        /* \"mycontract.sol\":856:884  ious[cycle[i]][cycle[i + 1]] */\n      0x00\n        /* \"mycontract.sol\":871:876  cycle */\n      dup8\n        /* \"mycontract.sol\":881:882  1 */\n      0x01\n        /* \"mycontract.sol\":877:878  i */\n      dup6\n        /* \"mycontract.sol\":877:882  i + 1 */\n      tag_29\n      swap2\n      swap1\n      tag_18\n      jump\t// in\n    tag_29:\n        /* \"mycontract.sol\":871:883  cycle[i + 1] */\n      dup2\n      mload\n      dup2\n      lt\n      tag_30\n      jumpi\n      tag_31\n      tag_28\n      jump\t// in\n    tag_31:\n    tag_30:\n      0x20\n      mul\n      0x20\n      add\n      add\n      mload\n        /* \"mycontract.sol\":856:884  ious[cycle[i]][cycle[i + 1]] */\n      0xffffffffffffffffffffffffffffffffffffffff\n      and\n      0xffffffffffffffffffffffffffffffffffffffff\n      and\n      dup2\n      mstore\n      0x20\n      add\n      swap1\n      dup2\n      mstore\n      0x20\n      add\n      0x00\n      keccak256\n      sload\n        /* \"mycontract.sol\":856:898  ious[cycle[i]][cycle[i + 1]] < cycleAmount */\n      lt\n        /* \"mycontract.sol\":852:991  if (ious[cycle[i]][cycle[i + 1]] < cycleAmount) {... */\n      iszero\n      tag_32\n      jumpi\n        /* \"mycontract.sol\":940:944  ious */\n      0x00\n        /* \"mycontract.sol\":940:954  ious[cycle[i]] */\n      dup1\n        /* \"mycontract.sol\":945:950  cycle */\n      dup7\n        /* \"mycontract.sol\":951:952  i */\n      dup4\n        /* \"mycontract.sol\":945:953  cycle[i] */\n      dup2\n      mload\n      dup2\n      lt\n      tag_33\n      jumpi\n      tag_34\n      tag_28\n      jump\t// in\n    tag_34:\n    tag_33:\n      0x20\n      mul\n      0x20\n      add\n      add\n      mload\n        /* \"mycontract.sol\":940:954  ious[cycle[i]] */\n      0xffffffffffffffffffffffffffffffffffffffff\n      and\n      0xffffffffffffffffffffffffffffffffffffffff\n      and\n      dup2\n      mstore\n      0x20\n      add\n      swap1\n      dup2\n      mstore\n      0x20\n      add\n      0x00\n      keccak256\n        /* \"mycontract.sol\":940:968  ious[cycle[i]][cycle[i + 1]] */\n      0x00\n        /* \"mycontract.sol\":955:960  cycle */\n      dup7\n        /* \"mycontract.sol\":965:966  1 */\n      0x01\n        /* \"mycontract.sol\":961:962  i */\n      dup5\n        /* \"mycontract.sol\":961:966  i + 1 */\n      tag_35\n      swap2\n      swap1\n      tag_18\n      jump\t// in\n    tag_35:\n        /* \"mycontract.sol\":955:967  cycle[i + 1] */\n      dup2\n      mload\n      dup2\n      lt\n      tag_36\n      jumpi\n      tag_37\n      tag_28\n      jump\t// in\n    tag_37:\n    tag_36:\n      0x20\n      mul\n      0x20\n      add\n      add\n      mload\n        /* \"mycontract.sol\":940:968  ious[cycle[i]][cycle[i + 1]] */\n      0xffffffffffffffffffffffffffffffffffffffff\n      and\n      0xffffffffffffffffffffffffffffffffffffffff\n      and\n      dup2\n      mstore\n      0x20\n      add\n      swap1\n      dup2\n      mstore\n      0x20\n      add\n      0x00\n      keccak256\n      sload\n        /* \"mycontract.sol\":926:968  cycleAmount = ious[cycle[i]][cycle[i + 1]] */\n      swap3\n      pop\n        /* \"mycontract.sol\":852:991  if (ious[cycle[i]][cycle[i + 1]] < cycleAmount) {... */\n    tag_32:\n        /* \"mycontract.sol\":810:1009  if (i != lastIndex) {... */\n    tag_25:\n        /* \"mycontract.sol\":1052:1061  lastIndex */\n      dup2\n        /* \"mycontract.sol\":1047:1048  i */\n      dup2\n        /* \"mycontract.sol\":1047:1061  i == lastIndex */\n      eq\n        /* \"mycontract.sol\":1043:1230  if (i == lastIndex) {... */\n      iszero\n      tag_38\n      jumpi\n        /* \"mycontract.sol\":1116:1127  cycleAmount */\n      dup3\n        /* \"mycontract.sol\":1089:1093  ious */\n      0x00\n        /* \"mycontract.sol\":1089:1103  ious[cycle[i]] */\n      dup1\n        /* \"mycontract.sol\":1094:1099  cycle */\n      dup8\n        /* \"mycontract.sol\":1100:1101  i */\n      dup5\n        /* \"mycontract.sol\":1094:1102  cycle[i] */\n      dup2\n      mload\n      dup2\n      lt\n      tag_39\n      jumpi\n      tag_40\n      tag_28\n      jump\t// in\n    tag_40:\n    tag_39:\n      0x20\n      mul\n      0x20\n      add\n      add\n      mload\n        /* \"mycontract.sol\":1089:1103  ious[cycle[i]] */\n      0xffffffffffffffffffffffffffffffffffffffff\n      and\n      0xffffffffffffffffffffffffffffffffffffffff\n      and\n      dup2\n      mstore\n      0x20\n      add\n      swap1\n      dup2\n      mstore\n      0x20\n      add\n      0x00\n      keccak256\n        /* \"mycontract.sol\":1089:1113  ious[cycle[i]][cycle[0]] */\n      0x00\n        /* \"mycontract.sol\":1104:1109  cycle */\n      dup8\n        /* \"mycontract.sol\":1110:1111  0 */\n      0x00\n        /* \"mycontract.sol\":1104:1112  cycle[0] */\n      dup2\n      mload\n      dup2\n      lt\n      tag_41\n      jumpi\n      tag_42\n      tag_28\n      jump\t// in\n    tag_42:\n    tag_41:\n      0x20\n      mul\n      0x20\n      add\n      add\n      mload\n        /* \"mycontract.sol\":1089:1113  ious[cycle[i]][cycle[0]] */\n      0xffffffffffffffffffffffffffffffffffffffff\n      and\n      0xffffffffffffffffffffffffffffffffffffffff\n      and\n      dup2\n      mstore\n      0x20\n      add\n      swap1\n      dup2\n      mstore\n      0x20\n      add\n      0x00\n      keccak256\n      sload\n        /* \"mycontract.sol\":1089:1127  ious[cycle[i]][cycle[0]] < cycleAmount */\n      lt\n        /* \"mycontract.sol\":1085:1212  if (ious[cycle[i]][cycle[0]] < cycleAmount) {... */\n      iszero\n      tag_43\n      jumpi\n        /* \"mycontract.sol\":1165:1169  ious */\n      0x00\n        /* \"mycontract.sol\":1165:1179  ious[cycle[i]] */\n      dup1\n        /* \"mycontract.sol\":1170:1175  cycle */\n      dup7\n        /* \"mycontract.sol\":1176:1177  i */\n      dup4\n        /* \"mycontract.sol\":1170:1178  cycle[i] */\n      dup2\n      mload\n      dup2\n      lt\n      tag_44\n      jumpi\n      tag_45\n      tag_28\n      jump\t// in\n    tag_45:\n    tag_44:\n      0x20\n      mul\n      0x20\n      add\n      add\n      mload\n        /* \"mycontract.sol\":1165:1179  ious[cycle[i]] */\n      0xffffffffffffffffffffffffffffffffffffffff\n      and\n      0xffffffffffffffffffffffffffffffffffffffff\n      and\n      dup2\n      mstore\n      0x20\n      add\n      swap1\n      dup2\n      mstore\n      0x20\n      add\n      0x00\n      keccak256\n        /* \"mycontract.sol\":1165:1189  ious[cycle[i]][cycle[0]] */\n      0x00\n        /* \"mycontract.sol\":1180:1185  cycle */\n      dup7\n        /* \"mycontract.sol\":1186:1187  0 */\n      0x00\n        /* \"mycontract.sol\":1180:1188  cycle[0] */\n      dup2\n      mload\n      dup2\n      lt\n      tag_46\n      jumpi\n      tag_47\n      tag_28\n      jump\t// in\n    tag_47:\n    tag_46:\n      0x20\n      mul\n      0x20\n      add\n      add\n      mload\n        /* \"mycontract.sol\":1165:1189  ious[cycle[i]][cycle[0]] */\n      0xffffffffffffffffffffffffffffffffffffffff\n      and\n      0xffffffffffffffffffffffffffffffffffffffff\n      and\n      dup2\n      mstore\n      0x20\n      add\n      swap1\n      dup2\n      mstore\n      0x20\n      add\n      0x00\n      keccak256\n      sload\n        /* \"mycontract.sol\":1151:1189  cycleAmount = ious[cycle[i]][cycle[0]] */\n      swap3\n      pop\n        /* \"mycontract.sol\":1085:1212  if (ious[cycle[i]][cycle[0]] < cycleAmount) {... */\n    tag_43:\n        /* \"mycontract.sol\":1043:1230  if (i == lastIndex) {... */\n    tag_38:\n        /* \"mycontract.sol\":773:776  i++ */\n      dup1\n      dup1\n      tag_48\n      swap1\n      tag_49\n      jump\t// in\n    tag_48:\n      swap2\n      pop\n      pop\n        /* \"mycontract.sol\":738:1244  for (uint i = 0; i < cycle.length; i++) {... */\n      jump(tag_22)\n    tag_23:\n      pop\n        /* \"mycontract.sol\":1262:1268  uint i */\n      0x00\n        /* \"mycontract.sol\":1257:1548  for (uint i = 0; i < cycle.length; i++) {... */\n    tag_50:\n        /* \"mycontract.sol\":1278:1283  cycle */\n      dup5\n        /* \"mycontract.sol\":1278:1290  cycle.length */\n      mload\n        /* \"mycontract.sol\":1274:1275  i */\n      dup2\n        /* \"mycontract.sol\":1274:1290  i < cycle.length */\n      lt\n        /* \"mycontract.sol\":1257:1548  for (uint i = 0; i < cycle.length; i++) {... */\n      iszero\n      tag_51\n      jumpi\n        /* \"mycontract.sol\":1340:1349  lastIndex */\n      dup2\n        /* \"mycontract.sol\":1335:1336  i */\n      dup2\n        /* \"mycontract.sol\":1335:1349  i != lastIndex */\n      eq\n        /* \"mycontract.sol\":1331:1521  if (i != lastIndex) {... */\n      tag_53\n      jumpi\n        /* \"mycontract.sol\":1405:1416  cycleAmount */\n      dup3\n        /* \"mycontract.sol\":1373:1377  ious */\n      0x00\n        /* \"mycontract.sol\":1373:1387  ious[cycle[i]] */\n      dup1\n        /* \"mycontract.sol\":1378:1383  cycle */\n      dup8\n        /* \"mycontract.sol\":1384:1385  i */\n      dup5\n        /* \"mycontract.sol\":1378:1386  cycle[i] */\n      dup2\n      mload\n      dup2\n      lt\n      tag_54\n      jumpi\n      tag_55\n      tag_28\n      jump\t// in\n    tag_55:\n    tag_54:\n      0x20\n      mul\n      0x20\n      add\n      add\n      mload\n        /* \"mycontract.sol\":1373:1387  ious[cycle[i]] */\n      0xffffffffffffffffffffffffffffffffffffffff\n      and\n      0xffffffffffffffffffffffffffffffffffffffff\n      and\n      dup2\n      mstore\n      0x20\n      add\n      swap1\n      dup2\n      mstore\n      0x20\n      add\n      0x00\n      keccak256\n        /* \"mycontract.sol\":1373:1401  ious[cycle[i]][cycle[i + 1]] */\n      0x00\n        /* \"mycontract.sol\":1388:1393  cycle */\n      dup8\n        /* \"mycontract.sol\":1398:1399  1 */\n      0x01\n        /* \"mycontract.sol\":1394:1395  i */\n      dup6\n        /* \"mycontract.sol\":1394:1399  i + 1 */\n      tag_56\n      swap2\n      swap1\n      tag_18\n      jump\t// in\n    tag_56:\n        /* \"mycontract.sol\":1388:1400  cycle[i + 1] */\n      dup2\n      mload\n      dup2\n      lt\n      tag_57\n      jumpi\n      tag_58\n      tag_28\n      jump\t// in\n    tag_58:\n    tag_57:\n      0x20\n      mul\n      0x20\n      add\n      add\n      mload\n        /* \"mycontract.sol\":1373:1401  ious[cycle[i]][cycle[i + 1]] */\n      0xffffffffffffffffffffffffffffffffffffffff\n      and\n      0xffffffffffffffffffffffffffffffffffffffff\n      and\n      dup2\n      mstore\n      0x20\n      add\n      swap1\n      dup2\n      mstore\n      0x20\n      add\n      0x00\n      keccak256\n      0x00\n        /* \"mycontract.sol\":1373:1416  ious[cycle[i]][cycle[i + 1]] -= cycleAmount */\n      dup3\n      dup3\n      sload\n      tag_59\n      swap2\n      swap1\n      tag_21\n      jump\t// in\n    tag_59:\n      swap3\n      pop\n      pop\n      dup2\n      swap1\n      sstore\n      pop\n        /* \"mycontract.sol\":1331:1521  if (i != lastIndex) {... */\n      jump(tag_60)\n    tag_53:\n        /* \"mycontract.sol\":1491:1502  cycleAmount */\n      dup3\n        /* \"mycontract.sol\":1463:1467  ious */\n      0x00\n        /* \"mycontract.sol\":1463:1477  ious[cycle[i]] */\n      dup1\n        /* \"mycontract.sol\":1468:1473  cycle */\n      dup8\n        /* \"mycontract.sol\":1474:1475  i */\n      dup5\n        /* \"mycontract.sol\":1468:1476  cycle[i] */\n      dup2\n      mload\n      dup2\n      lt\n      tag_61\n      jumpi\n      tag_62\n      tag_28\n      jump\t// in\n    tag_62:\n    tag_61:\n      0x20\n      mul\n      0x20\n      add\n      add\n      mload\n        /* \"mycontract.sol\":1463:1477  ious[cycle[i]] */\n      0xffffffffffffffffffffffffffffffffffffffff\n      and\n      0xffffffffffffffffffffffffffffffffffffffff\n      and\n      dup2\n      mstore\n      0x20\n      add\n      swap1\n      dup2\n      mstore\n      0x20\n      add\n      0x00\n      keccak256\n        /* \"mycontract.sol\":1463:1487  ious[cycle[i]][cycle[0]] */\n      0x00\n        /* \"mycontract.sol\":1478:1483  cycle */\n      dup8\n        /* \"mycontract.sol\":1484:1485  0 */\n      0x00\n        /* \"mycontract.sol\":1478:1486  cycle[0] */\n      dup2\n      mload\n      dup2\n      lt\n      tag_63\n      jumpi\n      tag_64\n      tag_28\n      jump\t// in\n    tag_64:\n    tag_63:\n      0x20\n      mul\n      0x20\n      add\n      add\n      mload\n        /* \"mycontract.sol\":1463:1487  ious[cycle[i]][cycle[0]] */\n      0xffffffffffffffffffffffffffffffffffffffff\n      and\n      0xffffffffffffffffffffffffffffffffffffffff\n      and\n      dup2\n      mstore\n      0x20\n      add\n      swap1\n      dup2\n      mstore\n      0x20\n      add\n      0x00\n      keccak256\n      0x00\n        /* \"mycontract.sol\":1463:1502  ious[cycle[i]][cycle[0]] -= cycleAmount */\n      dup3\n      dup3\n      sload\n      tag_65\n      swap2\n      swap1\n      tag_21\n      jump\t// in\n    tag_65:\n      swap3\n      pop\n      pop\n      dup2\n      swap1\n      sstore\n      pop\n        /* \"mycontract.sol\":1331:1521  if (i != lastIndex) {... */\n    tag_60:\n        /* \"mycontract.sol\":1292:1295  i++ */\n      dup1\n      dup1\n      tag_66\n      swap1\n      tag_49\n      jump\t// in\n    tag_66:\n      swap2\n      pop\n      pop\n        /* \"mycontract.sol\":1257:1548  for (uint i = 0; i < cycle.length; i++) {... */\n      jump(tag_50)\n    tag_51:\n      pop\n        /* \"mycontract.sol\":636:1558  { ... */\n      pop\n      pop\n        /* \"mycontract.sol\":621:1558  if (cyclexist) { ... */\n    tag_19:\n        /* \"mycontract.sol\":453:1565  function add_IOU(address _creditor, uint _iou, address[] memory cycle, bool cyclexist) external {... */\n      pop\n      pop\n      pop\n      pop\n      jump\t// out\n        /* \"#utility.yul\":24:746   */\n    tag_68:\n        /* \"#utility.yul\":120:125   */\n      0x00\n        /* \"#utility.yul\":145:226   */\n      tag_70\n        /* \"#utility.yul\":161:225   */\n      tag_71\n        /* \"#utility.yul\":218:224   */\n      dup5\n        /* \"#utility.yul\":161:225   */\n      tag_72\n      jump\t// in\n    tag_71:\n        /* \"#utility.yul\":145:226   */\n      tag_73\n      jump\t// in\n    tag_70:\n        /* \"#utility.yul\":136:226   */\n      swap1\n      pop\n        /* \"#utility.yul\":246:251   */\n      dup1\n        /* \"#utility.yul\":275:281   */\n      dup4\n        /* \"#utility.yul\":268:273   */\n      dup3\n        /* \"#utility.yul\":261:282   */\n      mstore\n        /* \"#utility.yul\":309:313   */\n      0x20\n        /* \"#utility.yul\":302:307   */\n      dup3\n        /* \"#utility.yul\":298:314   */\n      add\n        /* \"#utility.yul\":291:314   */\n      swap1\n      pop\n        /* \"#utility.yul\":335:341   */\n      dup3\n        /* \"#utility.yul\":385:388   */\n      dup6\n        /* \"#utility.yul\":377:381   */\n      0x20\n        /* \"#utility.yul\":369:375   */\n      dup7\n        /* \"#utility.yul\":365:382   */\n      mul\n        /* \"#utility.yul\":360:363   */\n      dup3\n        /* \"#utility.yul\":356:383   */\n      add\n        /* \"#utility.yul\":353:389   */\n      gt\n        /* \"#utility.yul\":350:493   */\n      iszero\n      tag_74\n      jumpi\n        /* \"#utility.yul\":404:483   */\n      tag_75\n      tag_76\n      jump\t// in\n    tag_75:\n        /* \"#utility.yul\":350:493   */\n    tag_74:\n        /* \"#utility.yul\":517:518   */\n      0x00\n        /* \"#utility.yul\":502:740   */\n    tag_77:\n        /* \"#utility.yul\":527:533   */\n      dup6\n        /* \"#utility.yul\":524:525   */\n      dup2\n        /* \"#utility.yul\":521:534   */\n      lt\n        /* \"#utility.yul\":502:740   */\n      iszero\n      tag_79\n      jumpi\n        /* \"#utility.yul\":595:598   */\n      dup2\n        /* \"#utility.yul\":624:661   */\n      tag_80\n        /* \"#utility.yul\":657:660   */\n      dup9\n        /* \"#utility.yul\":645:655   */\n      dup3\n        /* \"#utility.yul\":624:661   */\n      tag_81\n      jump\t// in\n    tag_80:\n        /* \"#utility.yul\":619:622   */\n      dup5\n        /* \"#utility.yul\":612:662   */\n      mstore\n        /* \"#utility.yul\":691:695   */\n      0x20\n        /* \"#utility.yul\":686:689   */\n      dup5\n        /* \"#utility.yul\":682:696   */\n      add\n        /* \"#utility.yul\":675:696   */\n      swap4\n      pop\n        /* \"#utility.yul\":725:729   */\n      0x20\n        /* \"#utility.yul\":720:723   */\n      dup4\n        /* \"#utility.yul\":716:730   */\n      add\n        /* \"#utility.yul\":709:730   */\n      swap3\n      pop\n        /* \"#utility.yul\":562:740   */\n      pop\n        /* \"#utility.yul\":549:550   */\n      0x01\n        /* \"#utility.yul\":546:547   */\n      dup2\n        /* \"#utility.yul\":542:551   */\n      add\n        /* \"#utility.yul\":537:551   */\n      swap1\n      pop\n        /* \"#utility.yul\":502:740   */\n      jump(tag_77)\n    tag_79:\n        /* \"#utility.yul\":506:520   */\n      pop\n        /* \"#utility.yul\":126:746   */\n      pop\n      pop\n        /* \"#utility.yul\":24:746   */\n      swap4\n      swap3\n      pop\n      pop\n      pop\n      jump\t// out\n        /* \"#utility.yul\":752:891   */\n    tag_81:\n        /* \"#utility.yul\":798:803   */\n      0x00\n        /* \"#utility.yul\":836:842   */\n      dup2\n        /* \"#utility.yul\":823:843   */\n      calldataload\n        /* \"#utility.yul\":814:843   */\n      swap1\n      pop\n        /* \"#utility.yul\":852:885   */\n      tag_83\n        /* \"#utility.yul\":879:884   */\n      dup2\n        /* \"#utility.yul\":852:885   */\n      tag_84\n      jump\t// in\n    tag_83:\n        /* \"#utility.yul\":752:891   */\n      swap3\n      swap2\n      pop\n      pop\n      jump\t// out\n        /* \"#utility.yul\":914:1284   */\n    tag_85:\n        /* \"#utility.yul\":985:990   */\n      0x00\n        /* \"#utility.yul\":1034:1037   */\n      dup3\n        /* \"#utility.yul\":1027:1031   */\n      0x1f\n        /* \"#utility.yul\":1019:1025   */\n      dup4\n        /* \"#utility.yul\":1015:1032   */\n      add\n        /* \"#utility.yul\":1011:1038   */\n      slt\n        /* \"#utility.yul\":1001:1123   */\n      tag_87\n      jumpi\n        /* \"#utility.yul\":1042:1121   */\n      tag_88\n      tag_89\n      jump\t// in\n    tag_88:\n        /* \"#utility.yul\":1001:1123   */\n    tag_87:\n        /* \"#utility.yul\":1159:1165   */\n      dup2\n        /* \"#utility.yul\":1146:1166   */\n      calldataload\n        /* \"#utility.yul\":1184:1278   */\n      tag_90\n        /* \"#utility.yul\":1274:1277   */\n      dup5\n        /* \"#utility.yul\":1266:1272   */\n      dup3\n        /* \"#utility.yul\":1259:1263   */\n      0x20\n        /* \"#utility.yul\":1251:1257   */\n      dup7\n        /* \"#utility.yul\":1247:1264   */\n      add\n        /* \"#utility.yul\":1184:1278   */\n      tag_68\n      jump\t// in\n    tag_90:\n        /* \"#utility.yul\":1175:1278   */\n      swap2\n      pop\n        /* \"#utility.yul\":991:1284   */\n      pop\n        /* \"#utility.yul\":914:1284   */\n      swap3\n      swap2\n      pop\n      pop\n      jump\t// out\n        /* \"#utility.yul\":1290:1423   */\n    tag_91:\n        /* \"#utility.yul\":1333:1338   */\n      0x00\n        /* \"#utility.yul\":1371:1377   */\n      dup2\n        /* \"#utility.yul\":1358:1378   */\n      calldataload\n        /* \"#utility.yul\":1349:1378   */\n      swap1\n      pop\n        /* \"#utility.yul\":1387:1417   */\n      tag_93\n        /* \"#utility.yul\":1411:1416   */\n      dup2\n        /* \"#utility.yul\":1387:1417   */\n      tag_94\n      jump\t// in\n    tag_93:\n        /* \"#utility.yul\":1290:1423   */\n      swap3\n      swap2\n      pop\n      pop\n      jump\t// out\n        /* \"#utility.yul\":1429:1568   */\n    tag_95:\n        /* \"#utility.yul\":1475:1480   */\n      0x00\n        /* \"#utility.yul\":1513:1519   */\n      dup2\n        /* \"#utility.yul\":1500:1520   */\n      calldataload\n        /* \"#utility.yul\":1491:1520   */\n      swap1\n      pop\n        /* \"#utility.yul\":1529:1562   */\n      tag_97\n        /* \"#utility.yul\":1556:1561   */\n      dup2\n        /* \"#utility.yul\":1529:1562   */\n      tag_98\n      jump\t// in\n    tag_97:\n        /* \"#utility.yul\":1429:1568   */\n      swap3\n      swap2\n      pop\n      pop\n      jump\t// out\n        /* \"#utility.yul\":1574:2048   */\n    tag_7:\n        /* \"#utility.yul\":1642:1648   */\n      0x00\n        /* \"#utility.yul\":1650:1656   */\n      dup1\n        /* \"#utility.yul\":1699:1701   */\n      0x40\n        /* \"#utility.yul\":1687:1696   */\n      dup4\n        /* \"#utility.yul\":1678:1685   */\n      dup6\n        /* \"#utility.yul\":1674:1697   */\n      sub\n        /* \"#utility.yul\":1670:1702   */\n      slt\n        /* \"#utility.yul\":1667:1786   */\n      iszero\n      tag_100\n      jumpi\n        /* \"#utility.yul\":1705:1784   */\n      tag_101\n      tag_102\n      jump\t// in\n    tag_101:\n        /* \"#utility.yul\":1667:1786   */\n    tag_100:\n        /* \"#utility.yul\":1825:1826   */\n      0x00\n        /* \"#utility.yul\":1850:1903   */\n      tag_103\n        /* \"#utility.yul\":1895:1902   */\n      dup6\n        /* \"#utility.yul\":1886:1892   */\n      dup3\n        /* \"#utility.yul\":1875:1884   */\n      dup7\n        /* \"#utility.yul\":1871:1893   */\n      add\n        /* \"#utility.yul\":1850:1903   */\n      tag_81\n      jump\t// in\n    tag_103:\n        /* \"#utility.yul\":1840:1903   */\n      swap3\n      pop\n        /* \"#utility.yul\":1796:1913   */\n      pop\n        /* \"#utility.yul\":1952:1954   */\n      0x20\n        /* \"#utility.yul\":1978:2031   */\n      tag_104\n        /* \"#utility.yul\":2023:2030   */\n      dup6\n        /* \"#utility.yul\":2014:2020   */\n      dup3\n        /* \"#utility.yul\":2003:2012   */\n      dup7\n        /* \"#utility.yul\":1999:2021   */\n      add\n        /* \"#utility.yul\":1978:2031   */\n      tag_81\n      jump\t// in\n    tag_104:\n        /* \"#utility.yul\":1968:2031   */\n      swap2\n      pop\n        /* \"#utility.yul\":1923:2041   */\n      pop\n        /* \"#utility.yul\":1574:2048   */\n      swap3\n      pop\n      swap3\n      swap1\n      pop\n      jump\t// out\n        /* \"#utility.yul\":2054:3023   */\n    tag_13:\n        /* \"#utility.yul\":2162:2168   */\n      0x00\n        /* \"#utility.yul\":2170:2176   */\n      dup1\n        /* \"#utility.yul\":2178:2184   */\n      0x00\n        /* \"#utility.yul\":2186:2192   */\n      dup1\n        /* \"#utility.yul\":2235:2238   */\n      0x80\n        /* \"#utility.yul\":2223:2232   */\n      dup6\n        /* \"#utility.yul\":2214:2221   */\n      dup8\n        /* \"#utility.yul\":2210:2233   */\n      sub\n        /* \"#utility.yul\":2206:2239   */\n      slt\n        /* \"#utility.yul\":2203:2323   */\n      iszero\n      tag_106\n      jumpi\n        /* \"#utility.yul\":2242:2321   */\n      tag_107\n      tag_102\n      jump\t// in\n    tag_107:\n        /* \"#utility.yul\":2203:2323   */\n    tag_106:\n        /* \"#utility.yul\":2362:2363   */\n      0x00\n        /* \"#utility.yul\":2387:2440   */\n      tag_108\n        /* \"#utility.yul\":2432:2439   */\n      dup8\n        /* \"#utility.yul\":2423:2429   */\n      dup3\n        /* \"#utility.yul\":2412:2421   */\n      dup9\n        /* \"#utility.yul\":2408:2430   */\n      add\n        /* \"#utility.yul\":2387:2440   */\n      tag_81\n      jump\t// in\n    tag_108:\n        /* \"#utility.yul\":2377:2440   */\n      swap5\n      pop\n        /* \"#utility.yul\":2333:2450   */\n      pop\n        /* \"#utility.yul\":2489:2491   */\n      0x20\n        /* \"#utility.yul\":2515:2568   */\n      tag_109\n        /* \"#utility.yul\":2560:2567   */\n      dup8\n        /* \"#utility.yul\":2551:2557   */\n      dup3\n        /* \"#utility.yul\":2540:2549   */\n      dup9\n        /* \"#utility.yul\":2536:2558   */\n      add\n        /* \"#utility.yul\":2515:2568   */\n      tag_95\n      jump\t// in\n    tag_109:\n        /* \"#utility.yul\":2505:2568   */\n      swap4\n      pop\n        /* \"#utility.yul\":2460:2578   */\n      pop\n        /* \"#utility.yul\":2645:2647   */\n      0x40\n        /* \"#utility.yul\":2634:2643   */\n      dup6\n        /* \"#utility.yul\":2630:2648   */\n      add\n        /* \"#utility.yul\":2617:2649   */\n      calldataload\n        /* \"#utility.yul\":2676:2694   */\n      0xffffffffffffffff\n        /* \"#utility.yul\":2668:2674   */\n      dup2\n        /* \"#utility.yul\":2665:2695   */\n      gt\n        /* \"#utility.yul\":2662:2779   */\n      iszero\n      tag_110\n      jumpi\n        /* \"#utility.yul\":2698:2777   */\n      tag_111\n      tag_112\n      jump\t// in\n    tag_111:\n        /* \"#utility.yul\":2662:2779   */\n    tag_110:\n        /* \"#utility.yul\":2803:2881   */\n      tag_113\n        /* \"#utility.yul\":2873:2880   */\n      dup8\n        /* \"#utility.yul\":2864:2870   */\n      dup3\n        /* \"#utility.yul\":2853:2862   */\n      dup9\n        /* \"#utility.yul\":2849:2871   */\n      add\n        /* \"#utility.yul\":2803:2881   */\n      tag_85\n      jump\t// in\n    tag_113:\n        /* \"#utility.yul\":2793:2881   */\n      swap3\n      pop\n        /* \"#utility.yul\":2588:2891   */\n      pop\n        /* \"#utility.yul\":2930:2932   */\n      0x60\n        /* \"#utility.yul\":2956:3006   */\n      tag_114\n        /* \"#utility.yul\":2998:3005   */\n      dup8\n        /* \"#utility.yul\":2989:2995   */\n      dup3\n        /* \"#utility.yul\":2978:2987   */\n      dup9\n        /* \"#utility.yul\":2974:2996   */\n      add\n        /* \"#utility.yul\":2956:3006   */\n      tag_91\n      jump\t// in\n    tag_114:\n        /* \"#utility.yul\":2946:3006   */\n      swap2\n      pop\n        /* \"#utility.yul\":2901:3016   */\n      pop\n        /* \"#utility.yul\":2054:3023   */\n      swap3\n      swap6\n      swap2\n      swap5\n      pop\n      swap3\n      pop\n      jump\t// out\n        /* \"#utility.yul\":3029:3147   */\n    tag_115:\n        /* \"#utility.yul\":3116:3140   */\n      tag_117\n        /* \"#utility.yul\":3134:3139   */\n      dup2\n        /* \"#utility.yul\":3116:3140   */\n      tag_118\n      jump\t// in\n    tag_117:\n        /* \"#utility.yul\":3111:3114   */\n      dup3\n        /* \"#utility.yul\":3104:3141   */\n      mstore\n        /* \"#utility.yul\":3029:3147   */\n      pop\n      pop\n      jump\t// out\n        /* \"#utility.yul\":3153:3375   */\n    tag_10:\n        /* \"#utility.yul\":3246:3250   */\n      0x00\n        /* \"#utility.yul\":3284:3286   */\n      0x20\n        /* \"#utility.yul\":3273:3282   */\n      dup3\n        /* \"#utility.yul\":3269:3287   */\n      add\n        /* \"#utility.yul\":3261:3287   */\n      swap1\n      pop\n        /* \"#utility.yul\":3297:3368   */\n      tag_120\n        /* \"#utility.yul\":3365:3366   */\n      0x00\n        /* \"#utility.yul\":3354:3363   */\n      dup4\n        /* \"#utility.yul\":3350:3367   */\n      add\n        /* \"#utility.yul\":3341:3347   */\n      dup5\n        /* \"#utility.yul\":3297:3368   */\n      tag_115\n      jump\t// in\n    tag_120:\n        /* \"#utility.yul\":3153:3375   */\n      swap3\n      swap2\n      pop\n      pop\n      jump\t// out\n        /* \"#utility.yul\":3381:3510   */\n    tag_73:\n        /* \"#utility.yul\":3415:3421   */\n      0x00\n        /* \"#utility.yul\":3442:3462   */\n      tag_122\n      tag_123\n      jump\t// in\n    tag_122:\n        /* \"#utility.yul\":3432:3462   */\n      swap1\n      pop\n        /* \"#utility.yul\":3471:3504   */\n      tag_124\n        /* \"#utility.yul\":3499:3503   */\n      dup3\n        /* \"#utility.yul\":3491:3497   */\n      dup3\n        /* \"#utility.yul\":3471:3504   */\n      tag_125\n      jump\t// in\n    tag_124:\n        /* \"#utility.yul\":3381:3510   */\n      swap2\n      swap1\n      pop\n      jump\t// out\n        /* \"#utility.yul\":3516:3591   */\n    tag_123:\n        /* \"#utility.yul\":3549:3555   */\n      0x00\n        /* \"#utility.yul\":3582:3584   */\n      0x40\n        /* \"#utility.yul\":3576:3585   */\n      mload\n        /* \"#utility.yul\":3566:3585   */\n      swap1\n      pop\n        /* \"#utility.yul\":3516:3591   */\n      swap1\n      jump\t// out\n        /* \"#utility.yul\":3597:3908   */\n    tag_72:\n        /* \"#utility.yul\":3674:3678   */\n      0x00\n        /* \"#utility.yul\":3764:3782   */\n      0xffffffffffffffff\n        /* \"#utility.yul\":3756:3762   */\n      dup3\n        /* \"#utility.yul\":3753:3783   */\n      gt\n        /* \"#utility.yul\":3750:3806   */\n      iszero\n      tag_128\n      jumpi\n        /* \"#utility.yul\":3786:3804   */\n      tag_129\n      tag_130\n      jump\t// in\n    tag_129:\n        /* \"#utility.yul\":3750:3806   */\n    tag_128:\n        /* \"#utility.yul\":3836:3840   */\n      0x20\n        /* \"#utility.yul\":3828:3834   */\n      dup3\n        /* \"#utility.yul\":3824:3841   */\n      mul\n        /* \"#utility.yul\":3816:3841   */\n      swap1\n      pop\n        /* \"#utility.yul\":3896:3900   */\n      0x20\n        /* \"#utility.yul\":3890:3894   */\n      dup2\n        /* \"#utility.yul\":3886:3901   */\n      add\n        /* \"#utility.yul\":3878:3901   */\n      swap1\n      pop\n        /* \"#utility.yul\":3597:3908   */\n      swap2\n      swap1\n      pop\n      jump\t// out\n        /* \"#utility.yul\":3914:4219   */\n    tag_18:\n        /* \"#utility.yul\":3954:3957   */\n      0x00\n        /* \"#utility.yul\":3973:3993   */\n      tag_132\n        /* \"#utility.yul\":3991:3992   */\n      dup3\n        /* \"#utility.yul\":3973:3993   */\n      tag_118\n      jump\t// in\n    tag_132:\n        /* \"#utility.yul\":3968:3993   */\n      swap2\n      pop\n        /* \"#utility.yul\":4007:4027   */\n      tag_133\n        /* \"#utility.yul\":4025:4026   */\n      dup4\n        /* \"#utility.yul\":4007:4027   */\n      tag_118\n      jump\t// in\n    tag_133:\n        /* \"#utility.yul\":4002:4027   */\n      swap3\n      pop\n        /* \"#utility.yul\":4161:4162   */\n      dup3\n        /* \"#utility.yul\":4093:4159   */\n      0xffffffffffffffffffffffffffffffffffffffffffffffffffffffffffffffff\n        /* \"#utility.yul\":4089:4163   */\n      sub\n        /* \"#utility.yul\":4086:4087   */\n      dup3\n        /* \"#utility.yul\":4083:4164   */\n      gt\n        /* \"#utility.yul\":4080:4187   */\n      iszero\n      tag_134\n      jumpi\n        /* \"#utility.yul\":4167:4185   */\n      tag_135\n      tag_136\n      jump\t// in\n    tag_135:\n        /* \"#utility.yul\":4080:4187   */\n    tag_134:\n        /* \"#utility.yul\":4211:4212   */\n      dup3\n        /* \"#utility.yul\":4208:4209   */\n      dup3\n        /* \"#utility.yul\":4204:4213   */\n      add\n        /* \"#utility.yul\":4197:4213   */\n      swap1\n      pop\n        /* \"#utility.yul\":3914:4219   */\n      swap3\n      swap2\n      pop\n      pop\n      jump\t// out\n        /* \"#utility.yul\":4225:4416   */\n    tag_21:\n        /* \"#utility.yul\":4265:4269   */\n      0x00\n        /* \"#utility.yul\":4285:4305   */\n      tag_138\n        /* \"#utility.yul\":4303:4304   */\n      dup3\n        /* \"#utility.yul\":4285:4305   */\n      tag_118\n      jump\t// in\n    tag_138:\n        /* \"#utility.yul\":4280:4305   */\n      swap2\n      pop\n        /* \"#utility.yul\":4319:4339   */\n      tag_139\n        /* \"#utility.yul\":4337:4338   */\n      dup4\n        /* \"#utility.yul\":4319:4339   */\n      tag_118\n      jump\t// in\n    tag_139:\n        /* \"#utility.yul\":4314:4339   */\n      swap3\n      pop\n        /* \"#utility.yul\":4358:4359   */\n      dup3\n        /* \"#utility.yul\":4355:4356   */\n      dup3\n        /* \"#utility.yul\":4352:4360   */\n      lt\n        /* \"#utility.yul\":4349:4383   */\n      iszero\n      tag_140\n      jumpi\n        /* \"#utility.yul\":4363:4381   */\n      tag_141\n      tag_136\n      jump\t// in\n    tag_141:\n        /* \"#utility.yul\":4349:4383   */\n    tag_140:\n        /* \"#utility.yul\":4408:4409   */\n      dup3\n        /* \"#utility.yul\":4405:4406   */\n      dup3\n        /* \"#utility.yul\":4401:4410   */\n      sub\n        /* \"#utility.yul\":4393:4410   */\n      swap1\n      pop\n        /* \"#utility.yul\":4225:4416   */\n      swap3\n      swap2\n      pop\n      pop\n      jump\t// out\n        /* \"#utility.yul\":4422:4518   */\n    tag_142:\n        /* \"#utility.yul\":4459:4466   */\n      0x00\n        /* \"#utility.yul\":4488:4512   */\n      tag_144\n        /* \"#utility.yul\":4506:4511   */\n      dup3\n        /* \"#utility.yul\":4488:4512   */\n      tag_145\n      jump\t// in\n    tag_144:\n        /* \"#utility.yul\":4477:4512   */\n      swap1\n      pop\n        /* \"#utility.yul\":4422:4518   */\n      swap2\n      swap1\n      pop\n      jump\t// out\n        /* \"#utility.yul\":4524:4614   */\n    tag_146:\n        /* \"#utility.yul\":4558:4565   */\n      0x00\n        /* \"#utility.yul\":4601:4606   */\n      dup2\n        /* \"#utility.yul\":4594:4607   */\n      iszero\n        /* \"#utility.yul\":4587:4608   */\n      iszero\n        /* \"#utility.yul\":4576:4608   */\n      swap1\n      pop\n        /* \"#utility.yul\":4524:4614   */\n      swap2\n      swap1\n      pop\n      jump\t// out\n        /* \"#utility.yul\":4620:4746   */\n    tag_145:\n        /* \"#utility.yul\":4657:4664   */\n      0x00\n        /* \"#utility.yul\":4697:4739   */\n      0xffffffffffffffffffffffffffffffffffffffff\n        /* \"#utility.yul\":4690:4695   */\n      dup3\n        /* \"#utility.yul\":4686:4740   */\n      and\n        /* \"#utility.yul\":4675:4740   */\n      swap1\n      pop\n        /* \"#utility.yul\":4620:4746   */\n      swap2\n      swap1\n      pop\n      jump\t// out\n        /* \"#utility.yul\":4752:4829   */\n    tag_118:\n        /* \"#utility.yul\":4789:4796   */\n      0x00\n        /* \"#utility.yul\":4818:4823   */\n      dup2\n        /* \"#utility.yul\":4807:4823   */\n      swap1\n      pop\n        /* \"#utility.yul\":4752:4829   */\n      swap2\n      swap1\n      pop\n      jump\t// out\n        /* \"#utility.yul\":4835:5116   */\n    tag_125:\n        /* \"#utility.yul\":4918:4945   */\n      tag_151\n        /* \"#utility.yul\":4940:4944   */\n      dup3\n        /* \"#utility.yul\":4918:4945   */\n      tag_152\n      jump\t// in\n    tag_151:\n        /* \"#utility.yul\":4910:4916   */\n      dup2\n        /* \"#utility.yul\":4906:4946   */\n      add\n        /* \"#utility.yul\":5048:5054   */\n      dup2\n        /* \"#utility.yul\":5036:5046   */\n      dup2\n        /* \"#utility.yul\":5033:5055   */\n      lt\n        /* \"#utility.yul\":5012:5030   */\n      0xffffffffffffffff\n        /* \"#utility.yul\":5000:5010   */\n      dup3\n        /* \"#utility.yul\":4997:5031   */\n      gt\n        /* \"#utility.yul\":4994:5056   */\n      or\n        /* \"#utility.yul\":4991:5079   */\n      iszero\n      tag_153\n      jumpi\n        /* \"#utility.yul\":5059:5077   */\n      tag_154\n      tag_130\n      jump\t// in\n    tag_154:\n        /* \"#utility.yul\":4991:5079   */\n    tag_153:\n        /* \"#utility.yul\":5099:5109   */\n      dup1\n        /* \"#utility.yul\":5095:5097   */\n      0x40\n        /* \"#utility.yul\":5088:5110   */\n      mstore\n        /* \"#utility.yul\":4878:5116   */\n      pop\n        /* \"#utility.yul\":4835:5116   */\n      pop\n      pop\n      jump\t// out\n        /* \"#utility.yul\":5122:5355   */\n    tag_49:\n        /* \"#utility.yul\":5161:5164   */\n      0x00\n        /* \"#utility.yul\":5184:5208   */\n      tag_156\n        /* \"#utility.yul\":5202:5207   */\n      dup3\n        /* \"#utility.yul\":5184:5208   */\n      tag_118\n      jump\t// in\n    tag_156:\n        /* \"#utility.yul\":5175:5208   */\n      swap2\n      pop\n        /* \"#utility.yul\":5230:5296   */\n      0xffffffffffffffffffffffffffffffffffffffffffffffffffffffffffffffff\n        /* \"#utility.yul\":5223:5228   */\n      dup3\n        /* \"#utility.yul\":5220:5297   */\n      eq\n        /* \"#utility.yul\":5217:5320   */\n      iszero\n      tag_157\n      jumpi\n        /* \"#utility.yul\":5300:5318   */\n      tag_158\n      tag_136\n      jump\t// in\n    tag_158:\n        /* \"#utility.yul\":5217:5320   */\n    tag_157:\n        /* \"#utility.yul\":5347:5348   */\n      0x01\n        /* \"#utility.yul\":5340:5345   */\n      dup3\n        /* \"#utility.yul\":5336:5349   */\n      add\n        /* \"#utility.yul\":5329:5349   */\n      swap1\n      pop\n        /* \"#utility.yul\":5122:5355   */\n      swap2\n      swap1\n      pop\n      jump\t// out\n        /* \"#utility.yul\":5361:5541   */\n    tag_136:\n        /* \"#utility.yul\":5409:5486   */\n      0x4e487b7100000000000000000000000000000000000000000000000000000000\n        /* \"#utility.yul\":5406:5407   */\n      0x00\n        /* \"#utility.yul\":5399:5487   */\n      mstore\n        /* \"#utility.yul\":5506:5510   */\n      0x11\n        /* \"#utility.yul\":5503:5504   */\n      0x04\n        /* \"#utility.yul\":5496:5511   */\n      mstore\n        /* \"#utility.yul\":5530:5534   */\n      0x24\n        /* \"#utility.yul\":5527:5528   */\n      0x00\n        /* \"#utility.yul\":5520:5535   */\n      revert\n        /* \"#utility.yul\":5547:5727   */\n    tag_28:\n        /* \"#utility.yul\":5595:5672   */\n      0x4e487b7100000000000000000000000000000000000000000000000000000000\n        /* \"#utility.yul\":5592:5593   */\n      0x00\n        /* \"#utility.yul\":5585:5673   */\n      mstore\n        /* \"#utility.yul\":5692:5696   */\n      0x32\n        /* \"#utility.yul\":5689:5690   */\n      0x04\n        /* \"#utility.yul\":5682:5697   */\n      mstore\n        /* \"#utility.yul\":5716:5720   */\n      0x24\n        /* \"#utility.yul\":5713:5714   */\n      0x00\n        /* \"#utility.yul\":5706:5721   */\n      revert\n        /* \"#utility.yul\":5733:5913   */\n    tag_130:\n        /* \"#utility.yul\":5781:5858   */\n      0x4e487b7100000000000000000000000000000000000000000000000000000000\n        /* \"#utility.yul\":5778:5779   */\n      0x00\n        /* \"#utility.yul\":5771:5859   */\n      mstore\n        /* \"#utility.yul\":5878:5882   */\n      0x41\n        /* \"#utility.yul\":5875:5876   */\n      0x04\n        /* \"#utility.yul\":5868:5883   */\n      mstore\n        /* \"#utility.yul\":5902:5906   */\n      0x24\n        /* \"#utility.yul\":5899:5900   */\n      0x00\n        /* \"#utility.yul\":5892:5907   */\n      revert\n        /* \"#utility.yul\":5919:6036   */\n    tag_89:\n        /* \"#utility.yul\":6028:6029   */\n      0x00\n        /* \"#utility.yul\":6025:6026   */\n      dup1\n        /* \"#utility.yul\":6018:6030   */\n      revert\n        /* \"#utility.yul\":6042:6159   */\n    tag_76:\n        /* \"#utility.yul\":6151:6152   */\n      0x00\n        /* \"#utility.yul\":6148:6149   */\n      dup1\n        /* \"#utility.yul\":6141:6153   */\n      revert\n        /* \"#utility.yul\":6165:6282   */\n    tag_112:\n        /* \"#utility.yul\":6274:6275   */\n      0x00\n        /* \"#utility.yul\":6271:6272   */\n      dup1\n        /* \"#utility.yul\":6264:6276   */\n      revert\n        /* \"#utility.yul\":6288:6405   */\n    tag_102:\n        /* \"#utility.yul\":6397:6398   */\n      0x00\n        /* \"#utility.yul\":6394:6395   */\n      dup1\n        /* \"#utility.yul\":6387:6399   */\n      revert\n        /* \"#utility.yul\":6411:6513   */\n    tag_152:\n        /* \"#utility.yul\":6452:6458   */\n      0x00\n        /* \"#utility.yul\":6503:6505   */\n      0x1f\n        /* \"#utility.yul\":6499:6506   */\n      not\n        /* \"#utility.yul\":6494:6496   */\n      0x1f\n        /* \"#utility.yul\":6487:6492   */\n      dup4\n        /* \"#utility.yul\":6483:6497   */\n      add\n        /* \"#utility.yul\":6479:6507   */\n      and\n        /* \"#utility.yul\":6469:6507   */\n      swap1\n      pop\n        /* \"#utility.yul\":6411:6513   */\n      swap2\n      swap1\n      pop\n      jump\t// out\n        /* \"#utility.yul\":6519:6641   */\n    tag_84:\n        /* \"#utility.yul\":6592:6616   */\n      tag_168\n        /* \"#utility.yul\":6610:6615   */\n      dup2\n        /* \"#utility.yul\":6592:6616   */\n      tag_142\n      jump\t// in\n    tag_168:\n        /* \"#utility.yul\":6585:6590   */\n      dup2\n        /* \"#utility.yul\":6582:6617   */\n      eq\n        /* \"#utility.yul\":6572:6635   */\n      tag_169\n      jumpi\n        /* \"#utility.yul\":6631:6632   */\n      0x00\n        /* \"#utility.yul\":6628:6629   */\n      dup1\n        /* \"#utility.yul\":6621:6633   */\n      revert\n        /* \"#utility.yul\":6572:6635   */\n    tag_169:\n        /* \"#utility.yul\":6519:6641   */\n      pop\n      jump\t// out\n        /* \"#utility.yul\":6647:6763   */\n    tag_94:\n        /* \"#utility.yul\":6717:6738   */\n      tag_171\n        /* \"#utility.yul\":6732:6737   */\n      dup2\n        /* \"#utility.yul\":6717:6738   */\n      tag_146\n      jump\t// in\n    tag_171:\n        /* \"#utility.yul\":6710:6715   */\n      dup2\n        /* \"#utility.yul\":6707:6739   */\n      eq\n        /* \"#utility.yul\":6697:6757   */\n      tag_172\n      jumpi\n        /* \"#utility.yul\":6753:6754   */\n      0x00\n        /* \"#utility.yul\":6750:6751   */\n      dup1\n        /* \"#utility.yul\":6743:6755   */\n      revert\n        /* \"#utility.yul\":6697:6757   */\n    tag_172:\n        /* \"#utility.yul\":6647:6763   */\n      pop\n      jump\t// out\n        /* \"#utility.yul\":6769:6891   */\n    tag_98:\n        /* \"#utility.yul\":6842:6866   */\n      tag_174\n        /* \"#utility.yul\":6860:6865   */\n      dup2\n        /* \"#utility.yul\":6842:6866   */\n      tag_118\n      jump\t// in\n    tag_174:\n        /* \"#utility.yul\":6835:6840   */\n      dup2\n        /* \"#utility.yul\":6832:6867   */\n      eq\n        /* \"#utility.yul\":6822:6885   */\n      tag_175\n      jumpi\n        /* \"#utility.yul\":6881:6882   */\n      0x00\n        /* \"#utility.yul\":6878:6879   */\n      dup1\n        /* \"#utility.yul\":6871:6883   */\n      revert\n        /* \"#utility.yul\":6822:6885   */\n    tag_175:\n        /* \"#utility.yul\":6769:6891   */\n      pop\n      jump\t// out\n\n    auxdata: 0xa26469706673582212209c2cf549c48ff4bb55e447e6783560baaa0c114170c26209b26bd425c8864e2f64736f6c63430008070033\n}\n",
				"bytecode": {
					"linkReferences": {},
					"object": "608060405234801561001057600080fd5b50610b41806100206000396000f3fe608060405234801561001057600080fd5b50600436106100365760003560e01c8063713584a61461003b578063ab8aee691461006b575b600080fd5b6100556004803603810190610050919061078a565b610087565b604051610062919061085c565b60405180910390f35b610085600480360381019061008091906107ca565b61010d565b005b60008060008473ffffffffffffffffffffffffffffffffffffffff1673ffffffffffffffffffffffffffffffffffffffff16815260200190815260200160002060008373ffffffffffffffffffffffffffffffffffffffff1673ffffffffffffffffffffffffffffffffffffffff16815260200190815260200160002054905092915050565b826000803373ffffffffffffffffffffffffffffffffffffffff1673ffffffffffffffffffffffffffffffffffffffff16815260200190815260200160002060008673ffffffffffffffffffffffffffffffffffffffff1673ffffffffffffffffffffffffffffffffffffffff168152602001908152602001600020600082825461019891906108c8565b9250508190555080156106a75760006298968090506000600184516101bd919061091e565b905060005b84518110156104dd5781811461035557826000808784815181106101e9576101e8610a43565b5b602002602001015173ffffffffffffffffffffffffffffffffffffffff1673ffffffffffffffffffffffffffffffffffffffff16815260200190815260200160002060008760018561023b91906108c8565b8151811061024c5761024b610a43565b5b602002602001015173ffffffffffffffffffffffffffffffffffffffff1673ffffffffffffffffffffffffffffffffffffffff168152602001908152602001600020541015610354576000808683815181106102ab576102aa610a43565b5b602002602001015173ffffffffffffffffffffffffffffffffffffffff1673ffffffffffffffffffffffffffffffffffffffff1681526020019081526020016000206000866001846102fd91906108c8565b8151811061030e5761030d610a43565b5b602002602001015173ffffffffffffffffffffffffffffffffffffffff1673ffffffffffffffffffffffffffffffffffffffff1681526020019081526020016000205492505b5b818114156104ca578260008087848151811061037457610373610a43565b5b602002602001015173ffffffffffffffffffffffffffffffffffffffff1673ffffffffffffffffffffffffffffffffffffffff1681526020019081526020016000206000876000815181106103cc576103cb610a43565b5b602002602001015173ffffffffffffffffffffffffffffffffffffffff1673ffffffffffffffffffffffffffffffffffffffff1681526020019081526020016000205410156104c95760008086838151811061042b5761042a610a43565b5b602002602001015173ffffffffffffffffffffffffffffffffffffffff1673ffffffffffffffffffffffffffffffffffffffff16815260200190815260200160002060008660008151811061048357610482610a43565b5b602002602001015173ffffffffffffffffffffffffffffffffffffffff1673ffffffffffffffffffffffffffffffffffffffff1681526020019081526020016000205492505b5b80806104d5906109cb565b9150506101c2565b5060005b84518110156106a3578181146105c8578260008087848151811061050857610507610a43565b5b602002602001015173ffffffffffffffffffffffffffffffffffffffff1673ffffffffffffffffffffffffffffffffffffffff16815260200190815260200160002060008760018561055a91906108c8565b8151811061056b5761056a610a43565b5b602002602001015173ffffffffffffffffffffffffffffffffffffffff1673ffffffffffffffffffffffffffffffffffffffff16815260200190815260200160002060008282546105bc919061091e565b92505081905550610690565b826000808784815181106105df576105de610a43565b5b602002602001015173ffffffffffffffffffffffffffffffffffffffff1673ffffffffffffffffffffffffffffffffffffffff16815260200190815260200160002060008760008151811061063757610636610a43565b5b602002602001015173ffffffffffffffffffffffffffffffffffffffff1673ffffffffffffffffffffffffffffffffffffffff1681526020019081526020016000206000828254610688919061091e565b925050819055505b808061069b906109cb565b9150506104e1565b5050505b50505050565b60006106c06106bb8461089c565b610877565b905080838252602082019050828560208602820111156106e3576106e2610aa6565b5b60005b8581101561071357816106f9888261071d565b8452602084019350602083019250506001810190506106e6565b5050509392505050565b60008135905061072c81610ac6565b92915050565b600082601f83011261074757610746610aa1565b5b81356107578482602086016106ad565b91505092915050565b60008135905061076f81610add565b92915050565b60008135905061078481610af4565b92915050565b600080604083850312156107a1576107a0610ab0565b5b60006107af8582860161071d565b92505060206107c08582860161071d565b9150509250929050565b600080600080608085870312156107e4576107e3610ab0565b5b60006107f28782880161071d565b945050602061080387828801610775565b935050604085013567ffffffffffffffff81111561082457610823610aab565b5b61083087828801610732565b925050606061084187828801610760565b91505092959194509250565b61085681610990565b82525050565b6000602082019050610871600083018461084d565b92915050565b6000610881610892565b905061088d828261099a565b919050565b6000604051905090565b600067ffffffffffffffff8211156108b7576108b6610a72565b5b602082029050602081019050919050565b60006108d382610990565b91506108de83610990565b9250827fffffffffffffffffffffffffffffffffffffffffffffffffffffffffffffffff0382111561091357610912610a14565b5b828201905092915050565b600061092982610990565b915061093483610990565b92508282101561094757610946610a14565b5b828203905092915050565b600061095d82610970565b9050919050565b60008115159050919050565b600073ffffffffffffffffffffffffffffffffffffffff82169050919050565b6000819050919050565b6109a382610ab5565b810181811067ffffffffffffffff821117156109c2576109c1610a72565b5b80604052505050565b60006109d682610990565b91507fffffffffffffffffffffffffffffffffffffffffffffffffffffffffffffffff821415610a0957610a08610a14565b5b600182019050919050565b7f4e487b7100000000000000000000000000000000000000000000000000000000600052601160045260246000fd5b7f4e487b7100000000000000000000000000000000000000000000000000000000600052603260045260246000fd5b7f4e487b7100000000000000000000000000000000000000000000000000000000600052604160045260246000fd5b600080fd5b600080fd5b600080fd5b600080fd5b6000601f19601f8301169050919050565b610acf81610952565b8114610ada57600080fd5b50565b610ae681610964565b8114610af157600080fd5b50565b610afd81610990565b8114610b0857600080fd5b5056fea26469706673582212209c2cf549c48ff4bb55e447e6783560baaa0c114170c26209b26bd425c8864e2f64736f6c63430008070033",
					"opcodes": "PUSH1 0x80 PUSH1 0x40 MSTORE CALLVALUE DUP1 ISZERO PUSH2 0x10 JUMPI PUSH1 0x0 DUP1 REVERT JUMPDEST POP PUSH2 0xB41 DUP1 PUSH2 0x20 PUSH1 0x0 CODECOPY PUSH1 0x0 RETURN INVALID PUSH1 0x80 PUSH1 0x40 MSTORE CALLVALUE DUP1 ISZERO PUSH2 0x10 JUMPI PUSH1 0x0 DUP1 REVERT JUMPDEST POP PUSH1 0x4 CALLDATASIZE LT PUSH2 0x36 JUMPI PUSH1 0x0 CALLDATALOAD PUSH1 0xE0 SHR DUP1 PUSH4 0x713584A6 EQ PUSH2 0x3B JUMPI DUP1 PUSH4 0xAB8AEE69 EQ PUSH2 0x6B JUMPI JUMPDEST PUSH1 0x0 DUP1 REVERT JUMPDEST PUSH2 0x55 PUSH1 0x4 DUP1 CALLDATASIZE SUB DUP2 ADD SWAP1 PUSH2 0x50 SWAP2 SWAP1 PUSH2 0x78A JUMP JUMPDEST PUSH2 0x87 JUMP JUMPDEST PUSH1 0x40 MLOAD PUSH2 0x62 SWAP2 SWAP1 PUSH2 0x85C JUMP JUMPDEST PUSH1 0x40 MLOAD DUP1 SWAP2 SUB SWAP1 RETURN JUMPDEST PUSH2 0x85 PUSH1 0x4 DUP1 CALLDATASIZE SUB DUP2 ADD SWAP1 PUSH2 0x80 SWAP2 SWAP1 PUSH2 0x7CA JUMP JUMPDEST PUSH2 0x10D JUMP JUMPDEST STOP JUMPDEST PUSH1 0x0 DUP1 PUSH1 0x0 DUP5 PUSH20 0xFFFFFFFFFFFFFFFFFFFFFFFFFFFFFFFFFFFFFFFF AND PUSH20 0xFFFFFFFFFFFFFFFFFFFFFFFFFFFFFFFFFFFFFFFF AND DUP2 MSTORE PUSH1 0x20 ADD SWAP1 DUP2 MSTORE PUSH1 0x20 ADD PUSH1 0x0 KECCAK256 PUSH1 0x0 DUP4 PUSH20 0xFFFFFFFFFFFFFFFFFFFFFFFFFFFFFFFFFFFFFFFF AND PUSH20 0xFFFFFFFFFFFFFFFFFFFFFFFFFFFFFFFFFFFFFFFF AND DUP2 MSTORE PUSH1 0x20 ADD SWAP1 DUP2 MSTORE PUSH1 0x20 ADD PUSH1 0x0 KECCAK256 SLOAD SWAP1 POP SWAP3 SWAP2 POP POP JUMP JUMPDEST DUP3 PUSH1 0x0 DUP1 CALLER PUSH20 0xFFFFFFFFFFFFFFFFFFFFFFFFFFFFFFFFFFFFFFFF AND PUSH20 0xFFFFFFFFFFFFFFFFFFFFFFFFFFFFFFFFFFFFFFFF AND DUP2 MSTORE PUSH1 0x20 ADD SWAP1 DUP2 MSTORE PUSH1 0x20 ADD PUSH1 0x0 KECCAK256 PUSH1 0x0 DUP7 PUSH20 0xFFFFFFFFFFFFFFFFFFFFFFFFFFFFFFFFFFFFFFFF AND PUSH20 0xFFFFFFFFFFFFFFFFFFFFFFFFFFFFFFFFFFFFFFFF AND DUP2 MSTORE PUSH1 0x20 ADD SWAP1 DUP2 MSTORE PUSH1 0x20 ADD PUSH1 0x0 KECCAK256 PUSH1 0x0 DUP3 DUP3 SLOAD PUSH2 0x198 SWAP2 SWAP1 PUSH2 0x8C8 JUMP JUMPDEST SWAP3 POP POP DUP2 SWAP1 SSTORE POP DUP1 ISZERO PUSH2 0x6A7 JUMPI PUSH1 0x0 PUSH3 0x989680 SWAP1 POP PUSH1 0x0 PUSH1 0x1 DUP5 MLOAD PUSH2 0x1BD SWAP2 SWAP1 PUSH2 0x91E JUMP JUMPDEST SWAP1 POP PUSH1 0x0 JUMPDEST DUP5 MLOAD DUP2 LT ISZERO PUSH2 0x4DD JUMPI DUP2 DUP2 EQ PUSH2 0x355 JUMPI DUP3 PUSH1 0x0 DUP1 DUP8 DUP5 DUP2 MLOAD DUP2 LT PUSH2 0x1E9 JUMPI PUSH2 0x1E8 PUSH2 0xA43 JUMP JUMPDEST JUMPDEST PUSH1 0x20 MUL PUSH1 0x20 ADD ADD MLOAD PUSH20 0xFFFFFFFFFFFFFFFFFFFFFFFFFFFFFFFFFFFFFFFF AND PUSH20 0xFFFFFFFFFFFFFFFFFFFFFFFFFFFFFFFFFFFFFFFF AND DUP2 MSTORE PUSH1 0x20 ADD SWAP1 DUP2 MSTORE PUSH1 0x20 ADD PUSH1 0x0 KECCAK256 PUSH1 0x0 DUP8 PUSH1 0x1 DUP6 PUSH2 0x23B SWAP2 SWAP1 PUSH2 0x8C8 JUMP JUMPDEST DUP2 MLOAD DUP2 LT PUSH2 0x24C JUMPI PUSH2 0x24B PUSH2 0xA43 JUMP JUMPDEST JUMPDEST PUSH1 0x20 MUL PUSH1 0x20 ADD ADD MLOAD PUSH20 0xFFFFFFFFFFFFFFFFFFFFFFFFFFFFFFFFFFFFFFFF AND PUSH20 0xFFFFFFFFFFFFFFFFFFFFFFFFFFFFFFFFFFFFFFFF AND DUP2 MSTORE PUSH1 0x20 ADD SWAP1 DUP2 MSTORE PUSH1 0x20 ADD PUSH1 0x0 KECCAK256 SLOAD LT ISZERO PUSH2 0x354 JUMPI PUSH1 0x0 DUP1 DUP7 DUP4 DUP2 MLOAD DUP2 LT PUSH2 0x2AB JUMPI PUSH2 0x2AA PUSH2 0xA43 JUMP JUMPDEST JUMPDEST PUSH1 0x20 MUL PUSH1 0x20 ADD ADD MLOAD PUSH20 0xFFFFFFFFFFFFFFFFFFFFFFFFFFFFFFFFFFFFFFFF AND PUSH20 0xFFFFFFFFFFFFFFFFFFFFFFFFFFFFFFFFFFFFFFFF AND DUP2 MSTORE PUSH1 0x20 ADD SWAP1 DUP2 MSTORE PUSH1 0x20 ADD PUSH1 0x0 KECCAK256 PUSH1 0x0 DUP7 PUSH1 0x1 DUP5 PUSH2 0x2FD SWAP2 SWAP1 PUSH2 0x8C8 JUMP JUMPDEST DUP2 MLOAD DUP2 LT PUSH2 0x30E JUMPI PUSH2 0x30D PUSH2 0xA43 JUMP JUMPDEST JUMPDEST PUSH1 0x20 MUL PUSH1 0x20 ADD ADD MLOAD PUSH20 0xFFFFFFFFFFFFFFFFFFFFFFFFFFFFFFFFFFFFFFFF AND PUSH20 0xFFFFFFFFFFFFFFFFFFFFFFFFFFFFFFFFFFFFFFFF AND DUP2 MSTORE PUSH1 0x20 ADD SWAP1 DUP2 MSTORE PUSH1 0x20 ADD PUSH1 0x0 KECCAK256 SLOAD SWAP3 POP JUMPDEST JUMPDEST DUP2 DUP2 EQ ISZERO PUSH2 0x4CA JUMPI DUP3 PUSH1 0x0 DUP1 DUP8 DUP5 DUP2 MLOAD DUP2 LT PUSH2 0x374 JUMPI PUSH2 0x373 PUSH2 0xA43 JUMP JUMPDEST JUMPDEST PUSH1 0x20 MUL PUSH1 0x20 ADD ADD MLOAD PUSH20 0xFFFFFFFFFFFFFFFFFFFFFFFFFFFFFFFFFFFFFFFF AND PUSH20 0xFFFFFFFFFFFFFFFFFFFFFFFFFFFFFFFFFFFFFFFF AND DUP2 MSTORE PUSH1 0x20 ADD SWAP1 DUP2 MSTORE PUSH1 0x20 ADD PUSH1 0x0 KECCAK256 PUSH1 0x0 DUP8 PUSH1 0x0 DUP2 MLOAD DUP2 LT PUSH2 0x3CC JUMPI PUSH2 0x3CB PUSH2 0xA43 JUMP JUMPDEST JUMPDEST PUSH1 0x20 MUL PUSH1 0x20 ADD ADD MLOAD PUSH20 0xFFFFFFFFFFFFFFFFFFFFFFFFFFFFFFFFFFFFFFFF AND PUSH20 0xFFFFFFFFFFFFFFFFFFFFFFFFFFFFFFFFFFFFFFFF AND DUP2 MSTORE PUSH1 0x20 ADD SWAP1 DUP2 MSTORE PUSH1 0x20 ADD PUSH1 0x0 KECCAK256 SLOAD LT ISZERO PUSH2 0x4C9 JUMPI PUSH1 0x0 DUP1 DUP7 DUP4 DUP2 MLOAD DUP2 LT PUSH2 0x42B JUMPI PUSH2 0x42A PUSH2 0xA43 JUMP JUMPDEST JUMPDEST PUSH1 0x20 MUL PUSH1 0x20 ADD ADD MLOAD PUSH20 0xFFFFFFFFFFFFFFFFFFFFFFFFFFFFFFFFFFFFFFFF AND PUSH20 0xFFFFFFFFFFFFFFFFFFFFFFFFFFFFFFFFFFFFFFFF AND DUP2 MSTORE PUSH1 0x20 ADD SWAP1 DUP2 MSTORE PUSH1 0x20 ADD PUSH1 0x0 KECCAK256 PUSH1 0x0 DUP7 PUSH1 0x0 DUP2 MLOAD DUP2 LT PUSH2 0x483 JUMPI PUSH2 0x482 PUSH2 0xA43 JUMP JUMPDEST JUMPDEST PUSH1 0x20 MUL PUSH1 0x20 ADD ADD MLOAD PUSH20 0xFFFFFFFFFFFFFFFFFFFFFFFFFFFFFFFFFFFFFFFF AND PUSH20 0xFFFFFFFFFFFFFFFFFFFFFFFFFFFFFFFFFFFFFFFF AND DUP2 MSTORE PUSH1 0x20 ADD SWAP1 DUP2 MSTORE PUSH1 0x20 ADD PUSH1 0x0 KECCAK256 SLOAD SWAP3 POP JUMPDEST JUMPDEST DUP1 DUP1 PUSH2 0x4D5 SWAP1 PUSH2 0x9CB JUMP JUMPDEST SWAP2 POP POP PUSH2 0x1C2 JUMP JUMPDEST POP PUSH1 0x0 JUMPDEST DUP5 MLOAD DUP2 LT ISZERO PUSH2 0x6A3 JUMPI DUP2 DUP2 EQ PUSH2 0x5C8 JUMPI DUP3 PUSH1 0x0 DUP1 DUP8 DUP5 DUP2 MLOAD DUP2 LT PUSH2 0x508 JUMPI PUSH2 0x507 PUSH2 0xA43 JUMP JUMPDEST JUMPDEST PUSH1 0x20 MUL PUSH1 0x20 ADD ADD MLOAD PUSH20 0xFFFFFFFFFFFFFFFFFFFFFFFFFFFFFFFFFFFFFFFF AND PUSH20 0xFFFFFFFFFFFFFFFFFFFFFFFFFFFFFFFFFFFFFFFF AND DUP2 MSTORE PUSH1 0x20 ADD SWAP1 DUP2 MSTORE PUSH1 0x20 ADD PUSH1 0x0 KECCAK256 PUSH1 0x0 DUP8 PUSH1 0x1 DUP6 PUSH2 0x55A SWAP2 SWAP1 PUSH2 0x8C8 JUMP JUMPDEST DUP2 MLOAD DUP2 LT PUSH2 0x56B JUMPI PUSH2 0x56A PUSH2 0xA43 JUMP JUMPDEST JUMPDEST PUSH1 0x20 MUL PUSH1 0x20 ADD ADD MLOAD PUSH20 0xFFFFFFFFFFFFFFFFFFFFFFFFFFFFFFFFFFFFFFFF AND PUSH20 0xFFFFFFFFFFFFFFFFFFFFFFFFFFFFFFFFFFFFFFFF AND DUP2 MSTORE PUSH1 0x20 ADD SWAP1 DUP2 MSTORE PUSH1 0x20 ADD PUSH1 0x0 KECCAK256 PUSH1 0x0 DUP3 DUP3 SLOAD PUSH2 0x5BC SWAP2 SWAP1 PUSH2 0x91E JUMP JUMPDEST SWAP3 POP POP DUP2 SWAP1 SSTORE POP PUSH2 0x690 JUMP JUMPDEST DUP3 PUSH1 0x0 DUP1 DUP8 DUP5 DUP2 MLOAD DUP2 LT PUSH2 0x5DF JUMPI PUSH2 0x5DE PUSH2 0xA43 JUMP JUMPDEST JUMPDEST PUSH1 0x20 MUL PUSH1 0x20 ADD ADD MLOAD PUSH20 0xFFFFFFFFFFFFFFFFFFFFFFFFFFFFFFFFFFFFFFFF AND PUSH20 0xFFFFFFFFFFFFFFFFFFFFFFFFFFFFFFFFFFFFFFFF AND DUP2 MSTORE PUSH1 0x20 ADD SWAP1 DUP2 MSTORE PUSH1 0x20 ADD PUSH1 0x0 KECCAK256 PUSH1 0x0 DUP8 PUSH1 0x0 DUP2 MLOAD DUP2 LT PUSH2 0x637 JUMPI PUSH2 0x636 PUSH2 0xA43 JUMP JUMPDEST JUMPDEST PUSH1 0x20 MUL PUSH1 0x20 ADD ADD MLOAD PUSH20 0xFFFFFFFFFFFFFFFFFFFFFFFFFFFFFFFFFFFFFFFF AND PUSH20 0xFFFFFFFFFFFFFFFFFFFFFFFFFFFFFFFFFFFFFFFF AND DUP2 MSTORE PUSH1 0x20 ADD SWAP1 DUP2 MSTORE PUSH1 0x20 ADD PUSH1 0x0 KECCAK256 PUSH1 0x0 DUP3 DUP3 SLOAD PUSH2 0x688 SWAP2 SWAP1 PUSH2 0x91E JUMP JUMPDEST SWAP3 POP POP DUP2 SWAP1 SSTORE POP JUMPDEST DUP1 DUP1 PUSH2 0x69B SWAP1 PUSH2 0x9CB JUMP JUMPDEST SWAP2 POP POP PUSH2 0x4E1 JUMP JUMPDEST POP POP POP JUMPDEST POP POP POP POP JUMP JUMPDEST PUSH1 0x0 PUSH2 0x6C0 PUSH2 0x6BB DUP5 PUSH2 0x89C JUMP JUMPDEST PUSH2 0x877 JUMP JUMPDEST SWAP1 POP DUP1 DUP4 DUP3 MSTORE PUSH1 0x20 DUP3 ADD SWAP1 POP DUP3 DUP6 PUSH1 0x20 DUP7 MUL DUP3 ADD GT ISZERO PUSH2 0x6E3 JUMPI PUSH2 0x6E2 PUSH2 0xAA6 JUMP JUMPDEST JUMPDEST PUSH1 0x0 JUMPDEST DUP6 DUP2 LT ISZERO PUSH2 0x713 JUMPI DUP2 PUSH2 0x6F9 DUP9 DUP3 PUSH2 0x71D JUMP JUMPDEST DUP5 MSTORE PUSH1 0x20 DUP5 ADD SWAP4 POP PUSH1 0x20 DUP4 ADD SWAP3 POP POP PUSH1 0x1 DUP2 ADD SWAP1 POP PUSH2 0x6E6 JUMP JUMPDEST POP POP POP SWAP4 SWAP3 POP POP POP JUMP JUMPDEST PUSH1 0x0 DUP2 CALLDATALOAD SWAP1 POP PUSH2 0x72C DUP2 PUSH2 0xAC6 JUMP JUMPDEST SWAP3 SWAP2 POP POP JUMP JUMPDEST PUSH1 0x0 DUP3 PUSH1 0x1F DUP4 ADD SLT PUSH2 0x747 JUMPI PUSH2 0x746 PUSH2 0xAA1 JUMP JUMPDEST JUMPDEST DUP2 CALLDATALOAD PUSH2 0x757 DUP5 DUP3 PUSH1 0x20 DUP7 ADD PUSH2 0x6AD JUMP JUMPDEST SWAP2 POP POP SWAP3 SWAP2 POP POP JUMP JUMPDEST PUSH1 0x0 DUP2 CALLDATALOAD SWAP1 POP PUSH2 0x76F DUP2 PUSH2 0xADD JUMP JUMPDEST SWAP3 SWAP2 POP POP JUMP JUMPDEST PUSH1 0x0 DUP2 CALLDATALOAD SWAP1 POP PUSH2 0x784 DUP2 PUSH2 0xAF4 JUMP JUMPDEST SWAP3 SWAP2 POP POP JUMP JUMPDEST PUSH1 0x0 DUP1 PUSH1 0x40 DUP4 DUP6 SUB SLT ISZERO PUSH2 0x7A1 JUMPI PUSH2 0x7A0 PUSH2 0xAB0 JUMP JUMPDEST JUMPDEST PUSH1 0x0 PUSH2 0x7AF DUP6 DUP3 DUP7 ADD PUSH2 0x71D JUMP JUMPDEST SWAP3 POP POP PUSH1 0x20 PUSH2 0x7C0 DUP6 DUP3 DUP7 ADD PUSH2 0x71D JUMP JUMPDEST SWAP2 POP POP SWAP3 POP SWAP3 SWAP1 POP JUMP JUMPDEST PUSH1 0x0 DUP1 PUSH1 0x0 DUP1 PUSH1 0x80 DUP6 DUP8 SUB SLT ISZERO PUSH2 0x7E4 JUMPI PUSH2 0x7E3 PUSH2 0xAB0 JUMP JUMPDEST JUMPDEST PUSH1 0x0 PUSH2 0x7F2 DUP8 DUP3 DUP9 ADD PUSH2 0x71D JUMP JUMPDEST SWAP5 POP POP PUSH1 0x20 PUSH2 0x803 DUP8 DUP3 DUP9 ADD PUSH2 0x775 JUMP JUMPDEST SWAP4 POP POP PUSH1 0x40 DUP6 ADD CALLDATALOAD PUSH8 0xFFFFFFFFFFFFFFFF DUP2 GT ISZERO PUSH2 0x824 JUMPI PUSH2 0x823 PUSH2 0xAAB JUMP JUMPDEST JUMPDEST PUSH2 0x830 DUP8 DUP3 DUP9 ADD PUSH2 0x732 JUMP JUMPDEST SWAP3 POP POP PUSH1 0x60 PUSH2 0x841 DUP8 DUP3 DUP9 ADD PUSH2 0x760 JUMP JUMPDEST SWAP2 POP POP SWAP3 SWAP6 SWAP2 SWAP5 POP SWAP3 POP JUMP JUMPDEST PUSH2 0x856 DUP2 PUSH2 0x990 JUMP JUMPDEST DUP3 MSTORE POP POP JUMP JUMPDEST PUSH1 0x0 PUSH1 0x20 DUP3 ADD SWAP1 POP PUSH2 0x871 PUSH1 0x0 DUP4 ADD DUP5 PUSH2 0x84D JUMP JUMPDEST SWAP3 SWAP2 POP POP JUMP JUMPDEST PUSH1 0x0 PUSH2 0x881 PUSH2 0x892 JUMP JUMPDEST SWAP1 POP PUSH2 0x88D DUP3 DUP3 PUSH2 0x99A JUMP JUMPDEST SWAP2 SWAP1 POP JUMP JUMPDEST PUSH1 0x0 PUSH1 0x40 MLOAD SWAP1 POP SWAP1 JUMP JUMPDEST PUSH1 0x0 PUSH8 0xFFFFFFFFFFFFFFFF DUP3 GT ISZERO PUSH2 0x8B7 JUMPI PUSH2 0x8B6 PUSH2 0xA72 JUMP JUMPDEST JUMPDEST PUSH1 0x20 DUP3 MUL SWAP1 POP PUSH1 0x20 DUP2 ADD SWAP1 POP SWAP2 SWAP1 POP JUMP JUMPDEST PUSH1 0x0 PUSH2 0x8D3 DUP3 PUSH2 0x990 JUMP JUMPDEST SWAP2 POP PUSH2 0x8DE DUP4 PUSH2 0x990 JUMP JUMPDEST SWAP3 POP DUP3 PUSH32 0xFFFFFFFFFFFFFFFFFFFFFFFFFFFFFFFFFFFFFFFFFFFFFFFFFFFFFFFFFFFFFFFF SUB DUP3 GT ISZERO PUSH2 0x913 JUMPI PUSH2 0x912 PUSH2 0xA14 JUMP JUMPDEST JUMPDEST DUP3 DUP3 ADD SWAP1 POP SWAP3 SWAP2 POP POP JUMP JUMPDEST PUSH1 0x0 PUSH2 0x929 DUP3 PUSH2 0x990 JUMP JUMPDEST SWAP2 POP PUSH2 0x934 DUP4 PUSH2 0x990 JUMP JUMPDEST SWAP3 POP DUP3 DUP3 LT ISZERO PUSH2 0x947 JUMPI PUSH2 0x946 PUSH2 0xA14 JUMP JUMPDEST JUMPDEST DUP3 DUP3 SUB SWAP1 POP SWAP3 SWAP2 POP POP JUMP JUMPDEST PUSH1 0x0 PUSH2 0x95D DUP3 PUSH2 0x970 JUMP JUMPDEST SWAP1 POP SWAP2 SWAP1 POP JUMP JUMPDEST PUSH1 0x0 DUP2 ISZERO ISZERO SWAP1 POP SWAP2 SWAP1 POP JUMP JUMPDEST PUSH1 0x0 PUSH20 0xFFFFFFFFFFFFFFFFFFFFFFFFFFFFFFFFFFFFFFFF DUP3 AND SWAP1 POP SWAP2 SWAP1 POP JUMP JUMPDEST PUSH1 0x0 DUP2 SWAP1 POP SWAP2 SWAP1 POP JUMP JUMPDEST PUSH2 0x9A3 DUP3 PUSH2 0xAB5 JUMP JUMPDEST DUP2 ADD DUP2 DUP2 LT PUSH8 0xFFFFFFFFFFFFFFFF DUP3 GT OR ISZERO PUSH2 0x9C2 JUMPI PUSH2 0x9C1 PUSH2 0xA72 JUMP JUMPDEST JUMPDEST DUP1 PUSH1 0x40 MSTORE POP POP POP JUMP JUMPDEST PUSH1 0x0 PUSH2 0x9D6 DUP3 PUSH2 0x990 JUMP JUMPDEST SWAP2 POP PUSH32 0xFFFFFFFFFFFFFFFFFFFFFFFFFFFFFFFFFFFFFFFFFFFFFFFFFFFFFFFFFFFFFFFF DUP3 EQ ISZERO PUSH2 0xA09 JUMPI PUSH2 0xA08 PUSH2 0xA14 JUMP JUMPDEST JUMPDEST PUSH1 0x1 DUP3 ADD SWAP1 POP SWAP2 SWAP1 POP JUMP JUMPDEST PUSH32 0x4E487B7100000000000000000000000000000000000000000000000000000000 PUSH1 0x0 MSTORE PUSH1 0x11 PUSH1 0x4 MSTORE PUSH1 0x24 PUSH1 0x0 REVERT JUMPDEST PUSH32 0x4E487B7100000000000000000000000000000000000000000000000000000000 PUSH1 0x0 MSTORE PUSH1 0x32 PUSH1 0x4 MSTORE PUSH1 0x24 PUSH1 0x0 REVERT JUMPDEST PUSH32 0x4E487B7100000000000000000000000000000000000000000000000000000000 PUSH1 0x0 MSTORE PUSH1 0x41 PUSH1 0x4 MSTORE PUSH1 0x24 PUSH1 0x0 REVERT JUMPDEST PUSH1 0x0 DUP1 REVERT JUMPDEST PUSH1 0x0 DUP1 REVERT JUMPDEST PUSH1 0x0 DUP1 REVERT JUMPDEST PUSH1 0x0 DUP1 REVERT JUMPDEST PUSH1 0x0 PUSH1 0x1F NOT PUSH1 0x1F DUP4 ADD AND SWAP1 POP SWAP2 SWAP1 POP JUMP JUMPDEST PUSH2 0xACF DUP2 PUSH2 0x952 JUMP JUMPDEST DUP2 EQ PUSH2 0xADA JUMPI PUSH1 0x0 DUP1 REVERT JUMPDEST POP JUMP JUMPDEST PUSH2 0xAE6 DUP2 PUSH2 0x964 JUMP JUMPDEST DUP2 EQ PUSH2 0xAF1 JUMPI PUSH1 0x0 DUP1 REVERT JUMPDEST POP JUMP JUMPDEST PUSH2 0xAFD DUP2 PUSH2 0x990 JUMP JUMPDEST DUP2 EQ PUSH2 0xB08 JUMPI PUSH1 0x0 DUP1 REVERT JUMPDEST POP JUMP INVALID LOG2 PUSH5 0x6970667358 0x22 SLT KECCAK256 SWAP13 0x2C CREATE2 0x49 0xC4 DUP16 DELEGATECALL 0xBB SSTORE 0xE4 SELFBALANCE 0xE6 PUSH25 0x3560BAAA0C114170C26209B26BD425C8864E2F64736F6C6343 STOP ADDMOD SMOD STOP CALLER "
				},
				"gasEstimates": {
					"creation": {
						"codeDepositCost": "576200",
						"executionCost": "613",
						"totalCost": "576813"
					},
					"external": {
						"add_IOU(address,uint256,address[],bool)": "infinite",
						"lookup(address,address)": "infinite"
					}
				},
				"methodIdentifiers": {
					"add_IOU(address,uint256,address[],bool)": "ab8aee69",
					"lookup(address,address)": "713584a6"
				}
			},
			"storageLayout": {
				"storage": [
					{
						"astId": 8,
						"contract": "mycontract.sol:blockWise",
						"label": "ious",
						"offset": 0,
						"slot": "0",
						"type": "t_mapping(t_address,t_mapping(t_address,t_uint256))"
					}
				],
				"types": {
					"t_address": {
						"encoding": "inplace",
						"label": "address",
						"numberOfBytes": "20"
					},
					"t_mapping(t_address,t_mapping(t_address,t_uint256))": {
						"encoding": "mapping",
						"key": "t_address",
						"label": "mapping(address => mapping(address => uint256))",
						"numberOfBytes": "32",
						"value": "t_mapping(t_address,t_uint256)"
					},
					"t_mapping(t_address,t_uint256)": {
						"encoding": "mapping",
						"key": "t_address",
						"label": "mapping(address => uint256)",
						"numberOfBytes": "32",
						"value": "t_uint256"
					},
					"t_uint256": {
						"encoding": "inplace",
						"label": "uint256",
						"numberOfBytes": "32"
					}
				}
			},
			"userdoc": {
				"kind": "user",
				"methods": {},
				"version": 1
			}
		}
	}
}