{
	"mycontract.sol": {
		"blockWise": {
			"abi": [
				{
					"inputs": [
						{
							"internalType": "address",
							"name": "_creditor",
							"type": "address"
						},
						{
							"internalType": "uint256",
							"name": "_iou",
							"type": "uint256"
						}
					],
					"name": "add_IOU",
					"outputs": [],
					"stateMutability": "nonpayable",
					"type": "function"
				},
				{
					"inputs": [
						{
							"internalType": "address",
							"name": "_debtor",
							"type": "address"
						},
						{
							"internalType": "address",
							"name": "_creditor",
							"type": "address"
						}
					],
					"name": "lookup",
					"outputs": [
						{
							"internalType": "uint256",
							"name": "",
							"type": "uint256"
						}
					],
					"stateMutability": "view",
					"type": "function"
				},
				{
					"inputs": [
						{
							"internalType": "uint256",
							"name": "",
							"type": "uint256"
						}
					],
					"name": "users",
					"outputs": [
						{
							"internalType": "address",
							"name": "",
							"type": "address"
						}
					],
					"stateMutability": "view",
					"type": "function"
				}
			],
			"devdoc": {
				"kind": "dev",
				"methods": {},
				"version": 1
			},
			"evm": {
				"assembly": "    /* \"mycontract.sol\":363:880  contract blockWise {... */\n  mstore(0x40, 0x80)\n  callvalue\n  dup1\n  iszero\n  tag_1\n  jumpi\n  0x00\n  dup1\n  revert\ntag_1:\n  pop\n  dataSize(sub_0)\n  dup1\n  dataOffset(sub_0)\n  0x00\n  codecopy\n  0x00\n  return\nstop\n\nsub_0: assembly {\n        /* \"mycontract.sol\":363:880  contract blockWise {... */\n      mstore(0x40, 0x80)\n      callvalue\n      dup1\n      iszero\n      tag_1\n      jumpi\n      0x00\n      dup1\n      revert\n    tag_1:\n      pop\n      jumpi(tag_2, lt(calldatasize, 0x04))\n      shr(0xe0, calldataload(0x00))\n      dup1\n      0x215accc7\n      eq\n      tag_3\n      jumpi\n      dup1\n      0x365b98b2\n      eq\n      tag_4\n      jumpi\n      dup1\n      0x713584a6\n      eq\n      tag_5\n      jumpi\n    tag_2:\n      0x00\n      dup1\n      revert\n        /* \"mycontract.sol\":482:741  function add_IOU(address _creditor, uint _iou) external {... */\n    tag_3:\n      tag_6\n      0x04\n      dup1\n      calldatasize\n      sub\n      dup2\n      add\n      swap1\n      tag_7\n      swap2\n      swap1\n      tag_8\n      jump\t// in\n    tag_7:\n      tag_9\n      jump\t// in\n    tag_6:\n      stop\n        /* \"mycontract.sol\":453:475  address[] public users */\n    tag_4:\n      tag_10\n      0x04\n      dup1\n      calldatasize\n      sub\n      dup2\n      add\n      swap1\n      tag_11\n      swap2\n      swap1\n      tag_12\n      jump\t// in\n    tag_11:\n      tag_13\n      jump\t// in\n    tag_10:\n      mload(0x40)\n      tag_14\n      swap2\n      swap1\n      tag_15\n      jump\t// in\n    tag_14:\n      mload(0x40)\n      dup1\n      swap2\n      sub\n      swap1\n      return\n        /* \"mycontract.sol\":748:877  function lookup(address _debtor, address _creditor) external view returns (uint) {... */\n    tag_5:\n      tag_16\n      0x04\n      dup1\n      calldatasize\n      sub\n      dup2\n      add\n      swap1\n      tag_17\n      swap2\n      swap1\n      tag_18\n      jump\t// in\n    tag_17:\n      tag_19\n      jump\t// in\n    tag_16:\n      mload(0x40)\n      tag_20\n      swap2\n      swap1\n      tag_21\n      jump\t// in\n    tag_20:\n      mload(0x40)\n      dup1\n      swap2\n      sub\n      swap1\n      return\n        /* \"mycontract.sol\":482:741  function add_IOU(address _creditor, uint _iou) external {... */\n    tag_9:\n        /* \"mycontract.sol\":569:578  _creditor */\n      dup2\n        /* \"mycontract.sol\":555:578  msg.sender != _creditor */\n      0xffffffffffffffffffffffffffffffffffffffff\n      and\n        /* \"mycontract.sol\":555:565  msg.sender */\n      caller\n        /* \"mycontract.sol\":555:578  msg.sender != _creditor */\n      0xffffffffffffffffffffffffffffffffffffffff\n      and\n      eq\n      iszero\n        /* \"mycontract.sol\":547:615  require(msg.sender != _creditor, \"You can't owe money to yourself!\") */\n      tag_23\n      jumpi\n      mload(0x40)\n      0x08c379a000000000000000000000000000000000000000000000000000000000\n      dup2\n      mstore\n      0x04\n      add\n      tag_24\n      swap1\n      tag_25\n      jump\t// in\n    tag_24:\n      mload(0x40)\n      dup1\n      swap2\n      sub\n      swap1\n      revert\n    tag_23:\n        /* \"mycontract.sol\":657:661  _iou */\n      dup1\n        /* \"mycontract.sol\":626:630  ious */\n      0x00\n        /* \"mycontract.sol\":626:642  ious[msg.sender] */\n      dup1\n        /* \"mycontract.sol\":631:641  msg.sender */\n      caller\n        /* \"mycontract.sol\":626:642  ious[msg.sender] */\n      0xffffffffffffffffffffffffffffffffffffffff\n      and\n      0xffffffffffffffffffffffffffffffffffffffff\n      and\n      dup2\n      mstore\n      0x20\n      add\n      swap1\n      dup2\n      mstore\n      0x20\n      add\n      0x00\n      keccak256\n        /* \"mycontract.sol\":626:653  ious[msg.sender][_creditor] */\n      0x00\n        /* \"mycontract.sol\":643:652  _creditor */\n      dup5\n        /* \"mycontract.sol\":626:653  ious[msg.sender][_creditor] */\n      0xffffffffffffffffffffffffffffffffffffffff\n      and\n      0xffffffffffffffffffffffffffffffffffffffff\n      and\n      dup2\n      mstore\n      0x20\n      add\n      swap1\n      dup2\n      mstore\n      0x20\n      add\n      0x00\n      keccak256\n      0x00\n        /* \"mycontract.sol\":626:661  ious[msg.sender][_creditor] += _iou */\n      dup3\n      dup3\n      sload\n      tag_26\n      swap2\n      swap1\n      tag_27\n      jump\t// in\n    tag_26:\n      swap3\n      pop\n      pop\n      dup2\n      swap1\n      sstore\n      pop\n        /* \"mycontract.sol\":672:677  users */\n      0x01\n        /* \"mycontract.sol\":683:693  msg.sender */\n      caller\n        /* \"mycontract.sol\":672:694  users.push(msg.sender) */\n      swap1\n      dup1\n      0x01\n      dup2\n      sload\n      add\n      dup1\n      dup3\n      sstore\n      dup1\n      swap2\n      pop\n      pop\n      0x01\n      swap1\n      sub\n      swap1\n      0x00\n      mstore\n      keccak256(0x00, 0x20)\n      add\n      0x00\n      swap1\n      swap2\n      swap1\n      swap2\n      swap1\n      swap2\n      0x0100\n      exp\n      dup2\n      sload\n      dup2\n      0xffffffffffffffffffffffffffffffffffffffff\n      mul\n      not\n      and\n      swap1\n      dup4\n      0xffffffffffffffffffffffffffffffffffffffff\n      and\n      mul\n      or\n      swap1\n      sstore\n      pop\n        /* \"mycontract.sol\":704:709  users */\n      0x01\n        /* \"mycontract.sol\":715:724  _creditor */\n      dup3\n        /* \"mycontract.sol\":704:725  users.push(_creditor) */\n      swap1\n      dup1\n      0x01\n      dup2\n      sload\n      add\n      dup1\n      dup3\n      sstore\n      dup1\n      swap2\n      pop\n      pop\n      0x01\n      swap1\n      sub\n      swap1\n      0x00\n      mstore\n      keccak256(0x00, 0x20)\n      add\n      0x00\n      swap1\n      swap2\n      swap1\n      swap2\n      swap1\n      swap2\n      0x0100\n      exp\n      dup2\n      sload\n      dup2\n      0xffffffffffffffffffffffffffffffffffffffff\n      mul\n      not\n      and\n      swap1\n      dup4\n      0xffffffffffffffffffffffffffffffffffffffff\n      and\n      mul\n      or\n      swap1\n      sstore\n      pop\n        /* \"mycontract.sol\":482:741  function add_IOU(address _creditor, uint _iou) external {... */\n      pop\n      pop\n      jump\t// out\n        /* \"mycontract.sol\":453:475  address[] public users */\n    tag_13:\n      0x01\n      dup2\n      dup2\n      sload\n      dup2\n      lt\n      tag_30\n      jumpi\n      0x00\n      dup1\n      revert\n    tag_30:\n      swap1\n      0x00\n      mstore\n      keccak256(0x00, 0x20)\n      add\n      0x00\n      swap2\n      pop\n      sload\n      swap1\n      0x0100\n      exp\n      swap1\n      div\n      0xffffffffffffffffffffffffffffffffffffffff\n      and\n      dup2\n      jump\t// out\n        /* \"mycontract.sol\":748:877  function lookup(address _debtor, address _creditor) external view returns (uint) {... */\n    tag_19:\n        /* \"mycontract.sol\":823:827  uint */\n      0x00\n        /* \"mycontract.sol\":846:850  ious */\n      dup1\n        /* \"mycontract.sol\":846:859  ious[_debtor] */\n      0x00\n        /* \"mycontract.sol\":851:858  _debtor */\n      dup5\n        /* \"mycontract.sol\":846:859  ious[_debtor] */\n      0xffffffffffffffffffffffffffffffffffffffff\n      and\n      0xffffffffffffffffffffffffffffffffffffffff\n      and\n      dup2\n      mstore\n      0x20\n      add\n      swap1\n      dup2\n      mstore\n      0x20\n      add\n      0x00\n      keccak256\n        /* \"mycontract.sol\":846:870  ious[_debtor][_creditor] */\n      0x00\n        /* \"mycontract.sol\":860:869  _creditor */\n      dup4\n        /* \"mycontract.sol\":846:870  ious[_debtor][_creditor] */\n      0xffffffffffffffffffffffffffffffffffffffff\n      and\n      0xffffffffffffffffffffffffffffffffffffffff\n      and\n      dup2\n      mstore\n      0x20\n      add\n      swap1\n      dup2\n      mstore\n      0x20\n      add\n      0x00\n      keccak256\n      sload\n        /* \"mycontract.sol\":839:870  return ious[_debtor][_creditor] */\n      swap1\n      pop\n        /* \"mycontract.sol\":748:877  function lookup(address _debtor, address _creditor) external view returns (uint) {... */\n      swap3\n      swap2\n      pop\n      pop\n      jump\t// out\n        /* \"#utility.yul\":7:146   */\n    tag_34:\n        /* \"#utility.yul\":53:58   */\n      0x00\n        /* \"#utility.yul\":91:97   */\n      dup2\n        /* \"#utility.yul\":78:98   */\n      calldataload\n        /* \"#utility.yul\":69:98   */\n      swap1\n      pop\n        /* \"#utility.yul\":107:140   */\n      tag_36\n        /* \"#utility.yul\":134:139   */\n      dup2\n        /* \"#utility.yul\":107:140   */\n      tag_37\n      jump\t// in\n    tag_36:\n        /* \"#utility.yul\":7:146   */\n      swap3\n      swap2\n      pop\n      pop\n      jump\t// out\n        /* \"#utility.yul\":152:291   */\n    tag_38:\n        /* \"#utility.yul\":198:203   */\n      0x00\n        /* \"#utility.yul\":236:242   */\n      dup2\n        /* \"#utility.yul\":223:243   */\n      calldataload\n        /* \"#utility.yul\":214:243   */\n      swap1\n      pop\n        /* \"#utility.yul\":252:285   */\n      tag_40\n        /* \"#utility.yul\":279:284   */\n      dup2\n        /* \"#utility.yul\":252:285   */\n      tag_41\n      jump\t// in\n    tag_40:\n        /* \"#utility.yul\":152:291   */\n      swap3\n      swap2\n      pop\n      pop\n      jump\t// out\n        /* \"#utility.yul\":297:771   */\n    tag_18:\n        /* \"#utility.yul\":365:371   */\n      0x00\n        /* \"#utility.yul\":373:379   */\n      dup1\n        /* \"#utility.yul\":422:424   */\n      0x40\n        /* \"#utility.yul\":410:419   */\n      dup4\n        /* \"#utility.yul\":401:408   */\n      dup6\n        /* \"#utility.yul\":397:420   */\n      sub\n        /* \"#utility.yul\":393:425   */\n      slt\n        /* \"#utility.yul\":390:509   */\n      iszero\n      tag_43\n      jumpi\n        /* \"#utility.yul\":428:507   */\n      tag_44\n      tag_45\n      jump\t// in\n    tag_44:\n        /* \"#utility.yul\":390:509   */\n    tag_43:\n        /* \"#utility.yul\":548:549   */\n      0x00\n        /* \"#utility.yul\":573:626   */\n      tag_46\n        /* \"#utility.yul\":618:625   */\n      dup6\n        /* \"#utility.yul\":609:615   */\n      dup3\n        /* \"#utility.yul\":598:607   */\n      dup7\n        /* \"#utility.yul\":594:616   */\n      add\n        /* \"#utility.yul\":573:626   */\n      tag_34\n      jump\t// in\n    tag_46:\n        /* \"#utility.yul\":563:626   */\n      swap3\n      pop\n        /* \"#utility.yul\":519:636   */\n      pop\n        /* \"#utility.yul\":675:677   */\n      0x20\n        /* \"#utility.yul\":701:754   */\n      tag_47\n        /* \"#utility.yul\":746:753   */\n      dup6\n        /* \"#utility.yul\":737:743   */\n      dup3\n        /* \"#utility.yul\":726:735   */\n      dup7\n        /* \"#utility.yul\":722:744   */\n      add\n        /* \"#utility.yul\":701:754   */\n      tag_34\n      jump\t// in\n    tag_47:\n        /* \"#utility.yul\":691:754   */\n      swap2\n      pop\n        /* \"#utility.yul\":646:764   */\n      pop\n        /* \"#utility.yul\":297:771   */\n      swap3\n      pop\n      swap3\n      swap1\n      pop\n      jump\t// out\n        /* \"#utility.yul\":777:1251   */\n    tag_8:\n        /* \"#utility.yul\":845:851   */\n      0x00\n        /* \"#utility.yul\":853:859   */\n      dup1\n        /* \"#utility.yul\":902:904   */\n      0x40\n        /* \"#utility.yul\":890:899   */\n      dup4\n        /* \"#utility.yul\":881:888   */\n      dup6\n        /* \"#utility.yul\":877:900   */\n      sub\n        /* \"#utility.yul\":873:905   */\n      slt\n        /* \"#utility.yul\":870:989   */\n      iszero\n      tag_49\n      jumpi\n        /* \"#utility.yul\":908:987   */\n      tag_50\n      tag_45\n      jump\t// in\n    tag_50:\n        /* \"#utility.yul\":870:989   */\n    tag_49:\n        /* \"#utility.yul\":1028:1029   */\n      0x00\n        /* \"#utility.yul\":1053:1106   */\n      tag_51\n        /* \"#utility.yul\":1098:1105   */\n      dup6\n        /* \"#utility.yul\":1089:1095   */\n      dup3\n        /* \"#utility.yul\":1078:1087   */\n      dup7\n        /* \"#utility.yul\":1074:1096   */\n      add\n        /* \"#utility.yul\":1053:1106   */\n      tag_34\n      jump\t// in\n    tag_51:\n        /* \"#utility.yul\":1043:1106   */\n      swap3\n      pop\n        /* \"#utility.yul\":999:1116   */\n      pop\n        /* \"#utility.yul\":1155:1157   */\n      0x20\n        /* \"#utility.yul\":1181:1234   */\n      tag_52\n        /* \"#utility.yul\":1226:1233   */\n      dup6\n        /* \"#utility.yul\":1217:1223   */\n      dup3\n        /* \"#utility.yul\":1206:1215   */\n      dup7\n        /* \"#utility.yul\":1202:1224   */\n      add\n        /* \"#utility.yul\":1181:1234   */\n      tag_38\n      jump\t// in\n    tag_52:\n        /* \"#utility.yul\":1171:1234   */\n      swap2\n      pop\n        /* \"#utility.yul\":1126:1244   */\n      pop\n        /* \"#utility.yul\":777:1251   */\n      swap3\n      pop\n      swap3\n      swap1\n      pop\n      jump\t// out\n        /* \"#utility.yul\":1257:1586   */\n    tag_12:\n        /* \"#utility.yul\":1316:1322   */\n      0x00\n        /* \"#utility.yul\":1365:1367   */\n      0x20\n        /* \"#utility.yul\":1353:1362   */\n      dup3\n        /* \"#utility.yul\":1344:1351   */\n      dup5\n        /* \"#utility.yul\":1340:1363   */\n      sub\n        /* \"#utility.yul\":1336:1368   */\n      slt\n        /* \"#utility.yul\":1333:1452   */\n      iszero\n      tag_54\n      jumpi\n        /* \"#utility.yul\":1371:1450   */\n      tag_55\n      tag_45\n      jump\t// in\n    tag_55:\n        /* \"#utility.yul\":1333:1452   */\n    tag_54:\n        /* \"#utility.yul\":1491:1492   */\n      0x00\n        /* \"#utility.yul\":1516:1569   */\n      tag_56\n        /* \"#utility.yul\":1561:1568   */\n      dup5\n        /* \"#utility.yul\":1552:1558   */\n      dup3\n        /* \"#utility.yul\":1541:1550   */\n      dup6\n        /* \"#utility.yul\":1537:1559   */\n      add\n        /* \"#utility.yul\":1516:1569   */\n      tag_38\n      jump\t// in\n    tag_56:\n        /* \"#utility.yul\":1506:1569   */\n      swap2\n      pop\n        /* \"#utility.yul\":1462:1579   */\n      pop\n        /* \"#utility.yul\":1257:1586   */\n      swap3\n      swap2\n      pop\n      pop\n      jump\t// out\n        /* \"#utility.yul\":1592:1710   */\n    tag_57:\n        /* \"#utility.yul\":1679:1703   */\n      tag_59\n        /* \"#utility.yul\":1697:1702   */\n      dup2\n        /* \"#utility.yul\":1679:1703   */\n      tag_60\n      jump\t// in\n    tag_59:\n        /* \"#utility.yul\":1674:1677   */\n      dup3\n        /* \"#utility.yul\":1667:1704   */\n      mstore\n        /* \"#utility.yul\":1592:1710   */\n      pop\n      pop\n      jump\t// out\n        /* \"#utility.yul\":1716:2082   */\n    tag_61:\n        /* \"#utility.yul\":1858:1861   */\n      0x00\n        /* \"#utility.yul\":1879:1946   */\n      tag_63\n        /* \"#utility.yul\":1943:1945   */\n      0x20\n        /* \"#utility.yul\":1938:1941   */\n      dup4\n        /* \"#utility.yul\":1879:1946   */\n      tag_64\n      jump\t// in\n    tag_63:\n        /* \"#utility.yul\":1872:1946   */\n      swap2\n      pop\n        /* \"#utility.yul\":1955:2048   */\n      tag_65\n        /* \"#utility.yul\":2044:2047   */\n      dup3\n        /* \"#utility.yul\":1955:2048   */\n      tag_66\n      jump\t// in\n    tag_65:\n        /* \"#utility.yul\":2073:2075   */\n      0x20\n        /* \"#utility.yul\":2068:2071   */\n      dup3\n        /* \"#utility.yul\":2064:2076   */\n      add\n        /* \"#utility.yul\":2057:2076   */\n      swap1\n      pop\n        /* \"#utility.yul\":1716:2082   */\n      swap2\n      swap1\n      pop\n      jump\t// out\n        /* \"#utility.yul\":2088:2206   */\n    tag_67:\n        /* \"#utility.yul\":2175:2199   */\n      tag_69\n        /* \"#utility.yul\":2193:2198   */\n      dup2\n        /* \"#utility.yul\":2175:2199   */\n      tag_70\n      jump\t// in\n    tag_69:\n        /* \"#utility.yul\":2170:2173   */\n      dup3\n        /* \"#utility.yul\":2163:2200   */\n      mstore\n        /* \"#utility.yul\":2088:2206   */\n      pop\n      pop\n      jump\t// out\n        /* \"#utility.yul\":2212:2434   */\n    tag_15:\n        /* \"#utility.yul\":2305:2309   */\n      0x00\n        /* \"#utility.yul\":2343:2345   */\n      0x20\n        /* \"#utility.yul\":2332:2341   */\n      dup3\n        /* \"#utility.yul\":2328:2346   */\n      add\n        /* \"#utility.yul\":2320:2346   */\n      swap1\n      pop\n        /* \"#utility.yul\":2356:2427   */\n      tag_72\n        /* \"#utility.yul\":2424:2425   */\n      0x00\n        /* \"#utility.yul\":2413:2422   */\n      dup4\n        /* \"#utility.yul\":2409:2426   */\n      add\n        /* \"#utility.yul\":2400:2406   */\n      dup5\n        /* \"#utility.yul\":2356:2427   */\n      tag_57\n      jump\t// in\n    tag_72:\n        /* \"#utility.yul\":2212:2434   */\n      swap3\n      swap2\n      pop\n      pop\n      jump\t// out\n        /* \"#utility.yul\":2440:2859   */\n    tag_25:\n        /* \"#utility.yul\":2606:2610   */\n      0x00\n        /* \"#utility.yul\":2644:2646   */\n      0x20\n        /* \"#utility.yul\":2633:2642   */\n      dup3\n        /* \"#utility.yul\":2629:2647   */\n      add\n        /* \"#utility.yul\":2621:2647   */\n      swap1\n      pop\n        /* \"#utility.yul\":2693:2702   */\n      dup2\n        /* \"#utility.yul\":2687:2691   */\n      dup2\n        /* \"#utility.yul\":2683:2703   */\n      sub\n        /* \"#utility.yul\":2679:2680   */\n      0x00\n        /* \"#utility.yul\":2668:2677   */\n      dup4\n        /* \"#utility.yul\":2664:2681   */\n      add\n        /* \"#utility.yul\":2657:2704   */\n      mstore\n        /* \"#utility.yul\":2721:2852   */\n      tag_74\n        /* \"#utility.yul\":2847:2851   */\n      dup2\n        /* \"#utility.yul\":2721:2852   */\n      tag_61\n      jump\t// in\n    tag_74:\n        /* \"#utility.yul\":2713:2852   */\n      swap1\n      pop\n        /* \"#utility.yul\":2440:2859   */\n      swap2\n      swap1\n      pop\n      jump\t// out\n        /* \"#utility.yul\":2865:3087   */\n    tag_21:\n        /* \"#utility.yul\":2958:2962   */\n      0x00\n        /* \"#utility.yul\":2996:2998   */\n      0x20\n        /* \"#utility.yul\":2985:2994   */\n      dup3\n        /* \"#utility.yul\":2981:2999   */\n      add\n        /* \"#utility.yul\":2973:2999   */\n      swap1\n      pop\n        /* \"#utility.yul\":3009:3080   */\n      tag_76\n        /* \"#utility.yul\":3077:3078   */\n      0x00\n        /* \"#utility.yul\":3066:3075   */\n      dup4\n        /* \"#utility.yul\":3062:3079   */\n      add\n        /* \"#utility.yul\":3053:3059   */\n      dup5\n        /* \"#utility.yul\":3009:3080   */\n      tag_67\n      jump\t// in\n    tag_76:\n        /* \"#utility.yul\":2865:3087   */\n      swap3\n      swap2\n      pop\n      pop\n      jump\t// out\n        /* \"#utility.yul\":3174:3343   */\n    tag_64:\n        /* \"#utility.yul\":3258:3269   */\n      0x00\n        /* \"#utility.yul\":3292:3298   */\n      dup3\n        /* \"#utility.yul\":3287:3290   */\n      dup3\n        /* \"#utility.yul\":3280:3299   */\n      mstore\n        /* \"#utility.yul\":3332:3336   */\n      0x20\n        /* \"#utility.yul\":3327:3330   */\n      dup3\n        /* \"#utility.yul\":3323:3337   */\n      add\n        /* \"#utility.yul\":3308:3337   */\n      swap1\n      pop\n        /* \"#utility.yul\":3174:3343   */\n      swap3\n      swap2\n      pop\n      pop\n      jump\t// out\n        /* \"#utility.yul\":3349:3654   */\n    tag_27:\n        /* \"#utility.yul\":3389:3392   */\n      0x00\n        /* \"#utility.yul\":3408:3428   */\n      tag_81\n        /* \"#utility.yul\":3426:3427   */\n      dup3\n        /* \"#utility.yul\":3408:3428   */\n      tag_70\n      jump\t// in\n    tag_81:\n        /* \"#utility.yul\":3403:3428   */\n      swap2\n      pop\n        /* \"#utility.yul\":3442:3462   */\n      tag_82\n        /* \"#utility.yul\":3460:3461   */\n      dup4\n        /* \"#utility.yul\":3442:3462   */\n      tag_70\n      jump\t// in\n    tag_82:\n        /* \"#utility.yul\":3437:3462   */\n      swap3\n      pop\n        /* \"#utility.yul\":3596:3597   */\n      dup3\n        /* \"#utility.yul\":3528:3594   */\n      0xffffffffffffffffffffffffffffffffffffffffffffffffffffffffffffffff\n        /* \"#utility.yul\":3524:3598   */\n      sub\n        /* \"#utility.yul\":3521:3522   */\n      dup3\n        /* \"#utility.yul\":3518:3599   */\n      gt\n        /* \"#utility.yul\":3515:3622   */\n      iszero\n      tag_83\n      jumpi\n        /* \"#utility.yul\":3602:3620   */\n      tag_84\n      tag_85\n      jump\t// in\n    tag_84:\n        /* \"#utility.yul\":3515:3622   */\n    tag_83:\n        /* \"#utility.yul\":3646:3647   */\n      dup3\n        /* \"#utility.yul\":3643:3644   */\n      dup3\n        /* \"#utility.yul\":3639:3648   */\n      add\n        /* \"#utility.yul\":3632:3648   */\n      swap1\n      pop\n        /* \"#utility.yul\":3349:3654   */\n      swap3\n      swap2\n      pop\n      pop\n      jump\t// out\n        /* \"#utility.yul\":3660:3756   */\n    tag_60:\n        /* \"#utility.yul\":3697:3704   */\n      0x00\n        /* \"#utility.yul\":3726:3750   */\n      tag_87\n        /* \"#utility.yul\":3744:3749   */\n      dup3\n        /* \"#utility.yul\":3726:3750   */\n      tag_88\n      jump\t// in\n    tag_87:\n        /* \"#utility.yul\":3715:3750   */\n      swap1\n      pop\n        /* \"#utility.yul\":3660:3756   */\n      swap2\n      swap1\n      pop\n      jump\t// out\n        /* \"#utility.yul\":3762:3888   */\n    tag_88:\n        /* \"#utility.yul\":3799:3806   */\n      0x00\n        /* \"#utility.yul\":3839:3881   */\n      0xffffffffffffffffffffffffffffffffffffffff\n        /* \"#utility.yul\":3832:3837   */\n      dup3\n        /* \"#utility.yul\":3828:3882   */\n      and\n        /* \"#utility.yul\":3817:3882   */\n      swap1\n      pop\n        /* \"#utility.yul\":3762:3888   */\n      swap2\n      swap1\n      pop\n      jump\t// out\n        /* \"#utility.yul\":3894:3971   */\n    tag_70:\n        /* \"#utility.yul\":3931:3938   */\n      0x00\n        /* \"#utility.yul\":3960:3965   */\n      dup2\n        /* \"#utility.yul\":3949:3965   */\n      swap1\n      pop\n        /* \"#utility.yul\":3894:3971   */\n      swap2\n      swap1\n      pop\n      jump\t// out\n        /* \"#utility.yul\":3977:4157   */\n    tag_85:\n        /* \"#utility.yul\":4025:4102   */\n      0x4e487b7100000000000000000000000000000000000000000000000000000000\n        /* \"#utility.yul\":4022:4023   */\n      0x00\n        /* \"#utility.yul\":4015:4103   */\n      mstore\n        /* \"#utility.yul\":4122:4126   */\n      0x11\n        /* \"#utility.yul\":4119:4120   */\n      0x04\n        /* \"#utility.yul\":4112:4127   */\n      mstore\n        /* \"#utility.yul\":4146:4150   */\n      0x24\n        /* \"#utility.yul\":4143:4144   */\n      0x00\n        /* \"#utility.yul\":4136:4151   */\n      revert\n        /* \"#utility.yul\":4286:4403   */\n    tag_45:\n        /* \"#utility.yul\":4395:4396   */\n      0x00\n        /* \"#utility.yul\":4392:4393   */\n      dup1\n        /* \"#utility.yul\":4385:4397   */\n      revert\n        /* \"#utility.yul\":4409:4591   */\n    tag_66:\n        /* \"#utility.yul\":4549:4583   */\n      0x596f752063616e2774206f7765206d6f6e657920746f20796f757273656c6621\n        /* \"#utility.yul\":4545:4546   */\n      0x00\n        /* \"#utility.yul\":4537:4543   */\n      dup3\n        /* \"#utility.yul\":4533:4547   */\n      add\n        /* \"#utility.yul\":4526:4584   */\n      mstore\n        /* \"#utility.yul\":4409:4591   */\n      pop\n      jump\t// out\n        /* \"#utility.yul\":4597:4719   */\n    tag_37:\n        /* \"#utility.yul\":4670:4694   */\n      tag_97\n        /* \"#utility.yul\":4688:4693   */\n      dup2\n        /* \"#utility.yul\":4670:4694   */\n      tag_60\n      jump\t// in\n    tag_97:\n        /* \"#utility.yul\":4663:4668   */\n      dup2\n        /* \"#utility.yul\":4660:4695   */\n      eq\n        /* \"#utility.yul\":4650:4713   */\n      tag_98\n      jumpi\n        /* \"#utility.yul\":4709:4710   */\n      0x00\n        /* \"#utility.yul\":4706:4707   */\n      dup1\n        /* \"#utility.yul\":4699:4711   */\n      revert\n        /* \"#utility.yul\":4650:4713   */\n    tag_98:\n        /* \"#utility.yul\":4597:4719   */\n      pop\n      jump\t// out\n        /* \"#utility.yul\":4725:4847   */\n    tag_41:\n        /* \"#utility.yul\":4798:4822   */\n      tag_100\n        /* \"#utility.yul\":4816:4821   */\n      dup2\n        /* \"#utility.yul\":4798:4822   */\n      tag_70\n      jump\t// in\n    tag_100:\n        /* \"#utility.yul\":4791:4796   */\n      dup2\n        /* \"#utility.yul\":4788:4823   */\n      eq\n        /* \"#utility.yul\":4778:4841   */\n      tag_101\n      jumpi\n        /* \"#utility.yul\":4837:4838   */\n      0x00\n        /* \"#utility.yul\":4834:4835   */\n      dup1\n        /* \"#utility.yul\":4827:4839   */\n      revert\n        /* \"#utility.yul\":4778:4841   */\n    tag_101:\n        /* \"#utility.yul\":4725:4847   */\n      pop\n      jump\t// out\n\n    auxdata: 0xa264697066735822122052229b8a84c1a9ed4052ee38f145a03bd10c53c03ebb975ecf06f65c2212873f64736f6c63430008070033\n}\n",
				"bytecode": {
					"linkReferences": {},
					"object": "608060405234801561001057600080fd5b50610624806100206000396000f3fe608060405234801561001057600080fd5b50600436106100415760003560e01c8063215accc714610046578063365b98b214610062578063713584a614610092575b600080fd5b610060600480360381019061005b91906103bc565b6100c2565b005b61007c600480360381019061007791906103fc565b61028d565b604051610089919061046a565b60405180910390f35b6100ac60048036038101906100a7919061037c565b6102cc565b6040516100b991906104a5565b60405180910390f35b8173ffffffffffffffffffffffffffffffffffffffff163373ffffffffffffffffffffffffffffffffffffffff161415610131576040517f08c379a000000000000000000000000000000000000000000000000000000000815260040161012890610485565b60405180910390fd5b806000803373ffffffffffffffffffffffffffffffffffffffff1673ffffffffffffffffffffffffffffffffffffffff16815260200190815260200160002060008473ffffffffffffffffffffffffffffffffffffffff1673ffffffffffffffffffffffffffffffffffffffff16815260200190815260200160002060008282546101bc91906104d1565b925050819055506001339080600181540180825580915050600190039060005260206000200160009091909190916101000a81548173ffffffffffffffffffffffffffffffffffffffff021916908373ffffffffffffffffffffffffffffffffffffffff1602179055506001829080600181540180825580915050600190039060005260206000200160009091909190916101000a81548173ffffffffffffffffffffffffffffffffffffffff021916908373ffffffffffffffffffffffffffffffffffffffff1602179055505050565b6001818154811061029d57600080fd5b906000526020600020016000915054906101000a900473ffffffffffffffffffffffffffffffffffffffff1681565b60008060008473ffffffffffffffffffffffffffffffffffffffff1673ffffffffffffffffffffffffffffffffffffffff16815260200190815260200160002060008373ffffffffffffffffffffffffffffffffffffffff1673ffffffffffffffffffffffffffffffffffffffff16815260200190815260200160002054905092915050565b600081359050610361816105c0565b92915050565b600081359050610376816105d7565b92915050565b6000806040838503121561039357610392610592565b5b60006103a185828601610352565b92505060206103b285828601610352565b9150509250929050565b600080604083850312156103d3576103d2610592565b5b60006103e185828601610352565b92505060206103f285828601610367565b9150509250929050565b60006020828403121561041257610411610592565b5b600061042084828501610367565b91505092915050565b61043281610527565b82525050565b60006104456020836104c0565b915061045082610597565b602082019050919050565b61046481610559565b82525050565b600060208201905061047f6000830184610429565b92915050565b6000602082019050818103600083015261049e81610438565b9050919050565b60006020820190506104ba600083018461045b565b92915050565b600082825260208201905092915050565b60006104dc82610559565b91506104e783610559565b9250827fffffffffffffffffffffffffffffffffffffffffffffffffffffffffffffffff0382111561051c5761051b610563565b5b828201905092915050565b600061053282610539565b9050919050565b600073ffffffffffffffffffffffffffffffffffffffff82169050919050565b6000819050919050565b7f4e487b7100000000000000000000000000000000000000000000000000000000600052601160045260246000fd5b600080fd5b7f596f752063616e2774206f7765206d6f6e657920746f20796f757273656c6621600082015250565b6105c981610527565b81146105d457600080fd5b50565b6105e081610559565b81146105eb57600080fd5b5056fea264697066735822122052229b8a84c1a9ed4052ee38f145a03bd10c53c03ebb975ecf06f65c2212873f64736f6c63430008070033",
					"opcodes": "PUSH1 0x80 PUSH1 0x40 MSTORE CALLVALUE DUP1 ISZERO PUSH2 0x10 JUMPI PUSH1 0x0 DUP1 REVERT JUMPDEST POP PUSH2 0x624 DUP1 PUSH2 0x20 PUSH1 0x0 CODECOPY PUSH1 0x0 RETURN INVALID PUSH1 0x80 PUSH1 0x40 MSTORE CALLVALUE DUP1 ISZERO PUSH2 0x10 JUMPI PUSH1 0x0 DUP1 REVERT JUMPDEST POP PUSH1 0x4 CALLDATASIZE LT PUSH2 0x41 JUMPI PUSH1 0x0 CALLDATALOAD PUSH1 0xE0 SHR DUP1 PUSH4 0x215ACCC7 EQ PUSH2 0x46 JUMPI DUP1 PUSH4 0x365B98B2 EQ PUSH2 0x62 JUMPI DUP1 PUSH4 0x713584A6 EQ PUSH2 0x92 JUMPI JUMPDEST PUSH1 0x0 DUP1 REVERT JUMPDEST PUSH2 0x60 PUSH1 0x4 DUP1 CALLDATASIZE SUB DUP2 ADD SWAP1 PUSH2 0x5B SWAP2 SWAP1 PUSH2 0x3BC JUMP JUMPDEST PUSH2 0xC2 JUMP JUMPDEST STOP JUMPDEST PUSH2 0x7C PUSH1 0x4 DUP1 CALLDATASIZE SUB DUP2 ADD SWAP1 PUSH2 0x77 SWAP2 SWAP1 PUSH2 0x3FC JUMP JUMPDEST PUSH2 0x28D JUMP JUMPDEST PUSH1 0x40 MLOAD PUSH2 0x89 SWAP2 SWAP1 PUSH2 0x46A JUMP JUMPDEST PUSH1 0x40 MLOAD DUP1 SWAP2 SUB SWAP1 RETURN JUMPDEST PUSH2 0xAC PUSH1 0x4 DUP1 CALLDATASIZE SUB DUP2 ADD SWAP1 PUSH2 0xA7 SWAP2 SWAP1 PUSH2 0x37C JUMP JUMPDEST PUSH2 0x2CC JUMP JUMPDEST PUSH1 0x40 MLOAD PUSH2 0xB9 SWAP2 SWAP1 PUSH2 0x4A5 JUMP JUMPDEST PUSH1 0x40 MLOAD DUP1 SWAP2 SUB SWAP1 RETURN JUMPDEST DUP2 PUSH20 0xFFFFFFFFFFFFFFFFFFFFFFFFFFFFFFFFFFFFFFFF AND CALLER PUSH20 0xFFFFFFFFFFFFFFFFFFFFFFFFFFFFFFFFFFFFFFFF AND EQ ISZERO PUSH2 0x131 JUMPI PUSH1 0x40 MLOAD PUSH32 0x8C379A000000000000000000000000000000000000000000000000000000000 DUP2 MSTORE PUSH1 0x4 ADD PUSH2 0x128 SWAP1 PUSH2 0x485 JUMP JUMPDEST PUSH1 0x40 MLOAD DUP1 SWAP2 SUB SWAP1 REVERT JUMPDEST DUP1 PUSH1 0x0 DUP1 CALLER PUSH20 0xFFFFFFFFFFFFFFFFFFFFFFFFFFFFFFFFFFFFFFFF AND PUSH20 0xFFFFFFFFFFFFFFFFFFFFFFFFFFFFFFFFFFFFFFFF AND DUP2 MSTORE PUSH1 0x20 ADD SWAP1 DUP2 MSTORE PUSH1 0x20 ADD PUSH1 0x0 KECCAK256 PUSH1 0x0 DUP5 PUSH20 0xFFFFFFFFFFFFFFFFFFFFFFFFFFFFFFFFFFFFFFFF AND PUSH20 0xFFFFFFFFFFFFFFFFFFFFFFFFFFFFFFFFFFFFFFFF AND DUP2 MSTORE PUSH1 0x20 ADD SWAP1 DUP2 MSTORE PUSH1 0x20 ADD PUSH1 0x0 KECCAK256 PUSH1 0x0 DUP3 DUP3 SLOAD PUSH2 0x1BC SWAP2 SWAP1 PUSH2 0x4D1 JUMP JUMPDEST SWAP3 POP POP DUP2 SWAP1 SSTORE POP PUSH1 0x1 CALLER SWAP1 DUP1 PUSH1 0x1 DUP2 SLOAD ADD DUP1 DUP3 SSTORE DUP1 SWAP2 POP POP PUSH1 0x1 SWAP1 SUB SWAP1 PUSH1 0x0 MSTORE PUSH1 0x20 PUSH1 0x0 KECCAK256 ADD PUSH1 0x0 SWAP1 SWAP2 SWAP1 SWAP2 SWAP1 SWAP2 PUSH2 0x100 EXP DUP2 SLOAD DUP2 PUSH20 0xFFFFFFFFFFFFFFFFFFFFFFFFFFFFFFFFFFFFFFFF MUL NOT AND SWAP1 DUP4 PUSH20 0xFFFFFFFFFFFFFFFFFFFFFFFFFFFFFFFFFFFFFFFF AND MUL OR SWAP1 SSTORE POP PUSH1 0x1 DUP3 SWAP1 DUP1 PUSH1 0x1 DUP2 SLOAD ADD DUP1 DUP3 SSTORE DUP1 SWAP2 POP POP PUSH1 0x1 SWAP1 SUB SWAP1 PUSH1 0x0 MSTORE PUSH1 0x20 PUSH1 0x0 KECCAK256 ADD PUSH1 0x0 SWAP1 SWAP2 SWAP1 SWAP2 SWAP1 SWAP2 PUSH2 0x100 EXP DUP2 SLOAD DUP2 PUSH20 0xFFFFFFFFFFFFFFFFFFFFFFFFFFFFFFFFFFFFFFFF MUL NOT AND SWAP1 DUP4 PUSH20 0xFFFFFFFFFFFFFFFFFFFFFFFFFFFFFFFFFFFFFFFF AND MUL OR SWAP1 SSTORE POP POP POP JUMP JUMPDEST PUSH1 0x1 DUP2 DUP2 SLOAD DUP2 LT PUSH2 0x29D JUMPI PUSH1 0x0 DUP1 REVERT JUMPDEST SWAP1 PUSH1 0x0 MSTORE PUSH1 0x20 PUSH1 0x0 KECCAK256 ADD PUSH1 0x0 SWAP2 POP SLOAD SWAP1 PUSH2 0x100 EXP SWAP1 DIV PUSH20 0xFFFFFFFFFFFFFFFFFFFFFFFFFFFFFFFFFFFFFFFF AND DUP2 JUMP JUMPDEST PUSH1 0x0 DUP1 PUSH1 0x0 DUP5 PUSH20 0xFFFFFFFFFFFFFFFFFFFFFFFFFFFFFFFFFFFFFFFF AND PUSH20 0xFFFFFFFFFFFFFFFFFFFFFFFFFFFFFFFFFFFFFFFF AND DUP2 MSTORE PUSH1 0x20 ADD SWAP1 DUP2 MSTORE PUSH1 0x20 ADD PUSH1 0x0 KECCAK256 PUSH1 0x0 DUP4 PUSH20 0xFFFFFFFFFFFFFFFFFFFFFFFFFFFFFFFFFFFFFFFF AND PUSH20 0xFFFFFFFFFFFFFFFFFFFFFFFFFFFFFFFFFFFFFFFF AND DUP2 MSTORE PUSH1 0x20 ADD SWAP1 DUP2 MSTORE PUSH1 0x20 ADD PUSH1 0x0 KECCAK256 SLOAD SWAP1 POP SWAP3 SWAP2 POP POP JUMP JUMPDEST PUSH1 0x0 DUP2 CALLDATALOAD SWAP1 POP PUSH2 0x361 DUP2 PUSH2 0x5C0 JUMP JUMPDEST SWAP3 SWAP2 POP POP JUMP JUMPDEST PUSH1 0x0 DUP2 CALLDATALOAD SWAP1 POP PUSH2 0x376 DUP2 PUSH2 0x5D7 JUMP JUMPDEST SWAP3 SWAP2 POP POP JUMP JUMPDEST PUSH1 0x0 DUP1 PUSH1 0x40 DUP4 DUP6 SUB SLT ISZERO PUSH2 0x393 JUMPI PUSH2 0x392 PUSH2 0x592 JUMP JUMPDEST JUMPDEST PUSH1 0x0 PUSH2 0x3A1 DUP6 DUP3 DUP7 ADD PUSH2 0x352 JUMP JUMPDEST SWAP3 POP POP PUSH1 0x20 PUSH2 0x3B2 DUP6 DUP3 DUP7 ADD PUSH2 0x352 JUMP JUMPDEST SWAP2 POP POP SWAP3 POP SWAP3 SWAP1 POP JUMP JUMPDEST PUSH1 0x0 DUP1 PUSH1 0x40 DUP4 DUP6 SUB SLT ISZERO PUSH2 0x3D3 JUMPI PUSH2 0x3D2 PUSH2 0x592 JUMP JUMPDEST JUMPDEST PUSH1 0x0 PUSH2 0x3E1 DUP6 DUP3 DUP7 ADD PUSH2 0x352 JUMP JUMPDEST SWAP3 POP POP PUSH1 0x20 PUSH2 0x3F2 DUP6 DUP3 DUP7 ADD PUSH2 0x367 JUMP JUMPDEST SWAP2 POP POP SWAP3 POP SWAP3 SWAP1 POP JUMP JUMPDEST PUSH1 0x0 PUSH1 0x20 DUP3 DUP5 SUB SLT ISZERO PUSH2 0x412 JUMPI PUSH2 0x411 PUSH2 0x592 JUMP JUMPDEST JUMPDEST PUSH1 0x0 PUSH2 0x420 DUP5 DUP3 DUP6 ADD PUSH2 0x367 JUMP JUMPDEST SWAP2 POP POP SWAP3 SWAP2 POP POP JUMP JUMPDEST PUSH2 0x432 DUP2 PUSH2 0x527 JUMP JUMPDEST DUP3 MSTORE POP POP JUMP JUMPDEST PUSH1 0x0 PUSH2 0x445 PUSH1 0x20 DUP4 PUSH2 0x4C0 JUMP JUMPDEST SWAP2 POP PUSH2 0x450 DUP3 PUSH2 0x597 JUMP JUMPDEST PUSH1 0x20 DUP3 ADD SWAP1 POP SWAP2 SWAP1 POP JUMP JUMPDEST PUSH2 0x464 DUP2 PUSH2 0x559 JUMP JUMPDEST DUP3 MSTORE POP POP JUMP JUMPDEST PUSH1 0x0 PUSH1 0x20 DUP3 ADD SWAP1 POP PUSH2 0x47F PUSH1 0x0 DUP4 ADD DUP5 PUSH2 0x429 JUMP JUMPDEST SWAP3 SWAP2 POP POP JUMP JUMPDEST PUSH1 0x0 PUSH1 0x20 DUP3 ADD SWAP1 POP DUP2 DUP2 SUB PUSH1 0x0 DUP4 ADD MSTORE PUSH2 0x49E DUP2 PUSH2 0x438 JUMP JUMPDEST SWAP1 POP SWAP2 SWAP1 POP JUMP JUMPDEST PUSH1 0x0 PUSH1 0x20 DUP3 ADD SWAP1 POP PUSH2 0x4BA PUSH1 0x0 DUP4 ADD DUP5 PUSH2 0x45B JUMP JUMPDEST SWAP3 SWAP2 POP POP JUMP JUMPDEST PUSH1 0x0 DUP3 DUP3 MSTORE PUSH1 0x20 DUP3 ADD SWAP1 POP SWAP3 SWAP2 POP POP JUMP JUMPDEST PUSH1 0x0 PUSH2 0x4DC DUP3 PUSH2 0x559 JUMP JUMPDEST SWAP2 POP PUSH2 0x4E7 DUP4 PUSH2 0x559 JUMP JUMPDEST SWAP3 POP DUP3 PUSH32 0xFFFFFFFFFFFFFFFFFFFFFFFFFFFFFFFFFFFFFFFFFFFFFFFFFFFFFFFFFFFFFFFF SUB DUP3 GT ISZERO PUSH2 0x51C JUMPI PUSH2 0x51B PUSH2 0x563 JUMP JUMPDEST JUMPDEST DUP3 DUP3 ADD SWAP1 POP SWAP3 SWAP2 POP POP JUMP JUMPDEST PUSH1 0x0 PUSH2 0x532 DUP3 PUSH2 0x539 JUMP JUMPDEST SWAP1 POP SWAP2 SWAP1 POP JUMP JUMPDEST PUSH1 0x0 PUSH20 0xFFFFFFFFFFFFFFFFFFFFFFFFFFFFFFFFFFFFFFFF DUP3 AND SWAP1 POP SWAP2 SWAP1 POP JUMP JUMPDEST PUSH1 0x0 DUP2 SWAP1 POP SWAP2 SWAP1 POP JUMP JUMPDEST PUSH32 0x4E487B7100000000000000000000000000000000000000000000000000000000 PUSH1 0x0 MSTORE PUSH1 0x11 PUSH1 0x4 MSTORE PUSH1 0x24 PUSH1 0x0 REVERT JUMPDEST PUSH1 0x0 DUP1 REVERT JUMPDEST PUSH32 0x596F752063616E2774206F7765206D6F6E657920746F20796F757273656C6621 PUSH1 0x0 DUP3 ADD MSTORE POP JUMP JUMPDEST PUSH2 0x5C9 DUP2 PUSH2 0x527 JUMP JUMPDEST DUP2 EQ PUSH2 0x5D4 JUMPI PUSH1 0x0 DUP1 REVERT JUMPDEST POP JUMP JUMPDEST PUSH2 0x5E0 DUP2 PUSH2 0x559 JUMP JUMPDEST DUP2 EQ PUSH2 0x5EB JUMPI PUSH1 0x0 DUP1 REVERT JUMPDEST POP JUMP INVALID LOG2 PUSH5 0x6970667358 0x22 SLT KECCAK256 MSTORE 0x22 SWAP12 DUP11 DUP5 0xC1 0xA9 0xED BLOCKHASH MSTORE 0xEE CODESIZE CALL GASLIMIT LOG0 EXTCODESIZE 0xD1 0xC MSTORE8 0xC0 RETURNDATACOPY 0xBB SWAP8 0x5E 0xCF MOD 0xF6 0x5C 0x22 SLT DUP8 EXTCODEHASH PUSH5 0x736F6C6343 STOP ADDMOD SMOD STOP CALLER "
				},
				"gasEstimates": {
					"creation": {
						"codeDepositCost": "314400",
						"executionCost": "355",
						"totalCost": "314755"
					},
					"external": {
						"add_IOU(address,uint256)": "infinite",
						"lookup(address,address)": "infinite",
						"users(uint256)": "4956"
					}
				},
				"methodIdentifiers": {
					"add_IOU(address,uint256)": "215accc7",
					"lookup(address,address)": "713584a6",
					"users(uint256)": "365b98b2"
				}
			},
			"storageLayout": {
				"storage": [
					{
						"astId": 8,
						"contract": "mycontract.sol:blockWise",
						"label": "ious",
						"offset": 0,
						"slot": "0",
						"type": "t_mapping(t_address,t_mapping(t_address,t_uint256))"
					},
					{
						"astId": 11,
						"contract": "mycontract.sol:blockWise",
						"label": "users",
						"offset": 0,
						"slot": "1",
						"type": "t_array(t_address)dyn_storage"
					}
				],
				"types": {
					"t_address": {
						"encoding": "inplace",
						"label": "address",
						"numberOfBytes": "20"
					},
					"t_array(t_address)dyn_storage": {
						"base": "t_address",
						"encoding": "dynamic_array",
						"label": "address[]",
						"numberOfBytes": "32"
					},
					"t_mapping(t_address,t_mapping(t_address,t_uint256))": {
						"encoding": "mapping",
						"key": "t_address",
						"label": "mapping(address => mapping(address => uint256))",
						"numberOfBytes": "32",
						"value": "t_mapping(t_address,t_uint256)"
					},
					"t_mapping(t_address,t_uint256)": {
						"encoding": "mapping",
						"key": "t_address",
						"label": "mapping(address => uint256)",
						"numberOfBytes": "32",
						"value": "t_uint256"
					},
					"t_uint256": {
						"encoding": "inplace",
						"label": "uint256",
						"numberOfBytes": "32"
					}
				}
			},
			"userdoc": {
				"kind": "user",
				"methods": {},
				"version": 1
			}
		}
	}
}