{
	"mycontract.sol": {
		"blockWise": {
			"abi": [
				{
					"inputs": [
						{
							"internalType": "address",
							"name": "_creditor",
							"type": "address"
						},
						{
							"internalType": "uint256",
							"name": "_iou",
							"type": "uint256"
						},
						{
							"internalType": "address[]",
							"name": "cycle",
							"type": "address[]"
						}
					],
					"name": "add_IOU",
					"outputs": [],
					"stateMutability": "nonpayable",
					"type": "function"
				},
				{
					"inputs": [
						{
							"internalType": "address",
							"name": "",
							"type": "address"
						},
						{
							"internalType": "address",
							"name": "",
							"type": "address"
						}
					],
					"name": "ious",
					"outputs": [
						{
							"internalType": "uint256",
							"name": "",
							"type": "uint256"
						}
					],
					"stateMutability": "view",
					"type": "function"
				},
				{
					"inputs": [
						{
							"internalType": "address",
							"name": "_debtor",
							"type": "address"
						},
						{
							"internalType": "address",
							"name": "_creditor",
							"type": "address"
						}
					],
					"name": "lookup",
					"outputs": [
						{
							"internalType": "uint256",
							"name": "",
							"type": "uint256"
						}
					],
					"stateMutability": "view",
					"type": "function"
				}
			],
			"devdoc": {
				"kind": "dev",
				"methods": {},
				"version": 1
			},
			"evm": {
				"assembly": "    /* \"mycontract.sol\":363:1059  contract blockWise {... */\n  mstore(0x40, 0x80)\n  callvalue\n  dup1\n  iszero\n  tag_1\n  jumpi\n  0x00\n  dup1\n  revert\ntag_1:\n  pop\n  dataSize(sub_0)\n  dup1\n  dataOffset(sub_0)\n  0x00\n  codecopy\n  0x00\n  return\nstop\n\nsub_0: assembly {\n        /* \"mycontract.sol\":363:1059  contract blockWise {... */\n      mstore(0x40, 0x80)\n      callvalue\n      dup1\n      iszero\n      tag_1\n      jumpi\n      0x00\n      dup1\n      revert\n    tag_1:\n      pop\n      jumpi(tag_2, lt(calldatasize, 0x04))\n      shr(0xe0, calldataload(0x00))\n      dup1\n      0x713584a6\n      eq\n      tag_3\n      jumpi\n      dup1\n      0x76609328\n      eq\n      tag_4\n      jumpi\n      dup1\n      0xbff999be\n      eq\n      tag_5\n      jumpi\n    tag_2:\n      0x00\n      dup1\n      revert\n        /* \"mycontract.sol\":928:1055  function lookup(address _debtor, address _creditor) public view returns (uint) {... */\n    tag_3:\n      tag_6\n      0x04\n      dup1\n      calldatasize\n      sub\n      dup2\n      add\n      swap1\n      tag_7\n      swap2\n      swap1\n      tag_8\n      jump\t// in\n    tag_7:\n      tag_9\n      jump\t// in\n    tag_6:\n      mload(0x40)\n      tag_10\n      swap2\n      swap1\n      tag_11\n      jump\t// in\n    tag_10:\n      mload(0x40)\n      dup1\n      swap2\n      sub\n      swap1\n      return\n        /* \"mycontract.sol\":389:445  mapping(address => mapping(address => uint)) public ious */\n    tag_4:\n      tag_12\n      0x04\n      dup1\n      calldatasize\n      sub\n      dup2\n      add\n      swap1\n      tag_13\n      swap2\n      swap1\n      tag_8\n      jump\t// in\n    tag_13:\n      tag_14\n      jump\t// in\n    tag_12:\n      mload(0x40)\n      tag_15\n      swap2\n      swap1\n      tag_11\n      jump\t// in\n    tag_15:\n      mload(0x40)\n      dup1\n      swap2\n      sub\n      swap1\n      return\n        /* \"mycontract.sol\":452:784  function add_IOU(address _creditor, uint _iou, address[] memory cycle) public {... */\n    tag_5:\n      tag_16\n      0x04\n      dup1\n      calldatasize\n      sub\n      dup2\n      add\n      swap1\n      tag_17\n      swap2\n      swap1\n      tag_18\n      jump\t// in\n    tag_17:\n      tag_19\n      jump\t// in\n    tag_16:\n      stop\n        /* \"mycontract.sol\":928:1055  function lookup(address _debtor, address _creditor) public view returns (uint) {... */\n    tag_9:\n        /* \"mycontract.sol\":1001:1005  uint */\n      0x00\n        /* \"mycontract.sol\":1024:1028  ious */\n      dup1\n        /* \"mycontract.sol\":1024:1037  ious[_debtor] */\n      0x00\n        /* \"mycontract.sol\":1029:1036  _debtor */\n      dup5\n        /* \"mycontract.sol\":1024:1037  ious[_debtor] */\n      0xffffffffffffffffffffffffffffffffffffffff\n      and\n      0xffffffffffffffffffffffffffffffffffffffff\n      and\n      dup2\n      mstore\n      0x20\n      add\n      swap1\n      dup2\n      mstore\n      0x20\n      add\n      0x00\n      keccak256\n        /* \"mycontract.sol\":1024:1048  ious[_debtor][_creditor] */\n      0x00\n        /* \"mycontract.sol\":1038:1047  _creditor */\n      dup4\n        /* \"mycontract.sol\":1024:1048  ious[_debtor][_creditor] */\n      0xffffffffffffffffffffffffffffffffffffffff\n      and\n      0xffffffffffffffffffffffffffffffffffffffff\n      and\n      dup2\n      mstore\n      0x20\n      add\n      swap1\n      dup2\n      mstore\n      0x20\n      add\n      0x00\n      keccak256\n      sload\n        /* \"mycontract.sol\":1017:1048  return ious[_debtor][_creditor] */\n      swap1\n      pop\n        /* \"mycontract.sol\":928:1055  function lookup(address _debtor, address _creditor) public view returns (uint) {... */\n      swap3\n      swap2\n      pop\n      pop\n      jump\t// out\n        /* \"mycontract.sol\":389:445  mapping(address => mapping(address => uint)) public ious */\n    tag_14:\n      mstore(0x20, 0x00)\n      dup2\n      0x00\n      mstore\n      mstore(0x20, keccak256(0x00, 0x40))\n      dup1\n      0x00\n      mstore\n      keccak256(0x00, 0x40)\n      0x00\n      swap2\n      pop\n      swap2\n      pop\n      pop\n      sload\n      dup2\n      jump\t// out\n        /* \"mycontract.sol\":452:784  function add_IOU(address _creditor, uint _iou, address[] memory cycle) public {... */\n    tag_19:\n        /* \"mycontract.sol\":560:561  0 */\n      0x00\n        /* \"mycontract.sol\":544:549  cycle */\n      dup2\n        /* \"mycontract.sol\":544:556  cycle.length */\n      mload\n        /* \"mycontract.sol\":544:561  cycle.length <= 0 */\n      gt\n        /* \"mycontract.sol\":540:778  if (cycle.length <= 0) {... */\n      tag_22\n      jumpi\n        /* \"mycontract.sol\":608:612  _iou */\n      dup2\n        /* \"mycontract.sol\":577:581  ious */\n      0x00\n        /* \"mycontract.sol\":577:593  ious[msg.sender] */\n      dup1\n        /* \"mycontract.sol\":582:592  msg.sender */\n      caller\n        /* \"mycontract.sol\":577:593  ious[msg.sender] */\n      0xffffffffffffffffffffffffffffffffffffffff\n      and\n      0xffffffffffffffffffffffffffffffffffffffff\n      and\n      dup2\n      mstore\n      0x20\n      add\n      swap1\n      dup2\n      mstore\n      0x20\n      add\n      0x00\n      keccak256\n        /* \"mycontract.sol\":577:604  ious[msg.sender][_creditor] */\n      0x00\n        /* \"mycontract.sol\":594:603  _creditor */\n      dup6\n        /* \"mycontract.sol\":577:604  ious[msg.sender][_creditor] */\n      0xffffffffffffffffffffffffffffffffffffffff\n      and\n      0xffffffffffffffffffffffffffffffffffffffff\n      and\n      dup2\n      mstore\n      0x20\n      add\n      swap1\n      dup2\n      mstore\n      0x20\n      add\n      0x00\n      keccak256\n      0x00\n        /* \"mycontract.sol\":577:612  ious[msg.sender][_creditor] += _iou */\n      dup3\n      dup3\n      sload\n      tag_23\n      swap2\n      swap1\n      tag_24\n      jump\t// in\n    tag_23:\n      swap3\n      pop\n      pop\n      dup2\n      swap1\n      sstore\n      pop\n        /* \"mycontract.sol\":540:778  if (cycle.length <= 0) {... */\n      jump(tag_25)\n    tag_22:\n        /* \"mycontract.sol\":671:675  _iou */\n      dup2\n        /* \"mycontract.sol\":643:647  ious */\n      0x00\n        /* \"mycontract.sol\":643:657  ious[cycle[0]] */\n      dup1\n        /* \"mycontract.sol\":648:653  cycle */\n      dup4\n        /* \"mycontract.sol\":654:655  0 */\n      0x00\n        /* \"mycontract.sol\":648:656  cycle[0] */\n      dup2\n      mload\n      dup2\n      lt\n      tag_26\n      jumpi\n      tag_27\n      tag_28\n      jump\t// in\n    tag_27:\n    tag_26:\n      0x20\n      mul\n      0x20\n      add\n      add\n      mload\n        /* \"mycontract.sol\":643:657  ious[cycle[0]] */\n      0xffffffffffffffffffffffffffffffffffffffff\n      and\n      0xffffffffffffffffffffffffffffffffffffffff\n      and\n      dup2\n      mstore\n      0x20\n      add\n      swap1\n      dup2\n      mstore\n      0x20\n      add\n      0x00\n      keccak256\n        /* \"mycontract.sol\":643:667  ious[cycle[0]][cycle[1]] */\n      0x00\n        /* \"mycontract.sol\":658:663  cycle */\n      dup4\n        /* \"mycontract.sol\":664:665  1 */\n      0x01\n        /* \"mycontract.sol\":658:666  cycle[1] */\n      dup2\n      mload\n      dup2\n      lt\n      tag_29\n      jumpi\n      tag_30\n      tag_28\n      jump\t// in\n    tag_30:\n    tag_29:\n      0x20\n      mul\n      0x20\n      add\n      add\n      mload\n        /* \"mycontract.sol\":643:667  ious[cycle[0]][cycle[1]] */\n      0xffffffffffffffffffffffffffffffffffffffff\n      and\n      0xffffffffffffffffffffffffffffffffffffffff\n      and\n      dup2\n      mstore\n      0x20\n      add\n      swap1\n      dup2\n      mstore\n      0x20\n      add\n      0x00\n      keccak256\n      0x00\n        /* \"mycontract.sol\":643:675  ious[cycle[0]][cycle[1]] -= _iou */\n      dup3\n      dup3\n      sload\n      tag_31\n      swap2\n      swap1\n      tag_32\n      jump\t// in\n    tag_31:\n      swap3\n      pop\n      pop\n      dup2\n      swap1\n      sstore\n      pop\n        /* \"mycontract.sol\":717:721  _iou */\n      dup2\n        /* \"mycontract.sol\":689:693  ious */\n      0x00\n        /* \"mycontract.sol\":689:703  ious[cycle[1]] */\n      dup1\n        /* \"mycontract.sol\":694:699  cycle */\n      dup4\n        /* \"mycontract.sol\":700:701  1 */\n      0x01\n        /* \"mycontract.sol\":694:702  cycle[1] */\n      dup2\n      mload\n      dup2\n      lt\n      tag_33\n      jumpi\n      tag_34\n      tag_28\n      jump\t// in\n    tag_34:\n    tag_33:\n      0x20\n      mul\n      0x20\n      add\n      add\n      mload\n        /* \"mycontract.sol\":689:703  ious[cycle[1]] */\n      0xffffffffffffffffffffffffffffffffffffffff\n      and\n      0xffffffffffffffffffffffffffffffffffffffff\n      and\n      dup2\n      mstore\n      0x20\n      add\n      swap1\n      dup2\n      mstore\n      0x20\n      add\n      0x00\n      keccak256\n        /* \"mycontract.sol\":689:713  ious[cycle[1]][cycle[2]] */\n      0x00\n        /* \"mycontract.sol\":704:709  cycle */\n      dup4\n        /* \"mycontract.sol\":710:711  2 */\n      0x02\n        /* \"mycontract.sol\":704:712  cycle[2] */\n      dup2\n      mload\n      dup2\n      lt\n      tag_35\n      jumpi\n      tag_36\n      tag_28\n      jump\t// in\n    tag_36:\n    tag_35:\n      0x20\n      mul\n      0x20\n      add\n      add\n      mload\n        /* \"mycontract.sol\":689:713  ious[cycle[1]][cycle[2]] */\n      0xffffffffffffffffffffffffffffffffffffffff\n      and\n      0xffffffffffffffffffffffffffffffffffffffff\n      and\n      dup2\n      mstore\n      0x20\n      add\n      swap1\n      dup2\n      mstore\n      0x20\n      add\n      0x00\n      keccak256\n      0x00\n        /* \"mycontract.sol\":689:721  ious[cycle[1]][cycle[2]] -= _iou */\n      dup3\n      dup3\n      sload\n      tag_37\n      swap2\n      swap1\n      tag_32\n      jump\t// in\n    tag_37:\n      swap3\n      pop\n      pop\n      dup2\n      swap1\n      sstore\n      pop\n        /* \"mycontract.sol\":763:767  _iou */\n      dup2\n        /* \"mycontract.sol\":735:739  ious */\n      0x00\n        /* \"mycontract.sol\":735:749  ious[cycle[2]] */\n      dup1\n        /* \"mycontract.sol\":740:745  cycle */\n      dup4\n        /* \"mycontract.sol\":746:747  2 */\n      0x02\n        /* \"mycontract.sol\":740:748  cycle[2] */\n      dup2\n      mload\n      dup2\n      lt\n      tag_38\n      jumpi\n      tag_39\n      tag_28\n      jump\t// in\n    tag_39:\n    tag_38:\n      0x20\n      mul\n      0x20\n      add\n      add\n      mload\n        /* \"mycontract.sol\":735:749  ious[cycle[2]] */\n      0xffffffffffffffffffffffffffffffffffffffff\n      and\n      0xffffffffffffffffffffffffffffffffffffffff\n      and\n      dup2\n      mstore\n      0x20\n      add\n      swap1\n      dup2\n      mstore\n      0x20\n      add\n      0x00\n      keccak256\n        /* \"mycontract.sol\":735:759  ious[cycle[2]][cycle[0]] */\n      0x00\n        /* \"mycontract.sol\":750:755  cycle */\n      dup4\n        /* \"mycontract.sol\":756:757  0 */\n      0x00\n        /* \"mycontract.sol\":750:758  cycle[0] */\n      dup2\n      mload\n      dup2\n      lt\n      tag_40\n      jumpi\n      tag_41\n      tag_28\n      jump\t// in\n    tag_41:\n    tag_40:\n      0x20\n      mul\n      0x20\n      add\n      add\n      mload\n        /* \"mycontract.sol\":735:759  ious[cycle[2]][cycle[0]] */\n      0xffffffffffffffffffffffffffffffffffffffff\n      and\n      0xffffffffffffffffffffffffffffffffffffffff\n      and\n      dup2\n      mstore\n      0x20\n      add\n      swap1\n      dup2\n      mstore\n      0x20\n      add\n      0x00\n      keccak256\n      0x00\n        /* \"mycontract.sol\":735:767  ious[cycle[2]][cycle[0]] -= _iou */\n      dup3\n      dup3\n      sload\n      tag_42\n      swap2\n      swap1\n      tag_32\n      jump\t// in\n    tag_42:\n      swap3\n      pop\n      pop\n      dup2\n      swap1\n      sstore\n      pop\n        /* \"mycontract.sol\":540:778  if (cycle.length <= 0) {... */\n    tag_25:\n        /* \"mycontract.sol\":452:784  function add_IOU(address _creditor, uint _iou, address[] memory cycle) public {... */\n      pop\n      pop\n      pop\n      jump\t// out\n        /* \"#utility.yul\":24:746   */\n    tag_44:\n        /* \"#utility.yul\":120:125   */\n      0x00\n        /* \"#utility.yul\":145:226   */\n      tag_46\n        /* \"#utility.yul\":161:225   */\n      tag_47\n        /* \"#utility.yul\":218:224   */\n      dup5\n        /* \"#utility.yul\":161:225   */\n      tag_48\n      jump\t// in\n    tag_47:\n        /* \"#utility.yul\":145:226   */\n      tag_49\n      jump\t// in\n    tag_46:\n        /* \"#utility.yul\":136:226   */\n      swap1\n      pop\n        /* \"#utility.yul\":246:251   */\n      dup1\n        /* \"#utility.yul\":275:281   */\n      dup4\n        /* \"#utility.yul\":268:273   */\n      dup3\n        /* \"#utility.yul\":261:282   */\n      mstore\n        /* \"#utility.yul\":309:313   */\n      0x20\n        /* \"#utility.yul\":302:307   */\n      dup3\n        /* \"#utility.yul\":298:314   */\n      add\n        /* \"#utility.yul\":291:314   */\n      swap1\n      pop\n        /* \"#utility.yul\":335:341   */\n      dup3\n        /* \"#utility.yul\":385:388   */\n      dup6\n        /* \"#utility.yul\":377:381   */\n      0x20\n        /* \"#utility.yul\":369:375   */\n      dup7\n        /* \"#utility.yul\":365:382   */\n      mul\n        /* \"#utility.yul\":360:363   */\n      dup3\n        /* \"#utility.yul\":356:383   */\n      add\n        /* \"#utility.yul\":353:389   */\n      gt\n        /* \"#utility.yul\":350:493   */\n      iszero\n      tag_50\n      jumpi\n        /* \"#utility.yul\":404:483   */\n      tag_51\n      tag_52\n      jump\t// in\n    tag_51:\n        /* \"#utility.yul\":350:493   */\n    tag_50:\n        /* \"#utility.yul\":517:518   */\n      0x00\n        /* \"#utility.yul\":502:740   */\n    tag_53:\n        /* \"#utility.yul\":527:533   */\n      dup6\n        /* \"#utility.yul\":524:525   */\n      dup2\n        /* \"#utility.yul\":521:534   */\n      lt\n        /* \"#utility.yul\":502:740   */\n      iszero\n      tag_55\n      jumpi\n        /* \"#utility.yul\":595:598   */\n      dup2\n        /* \"#utility.yul\":624:661   */\n      tag_56\n        /* \"#utility.yul\":657:660   */\n      dup9\n        /* \"#utility.yul\":645:655   */\n      dup3\n        /* \"#utility.yul\":624:661   */\n      tag_57\n      jump\t// in\n    tag_56:\n        /* \"#utility.yul\":619:622   */\n      dup5\n        /* \"#utility.yul\":612:662   */\n      mstore\n        /* \"#utility.yul\":691:695   */\n      0x20\n        /* \"#utility.yul\":686:689   */\n      dup5\n        /* \"#utility.yul\":682:696   */\n      add\n        /* \"#utility.yul\":675:696   */\n      swap4\n      pop\n        /* \"#utility.yul\":725:729   */\n      0x20\n        /* \"#utility.yul\":720:723   */\n      dup4\n        /* \"#utility.yul\":716:730   */\n      add\n        /* \"#utility.yul\":709:730   */\n      swap3\n      pop\n        /* \"#utility.yul\":562:740   */\n      pop\n        /* \"#utility.yul\":549:550   */\n      0x01\n        /* \"#utility.yul\":546:547   */\n      dup2\n        /* \"#utility.yul\":542:551   */\n      add\n        /* \"#utility.yul\":537:551   */\n      swap1\n      pop\n        /* \"#utility.yul\":502:740   */\n      jump(tag_53)\n    tag_55:\n        /* \"#utility.yul\":506:520   */\n      pop\n        /* \"#utility.yul\":126:746   */\n      pop\n      pop\n        /* \"#utility.yul\":24:746   */\n      swap4\n      swap3\n      pop\n      pop\n      pop\n      jump\t// out\n        /* \"#utility.yul\":752:891   */\n    tag_57:\n        /* \"#utility.yul\":798:803   */\n      0x00\n        /* \"#utility.yul\":836:842   */\n      dup2\n        /* \"#utility.yul\":823:843   */\n      calldataload\n        /* \"#utility.yul\":814:843   */\n      swap1\n      pop\n        /* \"#utility.yul\":852:885   */\n      tag_59\n        /* \"#utility.yul\":879:884   */\n      dup2\n        /* \"#utility.yul\":852:885   */\n      tag_60\n      jump\t// in\n    tag_59:\n        /* \"#utility.yul\":752:891   */\n      swap3\n      swap2\n      pop\n      pop\n      jump\t// out\n        /* \"#utility.yul\":914:1284   */\n    tag_61:\n        /* \"#utility.yul\":985:990   */\n      0x00\n        /* \"#utility.yul\":1034:1037   */\n      dup3\n        /* \"#utility.yul\":1027:1031   */\n      0x1f\n        /* \"#utility.yul\":1019:1025   */\n      dup4\n        /* \"#utility.yul\":1015:1032   */\n      add\n        /* \"#utility.yul\":1011:1038   */\n      slt\n        /* \"#utility.yul\":1001:1123   */\n      tag_63\n      jumpi\n        /* \"#utility.yul\":1042:1121   */\n      tag_64\n      tag_65\n      jump\t// in\n    tag_64:\n        /* \"#utility.yul\":1001:1123   */\n    tag_63:\n        /* \"#utility.yul\":1159:1165   */\n      dup2\n        /* \"#utility.yul\":1146:1166   */\n      calldataload\n        /* \"#utility.yul\":1184:1278   */\n      tag_66\n        /* \"#utility.yul\":1274:1277   */\n      dup5\n        /* \"#utility.yul\":1266:1272   */\n      dup3\n        /* \"#utility.yul\":1259:1263   */\n      0x20\n        /* \"#utility.yul\":1251:1257   */\n      dup7\n        /* \"#utility.yul\":1247:1264   */\n      add\n        /* \"#utility.yul\":1184:1278   */\n      tag_44\n      jump\t// in\n    tag_66:\n        /* \"#utility.yul\":1175:1278   */\n      swap2\n      pop\n        /* \"#utility.yul\":991:1284   */\n      pop\n        /* \"#utility.yul\":914:1284   */\n      swap3\n      swap2\n      pop\n      pop\n      jump\t// out\n        /* \"#utility.yul\":1290:1429   */\n    tag_67:\n        /* \"#utility.yul\":1336:1341   */\n      0x00\n        /* \"#utility.yul\":1374:1380   */\n      dup2\n        /* \"#utility.yul\":1361:1381   */\n      calldataload\n        /* \"#utility.yul\":1352:1381   */\n      swap1\n      pop\n        /* \"#utility.yul\":1390:1423   */\n      tag_69\n        /* \"#utility.yul\":1417:1422   */\n      dup2\n        /* \"#utility.yul\":1390:1423   */\n      tag_70\n      jump\t// in\n    tag_69:\n        /* \"#utility.yul\":1290:1429   */\n      swap3\n      swap2\n      pop\n      pop\n      jump\t// out\n        /* \"#utility.yul\":1435:1909   */\n    tag_8:\n        /* \"#utility.yul\":1503:1509   */\n      0x00\n        /* \"#utility.yul\":1511:1517   */\n      dup1\n        /* \"#utility.yul\":1560:1562   */\n      0x40\n        /* \"#utility.yul\":1548:1557   */\n      dup4\n        /* \"#utility.yul\":1539:1546   */\n      dup6\n        /* \"#utility.yul\":1535:1558   */\n      sub\n        /* \"#utility.yul\":1531:1563   */\n      slt\n        /* \"#utility.yul\":1528:1647   */\n      iszero\n      tag_72\n      jumpi\n        /* \"#utility.yul\":1566:1645   */\n      tag_73\n      tag_74\n      jump\t// in\n    tag_73:\n        /* \"#utility.yul\":1528:1647   */\n    tag_72:\n        /* \"#utility.yul\":1686:1687   */\n      0x00\n        /* \"#utility.yul\":1711:1764   */\n      tag_75\n        /* \"#utility.yul\":1756:1763   */\n      dup6\n        /* \"#utility.yul\":1747:1753   */\n      dup3\n        /* \"#utility.yul\":1736:1745   */\n      dup7\n        /* \"#utility.yul\":1732:1754   */\n      add\n        /* \"#utility.yul\":1711:1764   */\n      tag_57\n      jump\t// in\n    tag_75:\n        /* \"#utility.yul\":1701:1764   */\n      swap3\n      pop\n        /* \"#utility.yul\":1657:1774   */\n      pop\n        /* \"#utility.yul\":1813:1815   */\n      0x20\n        /* \"#utility.yul\":1839:1892   */\n      tag_76\n        /* \"#utility.yul\":1884:1891   */\n      dup6\n        /* \"#utility.yul\":1875:1881   */\n      dup3\n        /* \"#utility.yul\":1864:1873   */\n      dup7\n        /* \"#utility.yul\":1860:1882   */\n      add\n        /* \"#utility.yul\":1839:1892   */\n      tag_57\n      jump\t// in\n    tag_76:\n        /* \"#utility.yul\":1829:1892   */\n      swap2\n      pop\n        /* \"#utility.yul\":1784:1902   */\n      pop\n        /* \"#utility.yul\":1435:1909   */\n      swap3\n      pop\n      swap3\n      swap1\n      pop\n      jump\t// out\n        /* \"#utility.yul\":1915:2744   */\n    tag_18:\n        /* \"#utility.yul\":2017:2023   */\n      0x00\n        /* \"#utility.yul\":2025:2031   */\n      dup1\n        /* \"#utility.yul\":2033:2039   */\n      0x00\n        /* \"#utility.yul\":2082:2084   */\n      0x60\n        /* \"#utility.yul\":2070:2079   */\n      dup5\n        /* \"#utility.yul\":2061:2068   */\n      dup7\n        /* \"#utility.yul\":2057:2080   */\n      sub\n        /* \"#utility.yul\":2053:2085   */\n      slt\n        /* \"#utility.yul\":2050:2169   */\n      iszero\n      tag_78\n      jumpi\n        /* \"#utility.yul\":2088:2167   */\n      tag_79\n      tag_74\n      jump\t// in\n    tag_79:\n        /* \"#utility.yul\":2050:2169   */\n    tag_78:\n        /* \"#utility.yul\":2208:2209   */\n      0x00\n        /* \"#utility.yul\":2233:2286   */\n      tag_80\n        /* \"#utility.yul\":2278:2285   */\n      dup7\n        /* \"#utility.yul\":2269:2275   */\n      dup3\n        /* \"#utility.yul\":2258:2267   */\n      dup8\n        /* \"#utility.yul\":2254:2276   */\n      add\n        /* \"#utility.yul\":2233:2286   */\n      tag_57\n      jump\t// in\n    tag_80:\n        /* \"#utility.yul\":2223:2286   */\n      swap4\n      pop\n        /* \"#utility.yul\":2179:2296   */\n      pop\n        /* \"#utility.yul\":2335:2337   */\n      0x20\n        /* \"#utility.yul\":2361:2414   */\n      tag_81\n        /* \"#utility.yul\":2406:2413   */\n      dup7\n        /* \"#utility.yul\":2397:2403   */\n      dup3\n        /* \"#utility.yul\":2386:2395   */\n      dup8\n        /* \"#utility.yul\":2382:2404   */\n      add\n        /* \"#utility.yul\":2361:2414   */\n      tag_67\n      jump\t// in\n    tag_81:\n        /* \"#utility.yul\":2351:2414   */\n      swap3\n      pop\n        /* \"#utility.yul\":2306:2424   */\n      pop\n        /* \"#utility.yul\":2491:2493   */\n      0x40\n        /* \"#utility.yul\":2480:2489   */\n      dup5\n        /* \"#utility.yul\":2476:2494   */\n      add\n        /* \"#utility.yul\":2463:2495   */\n      calldataload\n        /* \"#utility.yul\":2522:2540   */\n      0xffffffffffffffff\n        /* \"#utility.yul\":2514:2520   */\n      dup2\n        /* \"#utility.yul\":2511:2541   */\n      gt\n        /* \"#utility.yul\":2508:2625   */\n      iszero\n      tag_82\n      jumpi\n        /* \"#utility.yul\":2544:2623   */\n      tag_83\n      tag_84\n      jump\t// in\n    tag_83:\n        /* \"#utility.yul\":2508:2625   */\n    tag_82:\n        /* \"#utility.yul\":2649:2727   */\n      tag_85\n        /* \"#utility.yul\":2719:2726   */\n      dup7\n        /* \"#utility.yul\":2710:2716   */\n      dup3\n        /* \"#utility.yul\":2699:2708   */\n      dup8\n        /* \"#utility.yul\":2695:2717   */\n      add\n        /* \"#utility.yul\":2649:2727   */\n      tag_61\n      jump\t// in\n    tag_85:\n        /* \"#utility.yul\":2639:2727   */\n      swap2\n      pop\n        /* \"#utility.yul\":2434:2737   */\n      pop\n        /* \"#utility.yul\":1915:2744   */\n      swap3\n      pop\n      swap3\n      pop\n      swap3\n      jump\t// out\n        /* \"#utility.yul\":2750:2868   */\n    tag_86:\n        /* \"#utility.yul\":2837:2861   */\n      tag_88\n        /* \"#utility.yul\":2855:2860   */\n      dup2\n        /* \"#utility.yul\":2837:2861   */\n      tag_89\n      jump\t// in\n    tag_88:\n        /* \"#utility.yul\":2832:2835   */\n      dup3\n        /* \"#utility.yul\":2825:2862   */\n      mstore\n        /* \"#utility.yul\":2750:2868   */\n      pop\n      pop\n      jump\t// out\n        /* \"#utility.yul\":2874:3096   */\n    tag_11:\n        /* \"#utility.yul\":2967:2971   */\n      0x00\n        /* \"#utility.yul\":3005:3007   */\n      0x20\n        /* \"#utility.yul\":2994:3003   */\n      dup3\n        /* \"#utility.yul\":2990:3008   */\n      add\n        /* \"#utility.yul\":2982:3008   */\n      swap1\n      pop\n        /* \"#utility.yul\":3018:3089   */\n      tag_91\n        /* \"#utility.yul\":3086:3087   */\n      0x00\n        /* \"#utility.yul\":3075:3084   */\n      dup4\n        /* \"#utility.yul\":3071:3088   */\n      add\n        /* \"#utility.yul\":3062:3068   */\n      dup5\n        /* \"#utility.yul\":3018:3089   */\n      tag_86\n      jump\t// in\n    tag_91:\n        /* \"#utility.yul\":2874:3096   */\n      swap3\n      swap2\n      pop\n      pop\n      jump\t// out\n        /* \"#utility.yul\":3102:3231   */\n    tag_49:\n        /* \"#utility.yul\":3136:3142   */\n      0x00\n        /* \"#utility.yul\":3163:3183   */\n      tag_93\n      tag_94\n      jump\t// in\n    tag_93:\n        /* \"#utility.yul\":3153:3183   */\n      swap1\n      pop\n        /* \"#utility.yul\":3192:3225   */\n      tag_95\n        /* \"#utility.yul\":3220:3224   */\n      dup3\n        /* \"#utility.yul\":3212:3218   */\n      dup3\n        /* \"#utility.yul\":3192:3225   */\n      tag_96\n      jump\t// in\n    tag_95:\n        /* \"#utility.yul\":3102:3231   */\n      swap2\n      swap1\n      pop\n      jump\t// out\n        /* \"#utility.yul\":3237:3312   */\n    tag_94:\n        /* \"#utility.yul\":3270:3276   */\n      0x00\n        /* \"#utility.yul\":3303:3305   */\n      0x40\n        /* \"#utility.yul\":3297:3306   */\n      mload\n        /* \"#utility.yul\":3287:3306   */\n      swap1\n      pop\n        /* \"#utility.yul\":3237:3312   */\n      swap1\n      jump\t// out\n        /* \"#utility.yul\":3318:3629   */\n    tag_48:\n        /* \"#utility.yul\":3395:3399   */\n      0x00\n        /* \"#utility.yul\":3485:3503   */\n      0xffffffffffffffff\n        /* \"#utility.yul\":3477:3483   */\n      dup3\n        /* \"#utility.yul\":3474:3504   */\n      gt\n        /* \"#utility.yul\":3471:3527   */\n      iszero\n      tag_99\n      jumpi\n        /* \"#utility.yul\":3507:3525   */\n      tag_100\n      tag_101\n      jump\t// in\n    tag_100:\n        /* \"#utility.yul\":3471:3527   */\n    tag_99:\n        /* \"#utility.yul\":3557:3561   */\n      0x20\n        /* \"#utility.yul\":3549:3555   */\n      dup3\n        /* \"#utility.yul\":3545:3562   */\n      mul\n        /* \"#utility.yul\":3537:3562   */\n      swap1\n      pop\n        /* \"#utility.yul\":3617:3621   */\n      0x20\n        /* \"#utility.yul\":3611:3615   */\n      dup2\n        /* \"#utility.yul\":3607:3622   */\n      add\n        /* \"#utility.yul\":3599:3622   */\n      swap1\n      pop\n        /* \"#utility.yul\":3318:3629   */\n      swap2\n      swap1\n      pop\n      jump\t// out\n        /* \"#utility.yul\":3635:3940   */\n    tag_24:\n        /* \"#utility.yul\":3675:3678   */\n      0x00\n        /* \"#utility.yul\":3694:3714   */\n      tag_103\n        /* \"#utility.yul\":3712:3713   */\n      dup3\n        /* \"#utility.yul\":3694:3714   */\n      tag_89\n      jump\t// in\n    tag_103:\n        /* \"#utility.yul\":3689:3714   */\n      swap2\n      pop\n        /* \"#utility.yul\":3728:3748   */\n      tag_104\n        /* \"#utility.yul\":3746:3747   */\n      dup4\n        /* \"#utility.yul\":3728:3748   */\n      tag_89\n      jump\t// in\n    tag_104:\n        /* \"#utility.yul\":3723:3748   */\n      swap3\n      pop\n        /* \"#utility.yul\":3882:3883   */\n      dup3\n        /* \"#utility.yul\":3814:3880   */\n      0xffffffffffffffffffffffffffffffffffffffffffffffffffffffffffffffff\n        /* \"#utility.yul\":3810:3884   */\n      sub\n        /* \"#utility.yul\":3807:3808   */\n      dup3\n        /* \"#utility.yul\":3804:3885   */\n      gt\n        /* \"#utility.yul\":3801:3908   */\n      iszero\n      tag_105\n      jumpi\n        /* \"#utility.yul\":3888:3906   */\n      tag_106\n      tag_107\n      jump\t// in\n    tag_106:\n        /* \"#utility.yul\":3801:3908   */\n    tag_105:\n        /* \"#utility.yul\":3932:3933   */\n      dup3\n        /* \"#utility.yul\":3929:3930   */\n      dup3\n        /* \"#utility.yul\":3925:3934   */\n      add\n        /* \"#utility.yul\":3918:3934   */\n      swap1\n      pop\n        /* \"#utility.yul\":3635:3940   */\n      swap3\n      swap2\n      pop\n      pop\n      jump\t// out\n        /* \"#utility.yul\":3946:4137   */\n    tag_32:\n        /* \"#utility.yul\":3986:3990   */\n      0x00\n        /* \"#utility.yul\":4006:4026   */\n      tag_109\n        /* \"#utility.yul\":4024:4025   */\n      dup3\n        /* \"#utility.yul\":4006:4026   */\n      tag_89\n      jump\t// in\n    tag_109:\n        /* \"#utility.yul\":4001:4026   */\n      swap2\n      pop\n        /* \"#utility.yul\":4040:4060   */\n      tag_110\n        /* \"#utility.yul\":4058:4059   */\n      dup4\n        /* \"#utility.yul\":4040:4060   */\n      tag_89\n      jump\t// in\n    tag_110:\n        /* \"#utility.yul\":4035:4060   */\n      swap3\n      pop\n        /* \"#utility.yul\":4079:4080   */\n      dup3\n        /* \"#utility.yul\":4076:4077   */\n      dup3\n        /* \"#utility.yul\":4073:4081   */\n      lt\n        /* \"#utility.yul\":4070:4104   */\n      iszero\n      tag_111\n      jumpi\n        /* \"#utility.yul\":4084:4102   */\n      tag_112\n      tag_107\n      jump\t// in\n    tag_112:\n        /* \"#utility.yul\":4070:4104   */\n    tag_111:\n        /* \"#utility.yul\":4129:4130   */\n      dup3\n        /* \"#utility.yul\":4126:4127   */\n      dup3\n        /* \"#utility.yul\":4122:4131   */\n      sub\n        /* \"#utility.yul\":4114:4131   */\n      swap1\n      pop\n        /* \"#utility.yul\":3946:4137   */\n      swap3\n      swap2\n      pop\n      pop\n      jump\t// out\n        /* \"#utility.yul\":4143:4239   */\n    tag_113:\n        /* \"#utility.yul\":4180:4187   */\n      0x00\n        /* \"#utility.yul\":4209:4233   */\n      tag_115\n        /* \"#utility.yul\":4227:4232   */\n      dup3\n        /* \"#utility.yul\":4209:4233   */\n      tag_116\n      jump\t// in\n    tag_115:\n        /* \"#utility.yul\":4198:4233   */\n      swap1\n      pop\n        /* \"#utility.yul\":4143:4239   */\n      swap2\n      swap1\n      pop\n      jump\t// out\n        /* \"#utility.yul\":4245:4371   */\n    tag_116:\n        /* \"#utility.yul\":4282:4289   */\n      0x00\n        /* \"#utility.yul\":4322:4364   */\n      0xffffffffffffffffffffffffffffffffffffffff\n        /* \"#utility.yul\":4315:4320   */\n      dup3\n        /* \"#utility.yul\":4311:4365   */\n      and\n        /* \"#utility.yul\":4300:4365   */\n      swap1\n      pop\n        /* \"#utility.yul\":4245:4371   */\n      swap2\n      swap1\n      pop\n      jump\t// out\n        /* \"#utility.yul\":4377:4454   */\n    tag_89:\n        /* \"#utility.yul\":4414:4421   */\n      0x00\n        /* \"#utility.yul\":4443:4448   */\n      dup2\n        /* \"#utility.yul\":4432:4448   */\n      swap1\n      pop\n        /* \"#utility.yul\":4377:4454   */\n      swap2\n      swap1\n      pop\n      jump\t// out\n        /* \"#utility.yul\":4460:4741   */\n    tag_96:\n        /* \"#utility.yul\":4543:4570   */\n      tag_120\n        /* \"#utility.yul\":4565:4569   */\n      dup3\n        /* \"#utility.yul\":4543:4570   */\n      tag_121\n      jump\t// in\n    tag_120:\n        /* \"#utility.yul\":4535:4541   */\n      dup2\n        /* \"#utility.yul\":4531:4571   */\n      add\n        /* \"#utility.yul\":4673:4679   */\n      dup2\n        /* \"#utility.yul\":4661:4671   */\n      dup2\n        /* \"#utility.yul\":4658:4680   */\n      lt\n        /* \"#utility.yul\":4637:4655   */\n      0xffffffffffffffff\n        /* \"#utility.yul\":4625:4635   */\n      dup3\n        /* \"#utility.yul\":4622:4656   */\n      gt\n        /* \"#utility.yul\":4619:4681   */\n      or\n        /* \"#utility.yul\":4616:4704   */\n      iszero\n      tag_122\n      jumpi\n        /* \"#utility.yul\":4684:4702   */\n      tag_123\n      tag_101\n      jump\t// in\n    tag_123:\n        /* \"#utility.yul\":4616:4704   */\n    tag_122:\n        /* \"#utility.yul\":4724:4734   */\n      dup1\n        /* \"#utility.yul\":4720:4722   */\n      0x40\n        /* \"#utility.yul\":4713:4735   */\n      mstore\n        /* \"#utility.yul\":4503:4741   */\n      pop\n        /* \"#utility.yul\":4460:4741   */\n      pop\n      pop\n      jump\t// out\n        /* \"#utility.yul\":4747:4927   */\n    tag_107:\n        /* \"#utility.yul\":4795:4872   */\n      0x4e487b7100000000000000000000000000000000000000000000000000000000\n        /* \"#utility.yul\":4792:4793   */\n      0x00\n        /* \"#utility.yul\":4785:4873   */\n      mstore\n        /* \"#utility.yul\":4892:4896   */\n      0x11\n        /* \"#utility.yul\":4889:4890   */\n      0x04\n        /* \"#utility.yul\":4882:4897   */\n      mstore\n        /* \"#utility.yul\":4916:4920   */\n      0x24\n        /* \"#utility.yul\":4913:4914   */\n      0x00\n        /* \"#utility.yul\":4906:4921   */\n      revert\n        /* \"#utility.yul\":4933:5113   */\n    tag_28:\n        /* \"#utility.yul\":4981:5058   */\n      0x4e487b7100000000000000000000000000000000000000000000000000000000\n        /* \"#utility.yul\":4978:4979   */\n      0x00\n        /* \"#utility.yul\":4971:5059   */\n      mstore\n        /* \"#utility.yul\":5078:5082   */\n      0x32\n        /* \"#utility.yul\":5075:5076   */\n      0x04\n        /* \"#utility.yul\":5068:5083   */\n      mstore\n        /* \"#utility.yul\":5102:5106   */\n      0x24\n        /* \"#utility.yul\":5099:5100   */\n      0x00\n        /* \"#utility.yul\":5092:5107   */\n      revert\n        /* \"#utility.yul\":5119:5299   */\n    tag_101:\n        /* \"#utility.yul\":5167:5244   */\n      0x4e487b7100000000000000000000000000000000000000000000000000000000\n        /* \"#utility.yul\":5164:5165   */\n      0x00\n        /* \"#utility.yul\":5157:5245   */\n      mstore\n        /* \"#utility.yul\":5264:5268   */\n      0x41\n        /* \"#utility.yul\":5261:5262   */\n      0x04\n        /* \"#utility.yul\":5254:5269   */\n      mstore\n        /* \"#utility.yul\":5288:5292   */\n      0x24\n        /* \"#utility.yul\":5285:5286   */\n      0x00\n        /* \"#utility.yul\":5278:5293   */\n      revert\n        /* \"#utility.yul\":5305:5422   */\n    tag_65:\n        /* \"#utility.yul\":5414:5415   */\n      0x00\n        /* \"#utility.yul\":5411:5412   */\n      dup1\n        /* \"#utility.yul\":5404:5416   */\n      revert\n        /* \"#utility.yul\":5428:5545   */\n    tag_52:\n        /* \"#utility.yul\":5537:5538   */\n      0x00\n        /* \"#utility.yul\":5534:5535   */\n      dup1\n        /* \"#utility.yul\":5527:5539   */\n      revert\n        /* \"#utility.yul\":5551:5668   */\n    tag_84:\n        /* \"#utility.yul\":5660:5661   */\n      0x00\n        /* \"#utility.yul\":5657:5658   */\n      dup1\n        /* \"#utility.yul\":5650:5662   */\n      revert\n        /* \"#utility.yul\":5674:5791   */\n    tag_74:\n        /* \"#utility.yul\":5783:5784   */\n      0x00\n        /* \"#utility.yul\":5780:5781   */\n      dup1\n        /* \"#utility.yul\":5773:5785   */\n      revert\n        /* \"#utility.yul\":5797:5899   */\n    tag_121:\n        /* \"#utility.yul\":5838:5844   */\n      0x00\n        /* \"#utility.yul\":5889:5891   */\n      0x1f\n        /* \"#utility.yul\":5885:5892   */\n      not\n        /* \"#utility.yul\":5880:5882   */\n      0x1f\n        /* \"#utility.yul\":5873:5878   */\n      dup4\n        /* \"#utility.yul\":5869:5883   */\n      add\n        /* \"#utility.yul\":5865:5893   */\n      and\n        /* \"#utility.yul\":5855:5893   */\n      swap1\n      pop\n        /* \"#utility.yul\":5797:5899   */\n      swap2\n      swap1\n      pop\n      jump\t// out\n        /* \"#utility.yul\":5905:6027   */\n    tag_60:\n        /* \"#utility.yul\":5978:6002   */\n      tag_133\n        /* \"#utility.yul\":5996:6001   */\n      dup2\n        /* \"#utility.yul\":5978:6002   */\n      tag_113\n      jump\t// in\n    tag_133:\n        /* \"#utility.yul\":5971:5976   */\n      dup2\n        /* \"#utility.yul\":5968:6003   */\n      eq\n        /* \"#utility.yul\":5958:6021   */\n      tag_134\n      jumpi\n        /* \"#utility.yul\":6017:6018   */\n      0x00\n        /* \"#utility.yul\":6014:6015   */\n      dup1\n        /* \"#utility.yul\":6007:6019   */\n      revert\n        /* \"#utility.yul\":5958:6021   */\n    tag_134:\n        /* \"#utility.yul\":5905:6027   */\n      pop\n      jump\t// out\n        /* \"#utility.yul\":6033:6155   */\n    tag_70:\n        /* \"#utility.yul\":6106:6130   */\n      tag_136\n        /* \"#utility.yul\":6124:6129   */\n      dup2\n        /* \"#utility.yul\":6106:6130   */\n      tag_89\n      jump\t// in\n    tag_136:\n        /* \"#utility.yul\":6099:6104   */\n      dup2\n        /* \"#utility.yul\":6096:6131   */\n      eq\n        /* \"#utility.yul\":6086:6149   */\n      tag_137\n      jumpi\n        /* \"#utility.yul\":6145:6146   */\n      0x00\n        /* \"#utility.yul\":6142:6143   */\n      dup1\n        /* \"#utility.yul\":6135:6147   */\n      revert\n        /* \"#utility.yul\":6086:6149   */\n    tag_137:\n        /* \"#utility.yul\":6033:6155   */\n      pop\n      jump\t// out\n\n    auxdata: 0xa2646970667358221220af9c299e9da861001e696f09c5a05141c45befaea645d2a81687d6f9a7a1eb6c64736f6c63430008070033\n}\n",
				"bytecode": {
					"linkReferences": {},
					"object": "608060405234801561001057600080fd5b5061086a806100206000396000f3fe608060405234801561001057600080fd5b50600436106100415760003560e01c8063713584a6146100465780637660932814610076578063bff999be146100a6575b600080fd5b610060600480360381019061005b9190610533565b6100c2565b60405161006d91906105f1565b60405180910390f35b610090600480360381019061008b9190610533565b610148565b60405161009d91906105f1565b60405180910390f35b6100c060048036038101906100bb9190610573565b61016d565b005b60008060008473ffffffffffffffffffffffffffffffffffffffff1673ffffffffffffffffffffffffffffffffffffffff16815260200190815260200160002060008373ffffffffffffffffffffffffffffffffffffffff1673ffffffffffffffffffffffffffffffffffffffff16815260200190815260200160002054905092915050565b6000602052816000526040600020602052806000526040600020600091509150505481565b600081511161020d57816000803373ffffffffffffffffffffffffffffffffffffffff1673ffffffffffffffffffffffffffffffffffffffff16815260200190815260200160002060008573ffffffffffffffffffffffffffffffffffffffff1673ffffffffffffffffffffffffffffffffffffffff1681526020019081526020016000206000828254610201919061065d565b92505081905550610466565b816000808360008151811061022557610224610783565b5b602002602001015173ffffffffffffffffffffffffffffffffffffffff1673ffffffffffffffffffffffffffffffffffffffff16815260200190815260200160002060008360018151811061027d5761027c610783565b5b602002602001015173ffffffffffffffffffffffffffffffffffffffff1673ffffffffffffffffffffffffffffffffffffffff16815260200190815260200160002060008282546102ce91906106b3565b9250508190555081600080836001815181106102ed576102ec610783565b5b602002602001015173ffffffffffffffffffffffffffffffffffffffff1673ffffffffffffffffffffffffffffffffffffffff16815260200190815260200160002060008360028151811061034557610344610783565b5b602002602001015173ffffffffffffffffffffffffffffffffffffffff1673ffffffffffffffffffffffffffffffffffffffff168152602001908152602001600020600082825461039691906106b3565b9250508190555081600080836002815181106103b5576103b4610783565b5b602002602001015173ffffffffffffffffffffffffffffffffffffffff1673ffffffffffffffffffffffffffffffffffffffff16815260200190815260200160002060008360008151811061040d5761040c610783565b5b602002602001015173ffffffffffffffffffffffffffffffffffffffff1673ffffffffffffffffffffffffffffffffffffffff168152602001908152602001600020600082825461045e91906106b3565b925050819055505b505050565b600061047e61047984610631565b61060c565b905080838252602082019050828560208602820111156104a1576104a06107e6565b5b60005b858110156104d157816104b788826104db565b8452602084019350602083019250506001810190506104a4565b5050509392505050565b6000813590506104ea81610806565b92915050565b600082601f830112610505576105046107e1565b5b813561051584826020860161046b565b91505092915050565b60008135905061052d8161081d565b92915050565b6000806040838503121561054a576105496107f0565b5b6000610558858286016104db565b9250506020610569858286016104db565b9150509250929050565b60008060006060848603121561058c5761058b6107f0565b5b600061059a868287016104db565b93505060206105ab8682870161051e565b925050604084013567ffffffffffffffff8111156105cc576105cb6107eb565b5b6105d8868287016104f0565b9150509250925092565b6105eb81610719565b82525050565b600060208201905061060660008301846105e2565b92915050565b6000610616610627565b90506106228282610723565b919050565b6000604051905090565b600067ffffffffffffffff82111561064c5761064b6107b2565b5b602082029050602081019050919050565b600061066882610719565b915061067383610719565b9250827fffffffffffffffffffffffffffffffffffffffffffffffffffffffffffffffff038211156106a8576106a7610754565b5b828201905092915050565b60006106be82610719565b91506106c983610719565b9250828210156106dc576106db610754565b5b828203905092915050565b60006106f2826106f9565b9050919050565b600073ffffffffffffffffffffffffffffffffffffffff82169050919050565b6000819050919050565b61072c826107f5565b810181811067ffffffffffffffff8211171561074b5761074a6107b2565b5b80604052505050565b7f4e487b7100000000000000000000000000000000000000000000000000000000600052601160045260246000fd5b7f4e487b7100000000000000000000000000000000000000000000000000000000600052603260045260246000fd5b7f4e487b7100000000000000000000000000000000000000000000000000000000600052604160045260246000fd5b600080fd5b600080fd5b600080fd5b600080fd5b6000601f19601f8301169050919050565b61080f816106e7565b811461081a57600080fd5b50565b61082681610719565b811461083157600080fd5b5056fea2646970667358221220af9c299e9da861001e696f09c5a05141c45befaea645d2a81687d6f9a7a1eb6c64736f6c63430008070033",
					"opcodes": "PUSH1 0x80 PUSH1 0x40 MSTORE CALLVALUE DUP1 ISZERO PUSH2 0x10 JUMPI PUSH1 0x0 DUP1 REVERT JUMPDEST POP PUSH2 0x86A DUP1 PUSH2 0x20 PUSH1 0x0 CODECOPY PUSH1 0x0 RETURN INVALID PUSH1 0x80 PUSH1 0x40 MSTORE CALLVALUE DUP1 ISZERO PUSH2 0x10 JUMPI PUSH1 0x0 DUP1 REVERT JUMPDEST POP PUSH1 0x4 CALLDATASIZE LT PUSH2 0x41 JUMPI PUSH1 0x0 CALLDATALOAD PUSH1 0xE0 SHR DUP1 PUSH4 0x713584A6 EQ PUSH2 0x46 JUMPI DUP1 PUSH4 0x76609328 EQ PUSH2 0x76 JUMPI DUP1 PUSH4 0xBFF999BE EQ PUSH2 0xA6 JUMPI JUMPDEST PUSH1 0x0 DUP1 REVERT JUMPDEST PUSH2 0x60 PUSH1 0x4 DUP1 CALLDATASIZE SUB DUP2 ADD SWAP1 PUSH2 0x5B SWAP2 SWAP1 PUSH2 0x533 JUMP JUMPDEST PUSH2 0xC2 JUMP JUMPDEST PUSH1 0x40 MLOAD PUSH2 0x6D SWAP2 SWAP1 PUSH2 0x5F1 JUMP JUMPDEST PUSH1 0x40 MLOAD DUP1 SWAP2 SUB SWAP1 RETURN JUMPDEST PUSH2 0x90 PUSH1 0x4 DUP1 CALLDATASIZE SUB DUP2 ADD SWAP1 PUSH2 0x8B SWAP2 SWAP1 PUSH2 0x533 JUMP JUMPDEST PUSH2 0x148 JUMP JUMPDEST PUSH1 0x40 MLOAD PUSH2 0x9D SWAP2 SWAP1 PUSH2 0x5F1 JUMP JUMPDEST PUSH1 0x40 MLOAD DUP1 SWAP2 SUB SWAP1 RETURN JUMPDEST PUSH2 0xC0 PUSH1 0x4 DUP1 CALLDATASIZE SUB DUP2 ADD SWAP1 PUSH2 0xBB SWAP2 SWAP1 PUSH2 0x573 JUMP JUMPDEST PUSH2 0x16D JUMP JUMPDEST STOP JUMPDEST PUSH1 0x0 DUP1 PUSH1 0x0 DUP5 PUSH20 0xFFFFFFFFFFFFFFFFFFFFFFFFFFFFFFFFFFFFFFFF AND PUSH20 0xFFFFFFFFFFFFFFFFFFFFFFFFFFFFFFFFFFFFFFFF AND DUP2 MSTORE PUSH1 0x20 ADD SWAP1 DUP2 MSTORE PUSH1 0x20 ADD PUSH1 0x0 KECCAK256 PUSH1 0x0 DUP4 PUSH20 0xFFFFFFFFFFFFFFFFFFFFFFFFFFFFFFFFFFFFFFFF AND PUSH20 0xFFFFFFFFFFFFFFFFFFFFFFFFFFFFFFFFFFFFFFFF AND DUP2 MSTORE PUSH1 0x20 ADD SWAP1 DUP2 MSTORE PUSH1 0x20 ADD PUSH1 0x0 KECCAK256 SLOAD SWAP1 POP SWAP3 SWAP2 POP POP JUMP JUMPDEST PUSH1 0x0 PUSH1 0x20 MSTORE DUP2 PUSH1 0x0 MSTORE PUSH1 0x40 PUSH1 0x0 KECCAK256 PUSH1 0x20 MSTORE DUP1 PUSH1 0x0 MSTORE PUSH1 0x40 PUSH1 0x0 KECCAK256 PUSH1 0x0 SWAP2 POP SWAP2 POP POP SLOAD DUP2 JUMP JUMPDEST PUSH1 0x0 DUP2 MLOAD GT PUSH2 0x20D JUMPI DUP2 PUSH1 0x0 DUP1 CALLER PUSH20 0xFFFFFFFFFFFFFFFFFFFFFFFFFFFFFFFFFFFFFFFF AND PUSH20 0xFFFFFFFFFFFFFFFFFFFFFFFFFFFFFFFFFFFFFFFF AND DUP2 MSTORE PUSH1 0x20 ADD SWAP1 DUP2 MSTORE PUSH1 0x20 ADD PUSH1 0x0 KECCAK256 PUSH1 0x0 DUP6 PUSH20 0xFFFFFFFFFFFFFFFFFFFFFFFFFFFFFFFFFFFFFFFF AND PUSH20 0xFFFFFFFFFFFFFFFFFFFFFFFFFFFFFFFFFFFFFFFF AND DUP2 MSTORE PUSH1 0x20 ADD SWAP1 DUP2 MSTORE PUSH1 0x20 ADD PUSH1 0x0 KECCAK256 PUSH1 0x0 DUP3 DUP3 SLOAD PUSH2 0x201 SWAP2 SWAP1 PUSH2 0x65D JUMP JUMPDEST SWAP3 POP POP DUP2 SWAP1 SSTORE POP PUSH2 0x466 JUMP JUMPDEST DUP2 PUSH1 0x0 DUP1 DUP4 PUSH1 0x0 DUP2 MLOAD DUP2 LT PUSH2 0x225 JUMPI PUSH2 0x224 PUSH2 0x783 JUMP JUMPDEST JUMPDEST PUSH1 0x20 MUL PUSH1 0x20 ADD ADD MLOAD PUSH20 0xFFFFFFFFFFFFFFFFFFFFFFFFFFFFFFFFFFFFFFFF AND PUSH20 0xFFFFFFFFFFFFFFFFFFFFFFFFFFFFFFFFFFFFFFFF AND DUP2 MSTORE PUSH1 0x20 ADD SWAP1 DUP2 MSTORE PUSH1 0x20 ADD PUSH1 0x0 KECCAK256 PUSH1 0x0 DUP4 PUSH1 0x1 DUP2 MLOAD DUP2 LT PUSH2 0x27D JUMPI PUSH2 0x27C PUSH2 0x783 JUMP JUMPDEST JUMPDEST PUSH1 0x20 MUL PUSH1 0x20 ADD ADD MLOAD PUSH20 0xFFFFFFFFFFFFFFFFFFFFFFFFFFFFFFFFFFFFFFFF AND PUSH20 0xFFFFFFFFFFFFFFFFFFFFFFFFFFFFFFFFFFFFFFFF AND DUP2 MSTORE PUSH1 0x20 ADD SWAP1 DUP2 MSTORE PUSH1 0x20 ADD PUSH1 0x0 KECCAK256 PUSH1 0x0 DUP3 DUP3 SLOAD PUSH2 0x2CE SWAP2 SWAP1 PUSH2 0x6B3 JUMP JUMPDEST SWAP3 POP POP DUP2 SWAP1 SSTORE POP DUP2 PUSH1 0x0 DUP1 DUP4 PUSH1 0x1 DUP2 MLOAD DUP2 LT PUSH2 0x2ED JUMPI PUSH2 0x2EC PUSH2 0x783 JUMP JUMPDEST JUMPDEST PUSH1 0x20 MUL PUSH1 0x20 ADD ADD MLOAD PUSH20 0xFFFFFFFFFFFFFFFFFFFFFFFFFFFFFFFFFFFFFFFF AND PUSH20 0xFFFFFFFFFFFFFFFFFFFFFFFFFFFFFFFFFFFFFFFF AND DUP2 MSTORE PUSH1 0x20 ADD SWAP1 DUP2 MSTORE PUSH1 0x20 ADD PUSH1 0x0 KECCAK256 PUSH1 0x0 DUP4 PUSH1 0x2 DUP2 MLOAD DUP2 LT PUSH2 0x345 JUMPI PUSH2 0x344 PUSH2 0x783 JUMP JUMPDEST JUMPDEST PUSH1 0x20 MUL PUSH1 0x20 ADD ADD MLOAD PUSH20 0xFFFFFFFFFFFFFFFFFFFFFFFFFFFFFFFFFFFFFFFF AND PUSH20 0xFFFFFFFFFFFFFFFFFFFFFFFFFFFFFFFFFFFFFFFF AND DUP2 MSTORE PUSH1 0x20 ADD SWAP1 DUP2 MSTORE PUSH1 0x20 ADD PUSH1 0x0 KECCAK256 PUSH1 0x0 DUP3 DUP3 SLOAD PUSH2 0x396 SWAP2 SWAP1 PUSH2 0x6B3 JUMP JUMPDEST SWAP3 POP POP DUP2 SWAP1 SSTORE POP DUP2 PUSH1 0x0 DUP1 DUP4 PUSH1 0x2 DUP2 MLOAD DUP2 LT PUSH2 0x3B5 JUMPI PUSH2 0x3B4 PUSH2 0x783 JUMP JUMPDEST JUMPDEST PUSH1 0x20 MUL PUSH1 0x20 ADD ADD MLOAD PUSH20 0xFFFFFFFFFFFFFFFFFFFFFFFFFFFFFFFFFFFFFFFF AND PUSH20 0xFFFFFFFFFFFFFFFFFFFFFFFFFFFFFFFFFFFFFFFF AND DUP2 MSTORE PUSH1 0x20 ADD SWAP1 DUP2 MSTORE PUSH1 0x20 ADD PUSH1 0x0 KECCAK256 PUSH1 0x0 DUP4 PUSH1 0x0 DUP2 MLOAD DUP2 LT PUSH2 0x40D JUMPI PUSH2 0x40C PUSH2 0x783 JUMP JUMPDEST JUMPDEST PUSH1 0x20 MUL PUSH1 0x20 ADD ADD MLOAD PUSH20 0xFFFFFFFFFFFFFFFFFFFFFFFFFFFFFFFFFFFFFFFF AND PUSH20 0xFFFFFFFFFFFFFFFFFFFFFFFFFFFFFFFFFFFFFFFF AND DUP2 MSTORE PUSH1 0x20 ADD SWAP1 DUP2 MSTORE PUSH1 0x20 ADD PUSH1 0x0 KECCAK256 PUSH1 0x0 DUP3 DUP3 SLOAD PUSH2 0x45E SWAP2 SWAP1 PUSH2 0x6B3 JUMP JUMPDEST SWAP3 POP POP DUP2 SWAP1 SSTORE POP JUMPDEST POP POP POP JUMP JUMPDEST PUSH1 0x0 PUSH2 0x47E PUSH2 0x479 DUP5 PUSH2 0x631 JUMP JUMPDEST PUSH2 0x60C JUMP JUMPDEST SWAP1 POP DUP1 DUP4 DUP3 MSTORE PUSH1 0x20 DUP3 ADD SWAP1 POP DUP3 DUP6 PUSH1 0x20 DUP7 MUL DUP3 ADD GT ISZERO PUSH2 0x4A1 JUMPI PUSH2 0x4A0 PUSH2 0x7E6 JUMP JUMPDEST JUMPDEST PUSH1 0x0 JUMPDEST DUP6 DUP2 LT ISZERO PUSH2 0x4D1 JUMPI DUP2 PUSH2 0x4B7 DUP9 DUP3 PUSH2 0x4DB JUMP JUMPDEST DUP5 MSTORE PUSH1 0x20 DUP5 ADD SWAP4 POP PUSH1 0x20 DUP4 ADD SWAP3 POP POP PUSH1 0x1 DUP2 ADD SWAP1 POP PUSH2 0x4A4 JUMP JUMPDEST POP POP POP SWAP4 SWAP3 POP POP POP JUMP JUMPDEST PUSH1 0x0 DUP2 CALLDATALOAD SWAP1 POP PUSH2 0x4EA DUP2 PUSH2 0x806 JUMP JUMPDEST SWAP3 SWAP2 POP POP JUMP JUMPDEST PUSH1 0x0 DUP3 PUSH1 0x1F DUP4 ADD SLT PUSH2 0x505 JUMPI PUSH2 0x504 PUSH2 0x7E1 JUMP JUMPDEST JUMPDEST DUP2 CALLDATALOAD PUSH2 0x515 DUP5 DUP3 PUSH1 0x20 DUP7 ADD PUSH2 0x46B JUMP JUMPDEST SWAP2 POP POP SWAP3 SWAP2 POP POP JUMP JUMPDEST PUSH1 0x0 DUP2 CALLDATALOAD SWAP1 POP PUSH2 0x52D DUP2 PUSH2 0x81D JUMP JUMPDEST SWAP3 SWAP2 POP POP JUMP JUMPDEST PUSH1 0x0 DUP1 PUSH1 0x40 DUP4 DUP6 SUB SLT ISZERO PUSH2 0x54A JUMPI PUSH2 0x549 PUSH2 0x7F0 JUMP JUMPDEST JUMPDEST PUSH1 0x0 PUSH2 0x558 DUP6 DUP3 DUP7 ADD PUSH2 0x4DB JUMP JUMPDEST SWAP3 POP POP PUSH1 0x20 PUSH2 0x569 DUP6 DUP3 DUP7 ADD PUSH2 0x4DB JUMP JUMPDEST SWAP2 POP POP SWAP3 POP SWAP3 SWAP1 POP JUMP JUMPDEST PUSH1 0x0 DUP1 PUSH1 0x0 PUSH1 0x60 DUP5 DUP7 SUB SLT ISZERO PUSH2 0x58C JUMPI PUSH2 0x58B PUSH2 0x7F0 JUMP JUMPDEST JUMPDEST PUSH1 0x0 PUSH2 0x59A DUP7 DUP3 DUP8 ADD PUSH2 0x4DB JUMP JUMPDEST SWAP4 POP POP PUSH1 0x20 PUSH2 0x5AB DUP7 DUP3 DUP8 ADD PUSH2 0x51E JUMP JUMPDEST SWAP3 POP POP PUSH1 0x40 DUP5 ADD CALLDATALOAD PUSH8 0xFFFFFFFFFFFFFFFF DUP2 GT ISZERO PUSH2 0x5CC JUMPI PUSH2 0x5CB PUSH2 0x7EB JUMP JUMPDEST JUMPDEST PUSH2 0x5D8 DUP7 DUP3 DUP8 ADD PUSH2 0x4F0 JUMP JUMPDEST SWAP2 POP POP SWAP3 POP SWAP3 POP SWAP3 JUMP JUMPDEST PUSH2 0x5EB DUP2 PUSH2 0x719 JUMP JUMPDEST DUP3 MSTORE POP POP JUMP JUMPDEST PUSH1 0x0 PUSH1 0x20 DUP3 ADD SWAP1 POP PUSH2 0x606 PUSH1 0x0 DUP4 ADD DUP5 PUSH2 0x5E2 JUMP JUMPDEST SWAP3 SWAP2 POP POP JUMP JUMPDEST PUSH1 0x0 PUSH2 0x616 PUSH2 0x627 JUMP JUMPDEST SWAP1 POP PUSH2 0x622 DUP3 DUP3 PUSH2 0x723 JUMP JUMPDEST SWAP2 SWAP1 POP JUMP JUMPDEST PUSH1 0x0 PUSH1 0x40 MLOAD SWAP1 POP SWAP1 JUMP JUMPDEST PUSH1 0x0 PUSH8 0xFFFFFFFFFFFFFFFF DUP3 GT ISZERO PUSH2 0x64C JUMPI PUSH2 0x64B PUSH2 0x7B2 JUMP JUMPDEST JUMPDEST PUSH1 0x20 DUP3 MUL SWAP1 POP PUSH1 0x20 DUP2 ADD SWAP1 POP SWAP2 SWAP1 POP JUMP JUMPDEST PUSH1 0x0 PUSH2 0x668 DUP3 PUSH2 0x719 JUMP JUMPDEST SWAP2 POP PUSH2 0x673 DUP4 PUSH2 0x719 JUMP JUMPDEST SWAP3 POP DUP3 PUSH32 0xFFFFFFFFFFFFFFFFFFFFFFFFFFFFFFFFFFFFFFFFFFFFFFFFFFFFFFFFFFFFFFFF SUB DUP3 GT ISZERO PUSH2 0x6A8 JUMPI PUSH2 0x6A7 PUSH2 0x754 JUMP JUMPDEST JUMPDEST DUP3 DUP3 ADD SWAP1 POP SWAP3 SWAP2 POP POP JUMP JUMPDEST PUSH1 0x0 PUSH2 0x6BE DUP3 PUSH2 0x719 JUMP JUMPDEST SWAP2 POP PUSH2 0x6C9 DUP4 PUSH2 0x719 JUMP JUMPDEST SWAP3 POP DUP3 DUP3 LT ISZERO PUSH2 0x6DC JUMPI PUSH2 0x6DB PUSH2 0x754 JUMP JUMPDEST JUMPDEST DUP3 DUP3 SUB SWAP1 POP SWAP3 SWAP2 POP POP JUMP JUMPDEST PUSH1 0x0 PUSH2 0x6F2 DUP3 PUSH2 0x6F9 JUMP JUMPDEST SWAP1 POP SWAP2 SWAP1 POP JUMP JUMPDEST PUSH1 0x0 PUSH20 0xFFFFFFFFFFFFFFFFFFFFFFFFFFFFFFFFFFFFFFFF DUP3 AND SWAP1 POP SWAP2 SWAP1 POP JUMP JUMPDEST PUSH1 0x0 DUP2 SWAP1 POP SWAP2 SWAP1 POP JUMP JUMPDEST PUSH2 0x72C DUP3 PUSH2 0x7F5 JUMP JUMPDEST DUP2 ADD DUP2 DUP2 LT PUSH8 0xFFFFFFFFFFFFFFFF DUP3 GT OR ISZERO PUSH2 0x74B JUMPI PUSH2 0x74A PUSH2 0x7B2 JUMP JUMPDEST JUMPDEST DUP1 PUSH1 0x40 MSTORE POP POP POP JUMP JUMPDEST PUSH32 0x4E487B7100000000000000000000000000000000000000000000000000000000 PUSH1 0x0 MSTORE PUSH1 0x11 PUSH1 0x4 MSTORE PUSH1 0x24 PUSH1 0x0 REVERT JUMPDEST PUSH32 0x4E487B7100000000000000000000000000000000000000000000000000000000 PUSH1 0x0 MSTORE PUSH1 0x32 PUSH1 0x4 MSTORE PUSH1 0x24 PUSH1 0x0 REVERT JUMPDEST PUSH32 0x4E487B7100000000000000000000000000000000000000000000000000000000 PUSH1 0x0 MSTORE PUSH1 0x41 PUSH1 0x4 MSTORE PUSH1 0x24 PUSH1 0x0 REVERT JUMPDEST PUSH1 0x0 DUP1 REVERT JUMPDEST PUSH1 0x0 DUP1 REVERT JUMPDEST PUSH1 0x0 DUP1 REVERT JUMPDEST PUSH1 0x0 DUP1 REVERT JUMPDEST PUSH1 0x0 PUSH1 0x1F NOT PUSH1 0x1F DUP4 ADD AND SWAP1 POP SWAP2 SWAP1 POP JUMP JUMPDEST PUSH2 0x80F DUP2 PUSH2 0x6E7 JUMP JUMPDEST DUP2 EQ PUSH2 0x81A JUMPI PUSH1 0x0 DUP1 REVERT JUMPDEST POP JUMP JUMPDEST PUSH2 0x826 DUP2 PUSH2 0x719 JUMP JUMPDEST DUP2 EQ PUSH2 0x831 JUMPI PUSH1 0x0 DUP1 REVERT JUMPDEST POP JUMP INVALID LOG2 PUSH5 0x6970667358 0x22 SLT KECCAK256 0xAF SWAP13 0x29 SWAP15 SWAP14 0xA8 PUSH2 0x1E PUSH10 0x6F09C5A05141C45BEFAE 0xA6 GASLIMIT 0xD2 0xA8 AND DUP8 0xD6 0xF9 0xA7 LOG1 0xEB PUSH13 0x64736F6C634300080700330000 "
				},
				"gasEstimates": {
					"creation": {
						"codeDepositCost": "430800",
						"executionCost": "468",
						"totalCost": "431268"
					},
					"external": {
						"add_IOU(address,uint256,address[])": "infinite",
						"ious(address,address)": "infinite",
						"lookup(address,address)": "infinite"
					}
				},
				"methodIdentifiers": {
					"add_IOU(address,uint256,address[])": "bff999be",
					"ious(address,address)": "76609328",
					"lookup(address,address)": "713584a6"
				}
			},
			"storageLayout": {
				"storage": [
					{
						"astId": 8,
						"contract": "mycontract.sol:blockWise",
						"label": "ious",
						"offset": 0,
						"slot": "0",
						"type": "t_mapping(t_address,t_mapping(t_address,t_uint256))"
					}
				],
				"types": {
					"t_address": {
						"encoding": "inplace",
						"label": "address",
						"numberOfBytes": "20"
					},
					"t_mapping(t_address,t_mapping(t_address,t_uint256))": {
						"encoding": "mapping",
						"key": "t_address",
						"label": "mapping(address => mapping(address => uint256))",
						"numberOfBytes": "32",
						"value": "t_mapping(t_address,t_uint256)"
					},
					"t_mapping(t_address,t_uint256)": {
						"encoding": "mapping",
						"key": "t_address",
						"label": "mapping(address => uint256)",
						"numberOfBytes": "32",
						"value": "t_uint256"
					},
					"t_uint256": {
						"encoding": "inplace",
						"label": "uint256",
						"numberOfBytes": "32"
					}
				}
			},
			"userdoc": {
				"kind": "user",
				"methods": {},
				"version": 1
			}
		}
	}
}