{
	"mycontract.sol": {
		"blockWise": {
			"abi": [
				{
					"inputs": [
						{
							"internalType": "address",
							"name": "_creditor",
							"type": "address"
						},
						{
							"internalType": "uint256",
							"name": "_iou",
							"type": "uint256"
						},
						{
							"internalType": "address[3]",
							"name": "cycle",
							"type": "address[3]"
						}
					],
					"name": "add_IOU",
					"outputs": [],
					"stateMutability": "nonpayable",
					"type": "function"
				},
				{
					"inputs": [
						{
							"internalType": "address",
							"name": "_debtor",
							"type": "address"
						},
						{
							"internalType": "address",
							"name": "_creditor",
							"type": "address"
						}
					],
					"name": "lookup",
					"outputs": [
						{
							"internalType": "uint256",
							"name": "",
							"type": "uint256"
						}
					],
					"stateMutability": "view",
					"type": "function"
				}
			],
			"devdoc": {
				"kind": "dev",
				"methods": {},
				"version": 1
			},
			"evm": {
				"assembly": "    /* \"mycontract.sol\":363:922  contract blockWise {... */\n  mstore(0x40, 0x80)\n  callvalue\n  dup1\n  iszero\n  tag_1\n  jumpi\n  0x00\n  dup1\n  revert\ntag_1:\n  pop\n  dataSize(sub_0)\n  dup1\n  dataOffset(sub_0)\n  0x00\n  codecopy\n  0x00\n  return\nstop\n\nsub_0: assembly {\n        /* \"mycontract.sol\":363:922  contract blockWise {... */\n      mstore(0x40, 0x80)\n      callvalue\n      dup1\n      iszero\n      tag_1\n      jumpi\n      0x00\n      dup1\n      revert\n    tag_1:\n      pop\n      jumpi(tag_2, lt(calldatasize, 0x04))\n      shr(0xe0, calldataload(0x00))\n      dup1\n      0x713584a6\n      eq\n      tag_3\n      jumpi\n      dup1\n      0x91356fa6\n      eq\n      tag_4\n      jumpi\n    tag_2:\n      0x00\n      dup1\n      revert\n        /* \"mycontract.sol\":792:919  function lookup(address _debtor, address _creditor) public view returns (uint) {... */\n    tag_3:\n      tag_5\n      0x04\n      dup1\n      calldatasize\n      sub\n      dup2\n      add\n      swap1\n      tag_6\n      swap2\n      swap1\n      tag_7\n      jump\t// in\n    tag_6:\n      tag_8\n      jump\t// in\n    tag_5:\n      mload(0x40)\n      tag_9\n      swap2\n      swap1\n      tag_10\n      jump\t// in\n    tag_9:\n      mload(0x40)\n      dup1\n      swap2\n      sub\n      swap1\n      return\n        /* \"mycontract.sol\":453:786  function add_IOU(address _creditor, uint _iou, address[3] memory cycle) public {... */\n    tag_4:\n      tag_11\n      0x04\n      dup1\n      calldatasize\n      sub\n      dup2\n      add\n      swap1\n      tag_12\n      swap2\n      swap1\n      tag_13\n      jump\t// in\n    tag_12:\n      tag_14\n      jump\t// in\n    tag_11:\n      stop\n        /* \"mycontract.sol\":792:919  function lookup(address _debtor, address _creditor) public view returns (uint) {... */\n    tag_8:\n        /* \"mycontract.sol\":865:869  uint */\n      0x00\n        /* \"mycontract.sol\":888:892  ious */\n      dup1\n        /* \"mycontract.sol\":888:901  ious[_debtor] */\n      0x00\n        /* \"mycontract.sol\":893:900  _debtor */\n      dup5\n        /* \"mycontract.sol\":888:901  ious[_debtor] */\n      0xffffffffffffffffffffffffffffffffffffffff\n      and\n      0xffffffffffffffffffffffffffffffffffffffff\n      and\n      dup2\n      mstore\n      0x20\n      add\n      swap1\n      dup2\n      mstore\n      0x20\n      add\n      0x00\n      keccak256\n        /* \"mycontract.sol\":888:912  ious[_debtor][_creditor] */\n      0x00\n        /* \"mycontract.sol\":902:911  _creditor */\n      dup4\n        /* \"mycontract.sol\":888:912  ious[_debtor][_creditor] */\n      0xffffffffffffffffffffffffffffffffffffffff\n      and\n      0xffffffffffffffffffffffffffffffffffffffff\n      and\n      dup2\n      mstore\n      0x20\n      add\n      swap1\n      dup2\n      mstore\n      0x20\n      add\n      0x00\n      keccak256\n      sload\n        /* \"mycontract.sol\":881:912  return ious[_debtor][_creditor] */\n      swap1\n      pop\n        /* \"mycontract.sol\":792:919  function lookup(address _debtor, address _creditor) public view returns (uint) {... */\n      swap3\n      swap2\n      pop\n      pop\n      jump\t// out\n        /* \"mycontract.sol\":453:786  function add_IOU(address _creditor, uint _iou, address[3] memory cycle) public {... */\n    tag_14:\n        /* \"mycontract.sol\":562:563  0 */\n      0x00\n        /* \"mycontract.sol\":546:558  cycle.length */\n      0x03\n        /* \"mycontract.sol\":546:563  cycle.length <= 0 */\n      gt\n        /* \"mycontract.sol\":542:780  if (cycle.length <= 0) {... */\n      tag_17\n      jumpi\n        /* \"mycontract.sol\":610:614  _iou */\n      dup2\n        /* \"mycontract.sol\":579:583  ious */\n      0x00\n        /* \"mycontract.sol\":579:595  ious[msg.sender] */\n      dup1\n        /* \"mycontract.sol\":584:594  msg.sender */\n      caller\n        /* \"mycontract.sol\":579:595  ious[msg.sender] */\n      0xffffffffffffffffffffffffffffffffffffffff\n      and\n      0xffffffffffffffffffffffffffffffffffffffff\n      and\n      dup2\n      mstore\n      0x20\n      add\n      swap1\n      dup2\n      mstore\n      0x20\n      add\n      0x00\n      keccak256\n        /* \"mycontract.sol\":579:606  ious[msg.sender][_creditor] */\n      0x00\n        /* \"mycontract.sol\":596:605  _creditor */\n      dup6\n        /* \"mycontract.sol\":579:606  ious[msg.sender][_creditor] */\n      0xffffffffffffffffffffffffffffffffffffffff\n      and\n      0xffffffffffffffffffffffffffffffffffffffff\n      and\n      dup2\n      mstore\n      0x20\n      add\n      swap1\n      dup2\n      mstore\n      0x20\n      add\n      0x00\n      keccak256\n      0x00\n        /* \"mycontract.sol\":579:614  ious[msg.sender][_creditor] += _iou */\n      dup3\n      dup3\n      sload\n      tag_18\n      swap2\n      swap1\n      tag_19\n      jump\t// in\n    tag_18:\n      swap3\n      pop\n      pop\n      dup2\n      swap1\n      sstore\n      pop\n        /* \"mycontract.sol\":542:780  if (cycle.length <= 0) {... */\n      jump(tag_20)\n    tag_17:\n        /* \"mycontract.sol\":673:677  _iou */\n      dup2\n        /* \"mycontract.sol\":645:649  ious */\n      0x00\n        /* \"mycontract.sol\":645:659  ious[cycle[0]] */\n      dup1\n        /* \"mycontract.sol\":650:655  cycle */\n      dup4\n        /* \"mycontract.sol\":656:657  0 */\n      0x00\n        /* \"mycontract.sol\":650:658  cycle[0] */\n      0x03\n      dup2\n      lt\n      tag_21\n      jumpi\n      tag_22\n      tag_23\n      jump\t// in\n    tag_22:\n    tag_21:\n      0x20\n      mul\n      add\n      mload\n        /* \"mycontract.sol\":645:659  ious[cycle[0]] */\n      0xffffffffffffffffffffffffffffffffffffffff\n      and\n      0xffffffffffffffffffffffffffffffffffffffff\n      and\n      dup2\n      mstore\n      0x20\n      add\n      swap1\n      dup2\n      mstore\n      0x20\n      add\n      0x00\n      keccak256\n        /* \"mycontract.sol\":645:669  ious[cycle[0]][cycle[1]] */\n      0x00\n        /* \"mycontract.sol\":660:665  cycle */\n      dup4\n        /* \"mycontract.sol\":666:667  1 */\n      0x01\n        /* \"mycontract.sol\":660:668  cycle[1] */\n      0x03\n      dup2\n      lt\n      tag_24\n      jumpi\n      tag_25\n      tag_23\n      jump\t// in\n    tag_25:\n    tag_24:\n      0x20\n      mul\n      add\n      mload\n        /* \"mycontract.sol\":645:669  ious[cycle[0]][cycle[1]] */\n      0xffffffffffffffffffffffffffffffffffffffff\n      and\n      0xffffffffffffffffffffffffffffffffffffffff\n      and\n      dup2\n      mstore\n      0x20\n      add\n      swap1\n      dup2\n      mstore\n      0x20\n      add\n      0x00\n      keccak256\n      0x00\n        /* \"mycontract.sol\":645:677  ious[cycle[0]][cycle[1]] -= _iou */\n      dup3\n      dup3\n      sload\n      tag_26\n      swap2\n      swap1\n      tag_27\n      jump\t// in\n    tag_26:\n      swap3\n      pop\n      pop\n      dup2\n      swap1\n      sstore\n      pop\n        /* \"mycontract.sol\":719:723  _iou */\n      dup2\n        /* \"mycontract.sol\":691:695  ious */\n      0x00\n        /* \"mycontract.sol\":691:705  ious[cycle[1]] */\n      dup1\n        /* \"mycontract.sol\":696:701  cycle */\n      dup4\n        /* \"mycontract.sol\":702:703  1 */\n      0x01\n        /* \"mycontract.sol\":696:704  cycle[1] */\n      0x03\n      dup2\n      lt\n      tag_28\n      jumpi\n      tag_29\n      tag_23\n      jump\t// in\n    tag_29:\n    tag_28:\n      0x20\n      mul\n      add\n      mload\n        /* \"mycontract.sol\":691:705  ious[cycle[1]] */\n      0xffffffffffffffffffffffffffffffffffffffff\n      and\n      0xffffffffffffffffffffffffffffffffffffffff\n      and\n      dup2\n      mstore\n      0x20\n      add\n      swap1\n      dup2\n      mstore\n      0x20\n      add\n      0x00\n      keccak256\n        /* \"mycontract.sol\":691:715  ious[cycle[1]][cycle[2]] */\n      0x00\n        /* \"mycontract.sol\":706:711  cycle */\n      dup4\n        /* \"mycontract.sol\":712:713  2 */\n      0x02\n        /* \"mycontract.sol\":706:714  cycle[2] */\n      0x03\n      dup2\n      lt\n      tag_30\n      jumpi\n      tag_31\n      tag_23\n      jump\t// in\n    tag_31:\n    tag_30:\n      0x20\n      mul\n      add\n      mload\n        /* \"mycontract.sol\":691:715  ious[cycle[1]][cycle[2]] */\n      0xffffffffffffffffffffffffffffffffffffffff\n      and\n      0xffffffffffffffffffffffffffffffffffffffff\n      and\n      dup2\n      mstore\n      0x20\n      add\n      swap1\n      dup2\n      mstore\n      0x20\n      add\n      0x00\n      keccak256\n      0x00\n        /* \"mycontract.sol\":691:723  ious[cycle[1]][cycle[2]] -= _iou */\n      dup3\n      dup3\n      sload\n      tag_32\n      swap2\n      swap1\n      tag_27\n      jump\t// in\n    tag_32:\n      swap3\n      pop\n      pop\n      dup2\n      swap1\n      sstore\n      pop\n        /* \"mycontract.sol\":765:769  _iou */\n      dup2\n        /* \"mycontract.sol\":737:741  ious */\n      0x00\n        /* \"mycontract.sol\":737:751  ious[cycle[2]] */\n      dup1\n        /* \"mycontract.sol\":742:747  cycle */\n      dup4\n        /* \"mycontract.sol\":748:749  2 */\n      0x02\n        /* \"mycontract.sol\":742:750  cycle[2] */\n      0x03\n      dup2\n      lt\n      tag_33\n      jumpi\n      tag_34\n      tag_23\n      jump\t// in\n    tag_34:\n    tag_33:\n      0x20\n      mul\n      add\n      mload\n        /* \"mycontract.sol\":737:751  ious[cycle[2]] */\n      0xffffffffffffffffffffffffffffffffffffffff\n      and\n      0xffffffffffffffffffffffffffffffffffffffff\n      and\n      dup2\n      mstore\n      0x20\n      add\n      swap1\n      dup2\n      mstore\n      0x20\n      add\n      0x00\n      keccak256\n        /* \"mycontract.sol\":737:761  ious[cycle[2]][cycle[0]] */\n      0x00\n        /* \"mycontract.sol\":752:757  cycle */\n      dup4\n        /* \"mycontract.sol\":758:759  0 */\n      0x00\n        /* \"mycontract.sol\":752:760  cycle[0] */\n      0x03\n      dup2\n      lt\n      tag_35\n      jumpi\n      tag_36\n      tag_23\n      jump\t// in\n    tag_36:\n    tag_35:\n      0x20\n      mul\n      add\n      mload\n        /* \"mycontract.sol\":737:761  ious[cycle[2]][cycle[0]] */\n      0xffffffffffffffffffffffffffffffffffffffff\n      and\n      0xffffffffffffffffffffffffffffffffffffffff\n      and\n      dup2\n      mstore\n      0x20\n      add\n      swap1\n      dup2\n      mstore\n      0x20\n      add\n      0x00\n      keccak256\n      0x00\n        /* \"mycontract.sol\":737:769  ious[cycle[2]][cycle[0]] -= _iou */\n      dup3\n      dup3\n      sload\n      tag_37\n      swap2\n      swap1\n      tag_27\n      jump\t// in\n    tag_37:\n      swap3\n      pop\n      pop\n      dup2\n      swap1\n      sstore\n      pop\n        /* \"mycontract.sol\":542:780  if (cycle.length <= 0) {... */\n    tag_20:\n        /* \"mycontract.sol\":453:786  function add_IOU(address _creditor, uint _iou, address[3] memory cycle) public {... */\n      pop\n      pop\n      pop\n      jump\t// out\n        /* \"#utility.yul\":25:680   */\n    tag_39:\n        /* \"#utility.yul\":119:124   */\n      0x00\n        /* \"#utility.yul\":144:223   */\n      tag_41\n        /* \"#utility.yul\":160:222   */\n      tag_42\n        /* \"#utility.yul\":215:221   */\n      dup5\n        /* \"#utility.yul\":160:222   */\n      tag_43\n      jump\t// in\n    tag_42:\n        /* \"#utility.yul\":144:223   */\n      tag_44\n      jump\t// in\n    tag_41:\n        /* \"#utility.yul\":135:223   */\n      swap1\n      pop\n        /* \"#utility.yul\":243:248   */\n      dup1\n        /* \"#utility.yul\":269:275   */\n      dup3\n        /* \"#utility.yul\":319:322   */\n      dup6\n        /* \"#utility.yul\":311:315   */\n      0x20\n        /* \"#utility.yul\":303:309   */\n      dup7\n        /* \"#utility.yul\":299:316   */\n      mul\n        /* \"#utility.yul\":294:297   */\n      dup3\n        /* \"#utility.yul\":290:317   */\n      add\n        /* \"#utility.yul\":287:323   */\n      gt\n        /* \"#utility.yul\":284:427   */\n      iszero\n      tag_45\n      jumpi\n        /* \"#utility.yul\":338:417   */\n      tag_46\n      tag_47\n      jump\t// in\n    tag_46:\n        /* \"#utility.yul\":284:427   */\n    tag_45:\n        /* \"#utility.yul\":451:452   */\n      0x00\n        /* \"#utility.yul\":436:674   */\n    tag_48:\n        /* \"#utility.yul\":461:467   */\n      dup6\n        /* \"#utility.yul\":458:459   */\n      dup2\n        /* \"#utility.yul\":455:468   */\n      lt\n        /* \"#utility.yul\":436:674   */\n      iszero\n      tag_50\n      jumpi\n        /* \"#utility.yul\":529:532   */\n      dup2\n        /* \"#utility.yul\":558:595   */\n      tag_51\n        /* \"#utility.yul\":591:594   */\n      dup9\n        /* \"#utility.yul\":579:589   */\n      dup3\n        /* \"#utility.yul\":558:595   */\n      tag_52\n      jump\t// in\n    tag_51:\n        /* \"#utility.yul\":553:556   */\n      dup5\n        /* \"#utility.yul\":546:596   */\n      mstore\n        /* \"#utility.yul\":625:629   */\n      0x20\n        /* \"#utility.yul\":620:623   */\n      dup5\n        /* \"#utility.yul\":616:630   */\n      add\n        /* \"#utility.yul\":609:630   */\n      swap4\n      pop\n        /* \"#utility.yul\":659:663   */\n      0x20\n        /* \"#utility.yul\":654:657   */\n      dup4\n        /* \"#utility.yul\":650:664   */\n      add\n        /* \"#utility.yul\":643:664   */\n      swap3\n      pop\n        /* \"#utility.yul\":496:674   */\n      pop\n        /* \"#utility.yul\":483:484   */\n      0x01\n        /* \"#utility.yul\":480:481   */\n      dup2\n        /* \"#utility.yul\":476:485   */\n      add\n        /* \"#utility.yul\":471:485   */\n      swap1\n      pop\n        /* \"#utility.yul\":436:674   */\n      jump(tag_48)\n    tag_50:\n        /* \"#utility.yul\":440:454   */\n      pop\n        /* \"#utility.yul\":125:680   */\n      pop\n      pop\n        /* \"#utility.yul\":25:680   */\n      swap4\n      swap3\n      pop\n      pop\n      pop\n      jump\t// out\n        /* \"#utility.yul\":686:825   */\n    tag_52:\n        /* \"#utility.yul\":732:737   */\n      0x00\n        /* \"#utility.yul\":770:776   */\n      dup2\n        /* \"#utility.yul\":757:777   */\n      calldataload\n        /* \"#utility.yul\":748:777   */\n      swap1\n      pop\n        /* \"#utility.yul\":786:819   */\n      tag_54\n        /* \"#utility.yul\":813:818   */\n      dup2\n        /* \"#utility.yul\":786:819   */\n      tag_55\n      jump\t// in\n    tag_54:\n        /* \"#utility.yul\":686:825   */\n      swap3\n      swap2\n      pop\n      pop\n      jump\t// out\n        /* \"#utility.yul\":849:1188   */\n    tag_56:\n        /* \"#utility.yul\":918:923   */\n      0x00\n        /* \"#utility.yul\":967:970   */\n      dup3\n        /* \"#utility.yul\":960:964   */\n      0x1f\n        /* \"#utility.yul\":952:958   */\n      dup4\n        /* \"#utility.yul\":948:965   */\n      add\n        /* \"#utility.yul\":944:971   */\n      slt\n        /* \"#utility.yul\":934:1056   */\n      tag_58\n      jumpi\n        /* \"#utility.yul\":975:1054   */\n      tag_59\n      tag_60\n      jump\t// in\n    tag_59:\n        /* \"#utility.yul\":934:1056   */\n    tag_58:\n        /* \"#utility.yul\":1079:1083   */\n      0x03\n        /* \"#utility.yul\":1101:1182   */\n      tag_61\n        /* \"#utility.yul\":1178:1181   */\n      dup5\n        /* \"#utility.yul\":1170:1176   */\n      dup3\n        /* \"#utility.yul\":1162:1168   */\n      dup6\n        /* \"#utility.yul\":1101:1182   */\n      tag_39\n      jump\t// in\n    tag_61:\n        /* \"#utility.yul\":1092:1182   */\n      swap2\n      pop\n        /* \"#utility.yul\":924:1188   */\n      pop\n        /* \"#utility.yul\":849:1188   */\n      swap3\n      swap2\n      pop\n      pop\n      jump\t// out\n        /* \"#utility.yul\":1194:1333   */\n    tag_62:\n        /* \"#utility.yul\":1240:1245   */\n      0x00\n        /* \"#utility.yul\":1278:1284   */\n      dup2\n        /* \"#utility.yul\":1265:1285   */\n      calldataload\n        /* \"#utility.yul\":1256:1285   */\n      swap1\n      pop\n        /* \"#utility.yul\":1294:1327   */\n      tag_64\n        /* \"#utility.yul\":1321:1326   */\n      dup2\n        /* \"#utility.yul\":1294:1327   */\n      tag_65\n      jump\t// in\n    tag_64:\n        /* \"#utility.yul\":1194:1333   */\n      swap3\n      swap2\n      pop\n      pop\n      jump\t// out\n        /* \"#utility.yul\":1339:1813   */\n    tag_7:\n        /* \"#utility.yul\":1407:1413   */\n      0x00\n        /* \"#utility.yul\":1415:1421   */\n      dup1\n        /* \"#utility.yul\":1464:1466   */\n      0x40\n        /* \"#utility.yul\":1452:1461   */\n      dup4\n        /* \"#utility.yul\":1443:1450   */\n      dup6\n        /* \"#utility.yul\":1439:1462   */\n      sub\n        /* \"#utility.yul\":1435:1467   */\n      slt\n        /* \"#utility.yul\":1432:1551   */\n      iszero\n      tag_67\n      jumpi\n        /* \"#utility.yul\":1470:1549   */\n      tag_68\n      tag_69\n      jump\t// in\n    tag_68:\n        /* \"#utility.yul\":1432:1551   */\n    tag_67:\n        /* \"#utility.yul\":1590:1591   */\n      0x00\n        /* \"#utility.yul\":1615:1668   */\n      tag_70\n        /* \"#utility.yul\":1660:1667   */\n      dup6\n        /* \"#utility.yul\":1651:1657   */\n      dup3\n        /* \"#utility.yul\":1640:1649   */\n      dup7\n        /* \"#utility.yul\":1636:1658   */\n      add\n        /* \"#utility.yul\":1615:1668   */\n      tag_52\n      jump\t// in\n    tag_70:\n        /* \"#utility.yul\":1605:1668   */\n      swap3\n      pop\n        /* \"#utility.yul\":1561:1678   */\n      pop\n        /* \"#utility.yul\":1717:1719   */\n      0x20\n        /* \"#utility.yul\":1743:1796   */\n      tag_71\n        /* \"#utility.yul\":1788:1795   */\n      dup6\n        /* \"#utility.yul\":1779:1785   */\n      dup3\n        /* \"#utility.yul\":1768:1777   */\n      dup7\n        /* \"#utility.yul\":1764:1786   */\n      add\n        /* \"#utility.yul\":1743:1796   */\n      tag_52\n      jump\t// in\n    tag_71:\n        /* \"#utility.yul\":1733:1796   */\n      swap2\n      pop\n        /* \"#utility.yul\":1688:1806   */\n      pop\n        /* \"#utility.yul\":1339:1813   */\n      swap3\n      pop\n      swap3\n      swap1\n      pop\n      jump\t// out\n        /* \"#utility.yul\":1819:2485   */\n    tag_13:\n        /* \"#utility.yul\":1919:1925   */\n      0x00\n        /* \"#utility.yul\":1927:1933   */\n      dup1\n        /* \"#utility.yul\":1935:1941   */\n      0x00\n        /* \"#utility.yul\":1984:1987   */\n      0xa0\n        /* \"#utility.yul\":1972:1981   */\n      dup5\n        /* \"#utility.yul\":1963:1970   */\n      dup7\n        /* \"#utility.yul\":1959:1982   */\n      sub\n        /* \"#utility.yul\":1955:1988   */\n      slt\n        /* \"#utility.yul\":1952:2072   */\n      iszero\n      tag_73\n      jumpi\n        /* \"#utility.yul\":1991:2070   */\n      tag_74\n      tag_69\n      jump\t// in\n    tag_74:\n        /* \"#utility.yul\":1952:2072   */\n    tag_73:\n        /* \"#utility.yul\":2111:2112   */\n      0x00\n        /* \"#utility.yul\":2136:2189   */\n      tag_75\n        /* \"#utility.yul\":2181:2188   */\n      dup7\n        /* \"#utility.yul\":2172:2178   */\n      dup3\n        /* \"#utility.yul\":2161:2170   */\n      dup8\n        /* \"#utility.yul\":2157:2179   */\n      add\n        /* \"#utility.yul\":2136:2189   */\n      tag_52\n      jump\t// in\n    tag_75:\n        /* \"#utility.yul\":2126:2189   */\n      swap4\n      pop\n        /* \"#utility.yul\":2082:2199   */\n      pop\n        /* \"#utility.yul\":2238:2240   */\n      0x20\n        /* \"#utility.yul\":2264:2317   */\n      tag_76\n        /* \"#utility.yul\":2309:2316   */\n      dup7\n        /* \"#utility.yul\":2300:2306   */\n      dup3\n        /* \"#utility.yul\":2289:2298   */\n      dup8\n        /* \"#utility.yul\":2285:2307   */\n      add\n        /* \"#utility.yul\":2264:2317   */\n      tag_62\n      jump\t// in\n    tag_76:\n        /* \"#utility.yul\":2254:2317   */\n      swap3\n      pop\n        /* \"#utility.yul\":2209:2327   */\n      pop\n        /* \"#utility.yul\":2366:2368   */\n      0x40\n        /* \"#utility.yul\":2392:2468   */\n      tag_77\n        /* \"#utility.yul\":2460:2467   */\n      dup7\n        /* \"#utility.yul\":2451:2457   */\n      dup3\n        /* \"#utility.yul\":2440:2449   */\n      dup8\n        /* \"#utility.yul\":2436:2458   */\n      add\n        /* \"#utility.yul\":2392:2468   */\n      tag_56\n      jump\t// in\n    tag_77:\n        /* \"#utility.yul\":2382:2468   */\n      swap2\n      pop\n        /* \"#utility.yul\":2337:2478   */\n      pop\n        /* \"#utility.yul\":1819:2485   */\n      swap3\n      pop\n      swap3\n      pop\n      swap3\n      jump\t// out\n        /* \"#utility.yul\":2491:2609   */\n    tag_78:\n        /* \"#utility.yul\":2578:2602   */\n      tag_80\n        /* \"#utility.yul\":2596:2601   */\n      dup2\n        /* \"#utility.yul\":2578:2602   */\n      tag_81\n      jump\t// in\n    tag_80:\n        /* \"#utility.yul\":2573:2576   */\n      dup3\n        /* \"#utility.yul\":2566:2603   */\n      mstore\n        /* \"#utility.yul\":2491:2609   */\n      pop\n      pop\n      jump\t// out\n        /* \"#utility.yul\":2615:2837   */\n    tag_10:\n        /* \"#utility.yul\":2708:2712   */\n      0x00\n        /* \"#utility.yul\":2746:2748   */\n      0x20\n        /* \"#utility.yul\":2735:2744   */\n      dup3\n        /* \"#utility.yul\":2731:2749   */\n      add\n        /* \"#utility.yul\":2723:2749   */\n      swap1\n      pop\n        /* \"#utility.yul\":2759:2830   */\n      tag_83\n        /* \"#utility.yul\":2827:2828   */\n      0x00\n        /* \"#utility.yul\":2816:2825   */\n      dup4\n        /* \"#utility.yul\":2812:2829   */\n      add\n        /* \"#utility.yul\":2803:2809   */\n      dup5\n        /* \"#utility.yul\":2759:2830   */\n      tag_78\n      jump\t// in\n    tag_83:\n        /* \"#utility.yul\":2615:2837   */\n      swap3\n      swap2\n      pop\n      pop\n      jump\t// out\n        /* \"#utility.yul\":2843:2972   */\n    tag_44:\n        /* \"#utility.yul\":2877:2883   */\n      0x00\n        /* \"#utility.yul\":2904:2924   */\n      tag_85\n      tag_86\n      jump\t// in\n    tag_85:\n        /* \"#utility.yul\":2894:2924   */\n      swap1\n      pop\n        /* \"#utility.yul\":2933:2966   */\n      tag_87\n        /* \"#utility.yul\":2961:2965   */\n      dup3\n        /* \"#utility.yul\":2953:2959   */\n      dup3\n        /* \"#utility.yul\":2933:2966   */\n      tag_88\n      jump\t// in\n    tag_87:\n        /* \"#utility.yul\":2843:2972   */\n      swap2\n      swap1\n      pop\n      jump\t// out\n        /* \"#utility.yul\":2978:3053   */\n    tag_86:\n        /* \"#utility.yul\":3011:3017   */\n      0x00\n        /* \"#utility.yul\":3044:3046   */\n      0x40\n        /* \"#utility.yul\":3038:3047   */\n      mload\n        /* \"#utility.yul\":3028:3047   */\n      swap1\n      pop\n        /* \"#utility.yul\":2978:3053   */\n      swap1\n      jump\t// out\n        /* \"#utility.yul\":3059:3308   */\n    tag_43:\n        /* \"#utility.yul\":3134:3138   */\n      0x00\n        /* \"#utility.yul\":3224:3242   */\n      0xffffffffffffffff\n        /* \"#utility.yul\":3216:3222   */\n      dup3\n        /* \"#utility.yul\":3213:3243   */\n      gt\n        /* \"#utility.yul\":3210:3266   */\n      iszero\n      tag_91\n      jumpi\n        /* \"#utility.yul\":3246:3264   */\n      tag_92\n      tag_93\n      jump\t// in\n    tag_92:\n        /* \"#utility.yul\":3210:3266   */\n    tag_91:\n        /* \"#utility.yul\":3296:3300   */\n      0x20\n        /* \"#utility.yul\":3288:3294   */\n      dup3\n        /* \"#utility.yul\":3284:3301   */\n      mul\n        /* \"#utility.yul\":3276:3301   */\n      swap1\n      pop\n        /* \"#utility.yul\":3059:3308   */\n      swap2\n      swap1\n      pop\n      jump\t// out\n        /* \"#utility.yul\":3314:3619   */\n    tag_19:\n        /* \"#utility.yul\":3354:3357   */\n      0x00\n        /* \"#utility.yul\":3373:3393   */\n      tag_95\n        /* \"#utility.yul\":3391:3392   */\n      dup3\n        /* \"#utility.yul\":3373:3393   */\n      tag_81\n      jump\t// in\n    tag_95:\n        /* \"#utility.yul\":3368:3393   */\n      swap2\n      pop\n        /* \"#utility.yul\":3407:3427   */\n      tag_96\n        /* \"#utility.yul\":3425:3426   */\n      dup4\n        /* \"#utility.yul\":3407:3427   */\n      tag_81\n      jump\t// in\n    tag_96:\n        /* \"#utility.yul\":3402:3427   */\n      swap3\n      pop\n        /* \"#utility.yul\":3561:3562   */\n      dup3\n        /* \"#utility.yul\":3493:3559   */\n      0xffffffffffffffffffffffffffffffffffffffffffffffffffffffffffffffff\n        /* \"#utility.yul\":3489:3563   */\n      sub\n        /* \"#utility.yul\":3486:3487   */\n      dup3\n        /* \"#utility.yul\":3483:3564   */\n      gt\n        /* \"#utility.yul\":3480:3587   */\n      iszero\n      tag_97\n      jumpi\n        /* \"#utility.yul\":3567:3585   */\n      tag_98\n      tag_99\n      jump\t// in\n    tag_98:\n        /* \"#utility.yul\":3480:3587   */\n    tag_97:\n        /* \"#utility.yul\":3611:3612   */\n      dup3\n        /* \"#utility.yul\":3608:3609   */\n      dup3\n        /* \"#utility.yul\":3604:3613   */\n      add\n        /* \"#utility.yul\":3597:3613   */\n      swap1\n      pop\n        /* \"#utility.yul\":3314:3619   */\n      swap3\n      swap2\n      pop\n      pop\n      jump\t// out\n        /* \"#utility.yul\":3625:3816   */\n    tag_27:\n        /* \"#utility.yul\":3665:3669   */\n      0x00\n        /* \"#utility.yul\":3685:3705   */\n      tag_101\n        /* \"#utility.yul\":3703:3704   */\n      dup3\n        /* \"#utility.yul\":3685:3705   */\n      tag_81\n      jump\t// in\n    tag_101:\n        /* \"#utility.yul\":3680:3705   */\n      swap2\n      pop\n        /* \"#utility.yul\":3719:3739   */\n      tag_102\n        /* \"#utility.yul\":3737:3738   */\n      dup4\n        /* \"#utility.yul\":3719:3739   */\n      tag_81\n      jump\t// in\n    tag_102:\n        /* \"#utility.yul\":3714:3739   */\n      swap3\n      pop\n        /* \"#utility.yul\":3758:3759   */\n      dup3\n        /* \"#utility.yul\":3755:3756   */\n      dup3\n        /* \"#utility.yul\":3752:3760   */\n      lt\n        /* \"#utility.yul\":3749:3783   */\n      iszero\n      tag_103\n      jumpi\n        /* \"#utility.yul\":3763:3781   */\n      tag_104\n      tag_99\n      jump\t// in\n    tag_104:\n        /* \"#utility.yul\":3749:3783   */\n    tag_103:\n        /* \"#utility.yul\":3808:3809   */\n      dup3\n        /* \"#utility.yul\":3805:3806   */\n      dup3\n        /* \"#utility.yul\":3801:3810   */\n      sub\n        /* \"#utility.yul\":3793:3810   */\n      swap1\n      pop\n        /* \"#utility.yul\":3625:3816   */\n      swap3\n      swap2\n      pop\n      pop\n      jump\t// out\n        /* \"#utility.yul\":3822:3918   */\n    tag_105:\n        /* \"#utility.yul\":3859:3866   */\n      0x00\n        /* \"#utility.yul\":3888:3912   */\n      tag_107\n        /* \"#utility.yul\":3906:3911   */\n      dup3\n        /* \"#utility.yul\":3888:3912   */\n      tag_108\n      jump\t// in\n    tag_107:\n        /* \"#utility.yul\":3877:3912   */\n      swap1\n      pop\n        /* \"#utility.yul\":3822:3918   */\n      swap2\n      swap1\n      pop\n      jump\t// out\n        /* \"#utility.yul\":3924:4050   */\n    tag_108:\n        /* \"#utility.yul\":3961:3968   */\n      0x00\n        /* \"#utility.yul\":4001:4043   */\n      0xffffffffffffffffffffffffffffffffffffffff\n        /* \"#utility.yul\":3994:3999   */\n      dup3\n        /* \"#utility.yul\":3990:4044   */\n      and\n        /* \"#utility.yul\":3979:4044   */\n      swap1\n      pop\n        /* \"#utility.yul\":3924:4050   */\n      swap2\n      swap1\n      pop\n      jump\t// out\n        /* \"#utility.yul\":4056:4133   */\n    tag_81:\n        /* \"#utility.yul\":4093:4100   */\n      0x00\n        /* \"#utility.yul\":4122:4127   */\n      dup2\n        /* \"#utility.yul\":4111:4127   */\n      swap1\n      pop\n        /* \"#utility.yul\":4056:4133   */\n      swap2\n      swap1\n      pop\n      jump\t// out\n        /* \"#utility.yul\":4139:4420   */\n    tag_88:\n        /* \"#utility.yul\":4222:4249   */\n      tag_112\n        /* \"#utility.yul\":4244:4248   */\n      dup3\n        /* \"#utility.yul\":4222:4249   */\n      tag_113\n      jump\t// in\n    tag_112:\n        /* \"#utility.yul\":4214:4220   */\n      dup2\n        /* \"#utility.yul\":4210:4250   */\n      add\n        /* \"#utility.yul\":4352:4358   */\n      dup2\n        /* \"#utility.yul\":4340:4350   */\n      dup2\n        /* \"#utility.yul\":4337:4359   */\n      lt\n        /* \"#utility.yul\":4316:4334   */\n      0xffffffffffffffff\n        /* \"#utility.yul\":4304:4314   */\n      dup3\n        /* \"#utility.yul\":4301:4335   */\n      gt\n        /* \"#utility.yul\":4298:4360   */\n      or\n        /* \"#utility.yul\":4295:4383   */\n      iszero\n      tag_114\n      jumpi\n        /* \"#utility.yul\":4363:4381   */\n      tag_115\n      tag_93\n      jump\t// in\n    tag_115:\n        /* \"#utility.yul\":4295:4383   */\n    tag_114:\n        /* \"#utility.yul\":4403:4413   */\n      dup1\n        /* \"#utility.yul\":4399:4401   */\n      0x40\n        /* \"#utility.yul\":4392:4414   */\n      mstore\n        /* \"#utility.yul\":4182:4420   */\n      pop\n        /* \"#utility.yul\":4139:4420   */\n      pop\n      pop\n      jump\t// out\n        /* \"#utility.yul\":4426:4606   */\n    tag_99:\n        /* \"#utility.yul\":4474:4551   */\n      0x4e487b7100000000000000000000000000000000000000000000000000000000\n        /* \"#utility.yul\":4471:4472   */\n      0x00\n        /* \"#utility.yul\":4464:4552   */\n      mstore\n        /* \"#utility.yul\":4571:4575   */\n      0x11\n        /* \"#utility.yul\":4568:4569   */\n      0x04\n        /* \"#utility.yul\":4561:4576   */\n      mstore\n        /* \"#utility.yul\":4595:4599   */\n      0x24\n        /* \"#utility.yul\":4592:4593   */\n      0x00\n        /* \"#utility.yul\":4585:4600   */\n      revert\n        /* \"#utility.yul\":4612:4792   */\n    tag_23:\n        /* \"#utility.yul\":4660:4737   */\n      0x4e487b7100000000000000000000000000000000000000000000000000000000\n        /* \"#utility.yul\":4657:4658   */\n      0x00\n        /* \"#utility.yul\":4650:4738   */\n      mstore\n        /* \"#utility.yul\":4757:4761   */\n      0x32\n        /* \"#utility.yul\":4754:4755   */\n      0x04\n        /* \"#utility.yul\":4747:4762   */\n      mstore\n        /* \"#utility.yul\":4781:4785   */\n      0x24\n        /* \"#utility.yul\":4778:4779   */\n      0x00\n        /* \"#utility.yul\":4771:4786   */\n      revert\n        /* \"#utility.yul\":4798:4978   */\n    tag_93:\n        /* \"#utility.yul\":4846:4923   */\n      0x4e487b7100000000000000000000000000000000000000000000000000000000\n        /* \"#utility.yul\":4843:4844   */\n      0x00\n        /* \"#utility.yul\":4836:4924   */\n      mstore\n        /* \"#utility.yul\":4943:4947   */\n      0x41\n        /* \"#utility.yul\":4940:4941   */\n      0x04\n        /* \"#utility.yul\":4933:4948   */\n      mstore\n        /* \"#utility.yul\":4967:4971   */\n      0x24\n        /* \"#utility.yul\":4964:4965   */\n      0x00\n        /* \"#utility.yul\":4957:4972   */\n      revert\n        /* \"#utility.yul\":4984:5101   */\n    tag_60:\n        /* \"#utility.yul\":5093:5094   */\n      0x00\n        /* \"#utility.yul\":5090:5091   */\n      dup1\n        /* \"#utility.yul\":5083:5095   */\n      revert\n        /* \"#utility.yul\":5107:5224   */\n    tag_47:\n        /* \"#utility.yul\":5216:5217   */\n      0x00\n        /* \"#utility.yul\":5213:5214   */\n      dup1\n        /* \"#utility.yul\":5206:5218   */\n      revert\n        /* \"#utility.yul\":5353:5470   */\n    tag_69:\n        /* \"#utility.yul\":5462:5463   */\n      0x00\n        /* \"#utility.yul\":5459:5460   */\n      dup1\n        /* \"#utility.yul\":5452:5464   */\n      revert\n        /* \"#utility.yul\":5476:5578   */\n    tag_113:\n        /* \"#utility.yul\":5517:5523   */\n      0x00\n        /* \"#utility.yul\":5568:5570   */\n      0x1f\n        /* \"#utility.yul\":5564:5571   */\n      not\n        /* \"#utility.yul\":5559:5561   */\n      0x1f\n        /* \"#utility.yul\":5552:5557   */\n      dup4\n        /* \"#utility.yul\":5548:5562   */\n      add\n        /* \"#utility.yul\":5544:5572   */\n      and\n        /* \"#utility.yul\":5534:5572   */\n      swap1\n      pop\n        /* \"#utility.yul\":5476:5578   */\n      swap2\n      swap1\n      pop\n      jump\t// out\n        /* \"#utility.yul\":5584:5706   */\n    tag_55:\n        /* \"#utility.yul\":5657:5681   */\n      tag_126\n        /* \"#utility.yul\":5675:5680   */\n      dup2\n        /* \"#utility.yul\":5657:5681   */\n      tag_105\n      jump\t// in\n    tag_126:\n        /* \"#utility.yul\":5650:5655   */\n      dup2\n        /* \"#utility.yul\":5647:5682   */\n      eq\n        /* \"#utility.yul\":5637:5700   */\n      tag_127\n      jumpi\n        /* \"#utility.yul\":5696:5697   */\n      0x00\n        /* \"#utility.yul\":5693:5694   */\n      dup1\n        /* \"#utility.yul\":5686:5698   */\n      revert\n        /* \"#utility.yul\":5637:5700   */\n    tag_127:\n        /* \"#utility.yul\":5584:5706   */\n      pop\n      jump\t// out\n        /* \"#utility.yul\":5712:5834   */\n    tag_65:\n        /* \"#utility.yul\":5785:5809   */\n      tag_129\n        /* \"#utility.yul\":5803:5808   */\n      dup2\n        /* \"#utility.yul\":5785:5809   */\n      tag_81\n      jump\t// in\n    tag_129:\n        /* \"#utility.yul\":5778:5783   */\n      dup2\n        /* \"#utility.yul\":5775:5810   */\n      eq\n        /* \"#utility.yul\":5765:5828   */\n      tag_130\n      jumpi\n        /* \"#utility.yul\":5824:5825   */\n      0x00\n        /* \"#utility.yul\":5821:5822   */\n      dup1\n        /* \"#utility.yul\":5814:5826   */\n      revert\n        /* \"#utility.yul\":5765:5828   */\n    tag_130:\n        /* \"#utility.yul\":5712:5834   */\n      pop\n      jump\t// out\n\n    auxdata: 0xa264697066735822122039bdb6b6bee9b0dc2485682ce53a92d3bc1e6d4f6ee131967b197701bbc4b26964736f6c63430008070033\n}\n",
				"bytecode": {
					"linkReferences": {},
					"object": "608060405234801561001057600080fd5b506107c5806100206000396000f3fe608060405234801561001057600080fd5b50600436106100365760003560e01c8063713584a61461003b57806391356fa61461006b575b600080fd5b610055600480360381019061005091906104b5565b610087565b6040516100629190610557565b60405180910390f35b610085600480360381019061008091906104f5565b61010d565b005b60008060008473ffffffffffffffffffffffffffffffffffffffff1673ffffffffffffffffffffffffffffffffffffffff16815260200190815260200160002060008373ffffffffffffffffffffffffffffffffffffffff1673ffffffffffffffffffffffffffffffffffffffff16815260200190815260200160002054905092915050565b60006003116101ad57816000803373ffffffffffffffffffffffffffffffffffffffff1673ffffffffffffffffffffffffffffffffffffffff16815260200190815260200160002060008573ffffffffffffffffffffffffffffffffffffffff1673ffffffffffffffffffffffffffffffffffffffff16815260200190815260200160002060008282546101a191906105bd565b925050819055506103f4565b81600080836000600381106101c5576101c46106e3565b5b602002015173ffffffffffffffffffffffffffffffffffffffff1673ffffffffffffffffffffffffffffffffffffffff16815260200190815260200160002060008360016003811061021a576102196106e3565b5b602002015173ffffffffffffffffffffffffffffffffffffffff1673ffffffffffffffffffffffffffffffffffffffff16815260200190815260200160002060008282546102689190610613565b925050819055508160008083600160038110610287576102866106e3565b5b602002015173ffffffffffffffffffffffffffffffffffffffff1673ffffffffffffffffffffffffffffffffffffffff1681526020019081526020016000206000836002600381106102dc576102db6106e3565b5b602002015173ffffffffffffffffffffffffffffffffffffffff1673ffffffffffffffffffffffffffffffffffffffff168152602001908152602001600020600082825461032a9190610613565b925050819055508160008083600260038110610349576103486106e3565b5b602002015173ffffffffffffffffffffffffffffffffffffffff1673ffffffffffffffffffffffffffffffffffffffff16815260200190815260200160002060008360006003811061039e5761039d6106e3565b5b602002015173ffffffffffffffffffffffffffffffffffffffff1673ffffffffffffffffffffffffffffffffffffffff16815260200190815260200160002060008282546103ec9190610613565b925050819055505b505050565b600061040c61040784610597565b610572565b9050808285602086028201111561042657610425610746565b5b60005b85811015610456578161043c8882610460565b845260208401935060208301925050600181019050610429565b5050509392505050565b60008135905061046f81610761565b92915050565b600082601f83011261048a57610489610741565b5b60036104978482856103f9565b91505092915050565b6000813590506104af81610778565b92915050565b600080604083850312156104cc576104cb61074b565b5b60006104da85828601610460565b92505060206104eb85828601610460565b9150509250929050565b600080600060a0848603121561050e5761050d61074b565b5b600061051c86828701610460565b935050602061052d868287016104a0565b925050604061053e86828701610475565b9150509250925092565b61055181610679565b82525050565b600060208201905061056c6000830184610548565b92915050565b600061057c61058d565b90506105888282610683565b919050565b6000604051905090565b600067ffffffffffffffff8211156105b2576105b1610712565b5b602082029050919050565b60006105c882610679565b91506105d383610679565b9250827fffffffffffffffffffffffffffffffffffffffffffffffffffffffffffffffff03821115610608576106076106b4565b5b828201905092915050565b600061061e82610679565b915061062983610679565b92508282101561063c5761063b6106b4565b5b828203905092915050565b600061065282610659565b9050919050565b600073ffffffffffffffffffffffffffffffffffffffff82169050919050565b6000819050919050565b61068c82610750565b810181811067ffffffffffffffff821117156106ab576106aa610712565b5b80604052505050565b7f4e487b7100000000000000000000000000000000000000000000000000000000600052601160045260246000fd5b7f4e487b7100000000000000000000000000000000000000000000000000000000600052603260045260246000fd5b7f4e487b7100000000000000000000000000000000000000000000000000000000600052604160045260246000fd5b600080fd5b600080fd5b600080fd5b6000601f19601f8301169050919050565b61076a81610647565b811461077557600080fd5b50565b61078181610679565b811461078c57600080fd5b5056fea264697066735822122039bdb6b6bee9b0dc2485682ce53a92d3bc1e6d4f6ee131967b197701bbc4b26964736f6c63430008070033",
					"opcodes": "PUSH1 0x80 PUSH1 0x40 MSTORE CALLVALUE DUP1 ISZERO PUSH2 0x10 JUMPI PUSH1 0x0 DUP1 REVERT JUMPDEST POP PUSH2 0x7C5 DUP1 PUSH2 0x20 PUSH1 0x0 CODECOPY PUSH1 0x0 RETURN INVALID PUSH1 0x80 PUSH1 0x40 MSTORE CALLVALUE DUP1 ISZERO PUSH2 0x10 JUMPI PUSH1 0x0 DUP1 REVERT JUMPDEST POP PUSH1 0x4 CALLDATASIZE LT PUSH2 0x36 JUMPI PUSH1 0x0 CALLDATALOAD PUSH1 0xE0 SHR DUP1 PUSH4 0x713584A6 EQ PUSH2 0x3B JUMPI DUP1 PUSH4 0x91356FA6 EQ PUSH2 0x6B JUMPI JUMPDEST PUSH1 0x0 DUP1 REVERT JUMPDEST PUSH2 0x55 PUSH1 0x4 DUP1 CALLDATASIZE SUB DUP2 ADD SWAP1 PUSH2 0x50 SWAP2 SWAP1 PUSH2 0x4B5 JUMP JUMPDEST PUSH2 0x87 JUMP JUMPDEST PUSH1 0x40 MLOAD PUSH2 0x62 SWAP2 SWAP1 PUSH2 0x557 JUMP JUMPDEST PUSH1 0x40 MLOAD DUP1 SWAP2 SUB SWAP1 RETURN JUMPDEST PUSH2 0x85 PUSH1 0x4 DUP1 CALLDATASIZE SUB DUP2 ADD SWAP1 PUSH2 0x80 SWAP2 SWAP1 PUSH2 0x4F5 JUMP JUMPDEST PUSH2 0x10D JUMP JUMPDEST STOP JUMPDEST PUSH1 0x0 DUP1 PUSH1 0x0 DUP5 PUSH20 0xFFFFFFFFFFFFFFFFFFFFFFFFFFFFFFFFFFFFFFFF AND PUSH20 0xFFFFFFFFFFFFFFFFFFFFFFFFFFFFFFFFFFFFFFFF AND DUP2 MSTORE PUSH1 0x20 ADD SWAP1 DUP2 MSTORE PUSH1 0x20 ADD PUSH1 0x0 KECCAK256 PUSH1 0x0 DUP4 PUSH20 0xFFFFFFFFFFFFFFFFFFFFFFFFFFFFFFFFFFFFFFFF AND PUSH20 0xFFFFFFFFFFFFFFFFFFFFFFFFFFFFFFFFFFFFFFFF AND DUP2 MSTORE PUSH1 0x20 ADD SWAP1 DUP2 MSTORE PUSH1 0x20 ADD PUSH1 0x0 KECCAK256 SLOAD SWAP1 POP SWAP3 SWAP2 POP POP JUMP JUMPDEST PUSH1 0x0 PUSH1 0x3 GT PUSH2 0x1AD JUMPI DUP2 PUSH1 0x0 DUP1 CALLER PUSH20 0xFFFFFFFFFFFFFFFFFFFFFFFFFFFFFFFFFFFFFFFF AND PUSH20 0xFFFFFFFFFFFFFFFFFFFFFFFFFFFFFFFFFFFFFFFF AND DUP2 MSTORE PUSH1 0x20 ADD SWAP1 DUP2 MSTORE PUSH1 0x20 ADD PUSH1 0x0 KECCAK256 PUSH1 0x0 DUP6 PUSH20 0xFFFFFFFFFFFFFFFFFFFFFFFFFFFFFFFFFFFFFFFF AND PUSH20 0xFFFFFFFFFFFFFFFFFFFFFFFFFFFFFFFFFFFFFFFF AND DUP2 MSTORE PUSH1 0x20 ADD SWAP1 DUP2 MSTORE PUSH1 0x20 ADD PUSH1 0x0 KECCAK256 PUSH1 0x0 DUP3 DUP3 SLOAD PUSH2 0x1A1 SWAP2 SWAP1 PUSH2 0x5BD JUMP JUMPDEST SWAP3 POP POP DUP2 SWAP1 SSTORE POP PUSH2 0x3F4 JUMP JUMPDEST DUP2 PUSH1 0x0 DUP1 DUP4 PUSH1 0x0 PUSH1 0x3 DUP2 LT PUSH2 0x1C5 JUMPI PUSH2 0x1C4 PUSH2 0x6E3 JUMP JUMPDEST JUMPDEST PUSH1 0x20 MUL ADD MLOAD PUSH20 0xFFFFFFFFFFFFFFFFFFFFFFFFFFFFFFFFFFFFFFFF AND PUSH20 0xFFFFFFFFFFFFFFFFFFFFFFFFFFFFFFFFFFFFFFFF AND DUP2 MSTORE PUSH1 0x20 ADD SWAP1 DUP2 MSTORE PUSH1 0x20 ADD PUSH1 0x0 KECCAK256 PUSH1 0x0 DUP4 PUSH1 0x1 PUSH1 0x3 DUP2 LT PUSH2 0x21A JUMPI PUSH2 0x219 PUSH2 0x6E3 JUMP JUMPDEST JUMPDEST PUSH1 0x20 MUL ADD MLOAD PUSH20 0xFFFFFFFFFFFFFFFFFFFFFFFFFFFFFFFFFFFFFFFF AND PUSH20 0xFFFFFFFFFFFFFFFFFFFFFFFFFFFFFFFFFFFFFFFF AND DUP2 MSTORE PUSH1 0x20 ADD SWAP1 DUP2 MSTORE PUSH1 0x20 ADD PUSH1 0x0 KECCAK256 PUSH1 0x0 DUP3 DUP3 SLOAD PUSH2 0x268 SWAP2 SWAP1 PUSH2 0x613 JUMP JUMPDEST SWAP3 POP POP DUP2 SWAP1 SSTORE POP DUP2 PUSH1 0x0 DUP1 DUP4 PUSH1 0x1 PUSH1 0x3 DUP2 LT PUSH2 0x287 JUMPI PUSH2 0x286 PUSH2 0x6E3 JUMP JUMPDEST JUMPDEST PUSH1 0x20 MUL ADD MLOAD PUSH20 0xFFFFFFFFFFFFFFFFFFFFFFFFFFFFFFFFFFFFFFFF AND PUSH20 0xFFFFFFFFFFFFFFFFFFFFFFFFFFFFFFFFFFFFFFFF AND DUP2 MSTORE PUSH1 0x20 ADD SWAP1 DUP2 MSTORE PUSH1 0x20 ADD PUSH1 0x0 KECCAK256 PUSH1 0x0 DUP4 PUSH1 0x2 PUSH1 0x3 DUP2 LT PUSH2 0x2DC JUMPI PUSH2 0x2DB PUSH2 0x6E3 JUMP JUMPDEST JUMPDEST PUSH1 0x20 MUL ADD MLOAD PUSH20 0xFFFFFFFFFFFFFFFFFFFFFFFFFFFFFFFFFFFFFFFF AND PUSH20 0xFFFFFFFFFFFFFFFFFFFFFFFFFFFFFFFFFFFFFFFF AND DUP2 MSTORE PUSH1 0x20 ADD SWAP1 DUP2 MSTORE PUSH1 0x20 ADD PUSH1 0x0 KECCAK256 PUSH1 0x0 DUP3 DUP3 SLOAD PUSH2 0x32A SWAP2 SWAP1 PUSH2 0x613 JUMP JUMPDEST SWAP3 POP POP DUP2 SWAP1 SSTORE POP DUP2 PUSH1 0x0 DUP1 DUP4 PUSH1 0x2 PUSH1 0x3 DUP2 LT PUSH2 0x349 JUMPI PUSH2 0x348 PUSH2 0x6E3 JUMP JUMPDEST JUMPDEST PUSH1 0x20 MUL ADD MLOAD PUSH20 0xFFFFFFFFFFFFFFFFFFFFFFFFFFFFFFFFFFFFFFFF AND PUSH20 0xFFFFFFFFFFFFFFFFFFFFFFFFFFFFFFFFFFFFFFFF AND DUP2 MSTORE PUSH1 0x20 ADD SWAP1 DUP2 MSTORE PUSH1 0x20 ADD PUSH1 0x0 KECCAK256 PUSH1 0x0 DUP4 PUSH1 0x0 PUSH1 0x3 DUP2 LT PUSH2 0x39E JUMPI PUSH2 0x39D PUSH2 0x6E3 JUMP JUMPDEST JUMPDEST PUSH1 0x20 MUL ADD MLOAD PUSH20 0xFFFFFFFFFFFFFFFFFFFFFFFFFFFFFFFFFFFFFFFF AND PUSH20 0xFFFFFFFFFFFFFFFFFFFFFFFFFFFFFFFFFFFFFFFF AND DUP2 MSTORE PUSH1 0x20 ADD SWAP1 DUP2 MSTORE PUSH1 0x20 ADD PUSH1 0x0 KECCAK256 PUSH1 0x0 DUP3 DUP3 SLOAD PUSH2 0x3EC SWAP2 SWAP1 PUSH2 0x613 JUMP JUMPDEST SWAP3 POP POP DUP2 SWAP1 SSTORE POP JUMPDEST POP POP POP JUMP JUMPDEST PUSH1 0x0 PUSH2 0x40C PUSH2 0x407 DUP5 PUSH2 0x597 JUMP JUMPDEST PUSH2 0x572 JUMP JUMPDEST SWAP1 POP DUP1 DUP3 DUP6 PUSH1 0x20 DUP7 MUL DUP3 ADD GT ISZERO PUSH2 0x426 JUMPI PUSH2 0x425 PUSH2 0x746 JUMP JUMPDEST JUMPDEST PUSH1 0x0 JUMPDEST DUP6 DUP2 LT ISZERO PUSH2 0x456 JUMPI DUP2 PUSH2 0x43C DUP9 DUP3 PUSH2 0x460 JUMP JUMPDEST DUP5 MSTORE PUSH1 0x20 DUP5 ADD SWAP4 POP PUSH1 0x20 DUP4 ADD SWAP3 POP POP PUSH1 0x1 DUP2 ADD SWAP1 POP PUSH2 0x429 JUMP JUMPDEST POP POP POP SWAP4 SWAP3 POP POP POP JUMP JUMPDEST PUSH1 0x0 DUP2 CALLDATALOAD SWAP1 POP PUSH2 0x46F DUP2 PUSH2 0x761 JUMP JUMPDEST SWAP3 SWAP2 POP POP JUMP JUMPDEST PUSH1 0x0 DUP3 PUSH1 0x1F DUP4 ADD SLT PUSH2 0x48A JUMPI PUSH2 0x489 PUSH2 0x741 JUMP JUMPDEST JUMPDEST PUSH1 0x3 PUSH2 0x497 DUP5 DUP3 DUP6 PUSH2 0x3F9 JUMP JUMPDEST SWAP2 POP POP SWAP3 SWAP2 POP POP JUMP JUMPDEST PUSH1 0x0 DUP2 CALLDATALOAD SWAP1 POP PUSH2 0x4AF DUP2 PUSH2 0x778 JUMP JUMPDEST SWAP3 SWAP2 POP POP JUMP JUMPDEST PUSH1 0x0 DUP1 PUSH1 0x40 DUP4 DUP6 SUB SLT ISZERO PUSH2 0x4CC JUMPI PUSH2 0x4CB PUSH2 0x74B JUMP JUMPDEST JUMPDEST PUSH1 0x0 PUSH2 0x4DA DUP6 DUP3 DUP7 ADD PUSH2 0x460 JUMP JUMPDEST SWAP3 POP POP PUSH1 0x20 PUSH2 0x4EB DUP6 DUP3 DUP7 ADD PUSH2 0x460 JUMP JUMPDEST SWAP2 POP POP SWAP3 POP SWAP3 SWAP1 POP JUMP JUMPDEST PUSH1 0x0 DUP1 PUSH1 0x0 PUSH1 0xA0 DUP5 DUP7 SUB SLT ISZERO PUSH2 0x50E JUMPI PUSH2 0x50D PUSH2 0x74B JUMP JUMPDEST JUMPDEST PUSH1 0x0 PUSH2 0x51C DUP7 DUP3 DUP8 ADD PUSH2 0x460 JUMP JUMPDEST SWAP4 POP POP PUSH1 0x20 PUSH2 0x52D DUP7 DUP3 DUP8 ADD PUSH2 0x4A0 JUMP JUMPDEST SWAP3 POP POP PUSH1 0x40 PUSH2 0x53E DUP7 DUP3 DUP8 ADD PUSH2 0x475 JUMP JUMPDEST SWAP2 POP POP SWAP3 POP SWAP3 POP SWAP3 JUMP JUMPDEST PUSH2 0x551 DUP2 PUSH2 0x679 JUMP JUMPDEST DUP3 MSTORE POP POP JUMP JUMPDEST PUSH1 0x0 PUSH1 0x20 DUP3 ADD SWAP1 POP PUSH2 0x56C PUSH1 0x0 DUP4 ADD DUP5 PUSH2 0x548 JUMP JUMPDEST SWAP3 SWAP2 POP POP JUMP JUMPDEST PUSH1 0x0 PUSH2 0x57C PUSH2 0x58D JUMP JUMPDEST SWAP1 POP PUSH2 0x588 DUP3 DUP3 PUSH2 0x683 JUMP JUMPDEST SWAP2 SWAP1 POP JUMP JUMPDEST PUSH1 0x0 PUSH1 0x40 MLOAD SWAP1 POP SWAP1 JUMP JUMPDEST PUSH1 0x0 PUSH8 0xFFFFFFFFFFFFFFFF DUP3 GT ISZERO PUSH2 0x5B2 JUMPI PUSH2 0x5B1 PUSH2 0x712 JUMP JUMPDEST JUMPDEST PUSH1 0x20 DUP3 MUL SWAP1 POP SWAP2 SWAP1 POP JUMP JUMPDEST PUSH1 0x0 PUSH2 0x5C8 DUP3 PUSH2 0x679 JUMP JUMPDEST SWAP2 POP PUSH2 0x5D3 DUP4 PUSH2 0x679 JUMP JUMPDEST SWAP3 POP DUP3 PUSH32 0xFFFFFFFFFFFFFFFFFFFFFFFFFFFFFFFFFFFFFFFFFFFFFFFFFFFFFFFFFFFFFFFF SUB DUP3 GT ISZERO PUSH2 0x608 JUMPI PUSH2 0x607 PUSH2 0x6B4 JUMP JUMPDEST JUMPDEST DUP3 DUP3 ADD SWAP1 POP SWAP3 SWAP2 POP POP JUMP JUMPDEST PUSH1 0x0 PUSH2 0x61E DUP3 PUSH2 0x679 JUMP JUMPDEST SWAP2 POP PUSH2 0x629 DUP4 PUSH2 0x679 JUMP JUMPDEST SWAP3 POP DUP3 DUP3 LT ISZERO PUSH2 0x63C JUMPI PUSH2 0x63B PUSH2 0x6B4 JUMP JUMPDEST JUMPDEST DUP3 DUP3 SUB SWAP1 POP SWAP3 SWAP2 POP POP JUMP JUMPDEST PUSH1 0x0 PUSH2 0x652 DUP3 PUSH2 0x659 JUMP JUMPDEST SWAP1 POP SWAP2 SWAP1 POP JUMP JUMPDEST PUSH1 0x0 PUSH20 0xFFFFFFFFFFFFFFFFFFFFFFFFFFFFFFFFFFFFFFFF DUP3 AND SWAP1 POP SWAP2 SWAP1 POP JUMP JUMPDEST PUSH1 0x0 DUP2 SWAP1 POP SWAP2 SWAP1 POP JUMP JUMPDEST PUSH2 0x68C DUP3 PUSH2 0x750 JUMP JUMPDEST DUP2 ADD DUP2 DUP2 LT PUSH8 0xFFFFFFFFFFFFFFFF DUP3 GT OR ISZERO PUSH2 0x6AB JUMPI PUSH2 0x6AA PUSH2 0x712 JUMP JUMPDEST JUMPDEST DUP1 PUSH1 0x40 MSTORE POP POP POP JUMP JUMPDEST PUSH32 0x4E487B7100000000000000000000000000000000000000000000000000000000 PUSH1 0x0 MSTORE PUSH1 0x11 PUSH1 0x4 MSTORE PUSH1 0x24 PUSH1 0x0 REVERT JUMPDEST PUSH32 0x4E487B7100000000000000000000000000000000000000000000000000000000 PUSH1 0x0 MSTORE PUSH1 0x32 PUSH1 0x4 MSTORE PUSH1 0x24 PUSH1 0x0 REVERT JUMPDEST PUSH32 0x4E487B7100000000000000000000000000000000000000000000000000000000 PUSH1 0x0 MSTORE PUSH1 0x41 PUSH1 0x4 MSTORE PUSH1 0x24 PUSH1 0x0 REVERT JUMPDEST PUSH1 0x0 DUP1 REVERT JUMPDEST PUSH1 0x0 DUP1 REVERT JUMPDEST PUSH1 0x0 DUP1 REVERT JUMPDEST PUSH1 0x0 PUSH1 0x1F NOT PUSH1 0x1F DUP4 ADD AND SWAP1 POP SWAP2 SWAP1 POP JUMP JUMPDEST PUSH2 0x76A DUP2 PUSH2 0x647 JUMP JUMPDEST DUP2 EQ PUSH2 0x775 JUMPI PUSH1 0x0 DUP1 REVERT JUMPDEST POP JUMP JUMPDEST PUSH2 0x781 DUP2 PUSH2 0x679 JUMP JUMPDEST DUP2 EQ PUSH2 0x78C JUMPI PUSH1 0x0 DUP1 REVERT JUMPDEST POP JUMP INVALID LOG2 PUSH5 0x6970667358 0x22 SLT KECCAK256 CODECOPY 0xBD 0xB6 0xB6 0xBE 0xE9 0xB0 0xDC 0x24 DUP6 PUSH9 0x2CE53A92D3BC1E6D4F PUSH15 0xE131967B197701BBC4B26964736F6C PUSH4 0x43000807 STOP CALLER "
				},
				"gasEstimates": {
					"creation": {
						"codeDepositCost": "397800",
						"executionCost": "436",
						"totalCost": "398236"
					},
					"external": {
						"add_IOU(address,uint256,address[3])": "infinite",
						"lookup(address,address)": "infinite"
					}
				},
				"methodIdentifiers": {
					"add_IOU(address,uint256,address[3])": "91356fa6",
					"lookup(address,address)": "713584a6"
				}
			},
			"storageLayout": {
				"storage": [
					{
						"astId": 8,
						"contract": "mycontract.sol:blockWise",
						"label": "ious",
						"offset": 0,
						"slot": "0",
						"type": "t_mapping(t_address,t_mapping(t_address,t_uint256))"
					}
				],
				"types": {
					"t_address": {
						"encoding": "inplace",
						"label": "address",
						"numberOfBytes": "20"
					},
					"t_mapping(t_address,t_mapping(t_address,t_uint256))": {
						"encoding": "mapping",
						"key": "t_address",
						"label": "mapping(address => mapping(address => uint256))",
						"numberOfBytes": "32",
						"value": "t_mapping(t_address,t_uint256)"
					},
					"t_mapping(t_address,t_uint256)": {
						"encoding": "mapping",
						"key": "t_address",
						"label": "mapping(address => uint256)",
						"numberOfBytes": "32",
						"value": "t_uint256"
					},
					"t_uint256": {
						"encoding": "inplace",
						"label": "uint256",
						"numberOfBytes": "32"
					}
				}
			},
			"userdoc": {
				"kind": "user",
				"methods": {},
				"version": 1
			}
		}
	}
}