{
	"mycontract.sol": {
		"blockWise": {
			"abi": [
				{
					"inputs": [
						{
							"internalType": "address",
							"name": "_creditor",
							"type": "address"
						},
						{
							"internalType": "uint256",
							"name": "_iou",
							"type": "uint256"
						}
					],
					"name": "add_IOU",
					"outputs": [],
					"stateMutability": "nonpayable",
					"type": "function"
				},
				{
					"inputs": [
						{
							"internalType": "address",
							"name": "_creditor",
							"type": "address"
						},
						{
							"internalType": "uint256",
							"name": "_iou",
							"type": "uint256"
						},
						{
							"internalType": "address[]",
							"name": "cycle",
							"type": "address[]"
						},
						{
							"internalType": "bool",
							"name": "cyclexist",
							"type": "bool"
						}
					],
					"name": "add_IOU",
					"outputs": [],
					"stateMutability": "nonpayable",
					"type": "function"
				},
				{
					"inputs": [
						{
							"internalType": "address",
							"name": "_debtor",
							"type": "address"
						},
						{
							"internalType": "address",
							"name": "_creditor",
							"type": "address"
						}
					],
					"name": "lookup",
					"outputs": [
						{
							"internalType": "uint256",
							"name": "",
							"type": "uint256"
						}
					],
					"stateMutability": "view",
					"type": "function"
				}
			],
			"devdoc": {
				"kind": "dev",
				"methods": {},
				"version": 1
			},
			"evm": {
				"assembly": "    /* \"mycontract.sol\":363:1495  contract blockWise {... */\n  mstore(0x40, 0x80)\n  callvalue\n  dup1\n  iszero\n  tag_1\n  jumpi\n  0x00\n  dup1\n  revert\ntag_1:\n  pop\n  dataSize(sub_0)\n  dup1\n  dataOffset(sub_0)\n  0x00\n  codecopy\n  0x00\n  return\nstop\n\nsub_0: assembly {\n        /* \"mycontract.sol\":363:1495  contract blockWise {... */\n      mstore(0x40, 0x80)\n      callvalue\n      dup1\n      iszero\n      tag_1\n      jumpi\n      0x00\n      dup1\n      revert\n    tag_1:\n      pop\n      jumpi(tag_2, lt(calldatasize, 0x04))\n      shr(0xe0, calldataload(0x00))\n      dup1\n      0x215accc7\n      eq\n      tag_3\n      jumpi\n      dup1\n      0x713584a6\n      eq\n      tag_4\n      jumpi\n      dup1\n      0xab8aee69\n      eq\n      tag_5\n      jumpi\n    tag_2:\n      0x00\n      dup1\n      revert\n        /* \"mycontract.sol\":453:563  function add_IOU(address _creditor, uint _iou) external{... */\n    tag_3:\n      tag_6\n      0x04\n      dup1\n      calldatasize\n      sub\n      dup2\n      add\n      swap1\n      tag_7\n      swap2\n      swap1\n      tag_8\n      jump\t// in\n    tag_7:\n      tag_9\n      jump\t// in\n    tag_6:\n      stop\n        /* \"mycontract.sol\":1363:1492  function lookup(address _debtor, address _creditor) external view returns (uint) {... */\n    tag_4:\n      tag_10\n      0x04\n      dup1\n      calldatasize\n      sub\n      dup2\n      add\n      swap1\n      tag_11\n      swap2\n      swap1\n      tag_12\n      jump\t// in\n    tag_11:\n      tag_13\n      jump\t// in\n    tag_10:\n      mload(0x40)\n      tag_14\n      swap2\n      swap1\n      tag_15\n      jump\t// in\n    tag_14:\n      mload(0x40)\n      dup1\n      swap2\n      sub\n      swap1\n      return\n        /* \"mycontract.sol\":568:1356  function add_IOU(address _creditor, uint _iou, address[] memory cycle, bool cyclexist) external {... */\n    tag_5:\n      tag_16\n      0x04\n      dup1\n      calldatasize\n      sub\n      dup2\n      add\n      swap1\n      tag_17\n      swap2\n      swap1\n      tag_18\n      jump\t// in\n    tag_17:\n      tag_19\n      jump\t// in\n    tag_16:\n      stop\n        /* \"mycontract.sol\":453:563  function add_IOU(address _creditor, uint _iou) external{... */\n    tag_9:\n        /* \"mycontract.sol\":552:556  _iou */\n      dup1\n        /* \"mycontract.sol\":521:525  ious */\n      0x00\n        /* \"mycontract.sol\":521:537  ious[msg.sender] */\n      dup1\n        /* \"mycontract.sol\":526:536  msg.sender */\n      caller\n        /* \"mycontract.sol\":521:537  ious[msg.sender] */\n      0xffffffffffffffffffffffffffffffffffffffff\n      and\n      0xffffffffffffffffffffffffffffffffffffffff\n      and\n      dup2\n      mstore\n      0x20\n      add\n      swap1\n      dup2\n      mstore\n      0x20\n      add\n      0x00\n      keccak256\n        /* \"mycontract.sol\":521:548  ious[msg.sender][_creditor] */\n      0x00\n        /* \"mycontract.sol\":538:547  _creditor */\n      dup5\n        /* \"mycontract.sol\":521:548  ious[msg.sender][_creditor] */\n      0xffffffffffffffffffffffffffffffffffffffff\n      and\n      0xffffffffffffffffffffffffffffffffffffffff\n      and\n      dup2\n      mstore\n      0x20\n      add\n      swap1\n      dup2\n      mstore\n      0x20\n      add\n      0x00\n      keccak256\n      0x00\n        /* \"mycontract.sol\":521:556  ious[msg.sender][_creditor] += _iou */\n      dup3\n      dup3\n      sload\n      tag_21\n      swap2\n      swap1\n      tag_22\n      jump\t// in\n    tag_21:\n      swap3\n      pop\n      pop\n      dup2\n      swap1\n      sstore\n      pop\n        /* \"mycontract.sol\":453:563  function add_IOU(address _creditor, uint _iou) external{... */\n      pop\n      pop\n      jump\t// out\n        /* \"mycontract.sol\":1363:1492  function lookup(address _debtor, address _creditor) external view returns (uint) {... */\n    tag_13:\n        /* \"mycontract.sol\":1438:1442  uint */\n      0x00\n        /* \"mycontract.sol\":1461:1465  ious */\n      dup1\n        /* \"mycontract.sol\":1461:1474  ious[_debtor] */\n      0x00\n        /* \"mycontract.sol\":1466:1473  _debtor */\n      dup5\n        /* \"mycontract.sol\":1461:1474  ious[_debtor] */\n      0xffffffffffffffffffffffffffffffffffffffff\n      and\n      0xffffffffffffffffffffffffffffffffffffffff\n      and\n      dup2\n      mstore\n      0x20\n      add\n      swap1\n      dup2\n      mstore\n      0x20\n      add\n      0x00\n      keccak256\n        /* \"mycontract.sol\":1461:1485  ious[_debtor][_creditor] */\n      0x00\n        /* \"mycontract.sol\":1475:1484  _creditor */\n      dup4\n        /* \"mycontract.sol\":1461:1485  ious[_debtor][_creditor] */\n      0xffffffffffffffffffffffffffffffffffffffff\n      and\n      0xffffffffffffffffffffffffffffffffffffffff\n      and\n      dup2\n      mstore\n      0x20\n      add\n      swap1\n      dup2\n      mstore\n      0x20\n      add\n      0x00\n      keccak256\n      sload\n        /* \"mycontract.sol\":1454:1485  return ious[_debtor][_creditor] */\n      swap1\n      pop\n        /* \"mycontract.sol\":1363:1492  function lookup(address _debtor, address _creditor) external view returns (uint) {... */\n      swap3\n      swap2\n      pop\n      pop\n      jump\t// out\n        /* \"mycontract.sol\":568:1356  function add_IOU(address _creditor, uint _iou, address[] memory cycle, bool cyclexist) external {... */\n    tag_19:\n        /* \"mycontract.sol\":714:719  false */\n      0x00\n        /* \"mycontract.sol\":701:719  cyclexist != false */\n      iszero\n      iszero\n        /* \"mycontract.sol\":701:710  cyclexist */\n      dup2\n        /* \"mycontract.sol\":701:719  cyclexist != false */\n      iszero\n      iszero\n      eq\n        /* \"mycontract.sol\":697:1349  if (cyclexist != false) { ... */\n      tag_25\n      jumpi\n        /* \"mycontract.sol\":736:752  uint cycleAmount */\n      0x00\n        /* \"mycontract.sol\":755:760  10000 */\n      0x2710\n        /* \"mycontract.sol\":736:760  uint cycleAmount = 10000 */\n      swap1\n      pop\n        /* \"mycontract.sol\":779:785  uint i */\n      0x00\n        /* \"mycontract.sol\":774:1002  for (uint i = 0; i < cycle.length; i++) {... */\n    tag_26:\n        /* \"mycontract.sol\":795:800  cycle */\n      dup4\n        /* \"mycontract.sol\":795:807  cycle.length */\n      mload\n        /* \"mycontract.sol\":791:792  i */\n      dup2\n        /* \"mycontract.sol\":791:807  i < cycle.length */\n      lt\n        /* \"mycontract.sol\":774:1002  for (uint i = 0; i < cycle.length; i++) {... */\n      iszero\n      tag_27\n      jumpi\n        /* \"mycontract.sol\":832:846  uint newAmount */\n      0x00\n        /* \"mycontract.sol\":849:853  ious */\n      dup1\n        /* \"mycontract.sol\":849:863  ious[cycle[i]] */\n      0x00\n        /* \"mycontract.sol\":854:859  cycle */\n      dup7\n        /* \"mycontract.sol\":860:861  i */\n      dup5\n        /* \"mycontract.sol\":854:862  cycle[i] */\n      dup2\n      mload\n      dup2\n      lt\n      tag_29\n      jumpi\n      tag_30\n      tag_31\n      jump\t// in\n    tag_30:\n    tag_29:\n      0x20\n      mul\n      0x20\n      add\n      add\n      mload\n        /* \"mycontract.sol\":849:863  ious[cycle[i]] */\n      0xffffffffffffffffffffffffffffffffffffffff\n      and\n      0xffffffffffffffffffffffffffffffffffffffff\n      and\n      dup2\n      mstore\n      0x20\n      add\n      swap1\n      dup2\n      mstore\n      0x20\n      add\n      0x00\n      keccak256\n        /* \"mycontract.sol\":849:877  ious[cycle[i]][cycle[i + 1]] */\n      0x00\n        /* \"mycontract.sol\":864:869  cycle */\n      dup7\n        /* \"mycontract.sol\":874:875  1 */\n      0x01\n        /* \"mycontract.sol\":870:871  i */\n      dup6\n        /* \"mycontract.sol\":870:875  i + 1 */\n      tag_32\n      swap2\n      swap1\n      tag_22\n      jump\t// in\n    tag_32:\n        /* \"mycontract.sol\":864:876  cycle[i + 1] */\n      dup2\n      mload\n      dup2\n      lt\n      tag_33\n      jumpi\n      tag_34\n      tag_31\n      jump\t// in\n    tag_34:\n    tag_33:\n      0x20\n      mul\n      0x20\n      add\n      add\n      mload\n        /* \"mycontract.sol\":849:877  ious[cycle[i]][cycle[i + 1]] */\n      0xffffffffffffffffffffffffffffffffffffffff\n      and\n      0xffffffffffffffffffffffffffffffffffffffff\n      and\n      dup2\n      mstore\n      0x20\n      add\n      swap1\n      dup2\n      mstore\n      0x20\n      add\n      0x00\n      keccak256\n      sload\n        /* \"mycontract.sol\":832:877  uint newAmount = ious[cycle[i]][cycle[i + 1]] */\n      swap1\n      pop\n        /* \"mycontract.sol\":911:922  cycleAmount */\n      dup3\n        /* \"mycontract.sol\":899:908  newAmount */\n      dup2\n        /* \"mycontract.sol\":899:922  newAmount < cycleAmount */\n      lt\n        /* \"mycontract.sol\":895:988  if (newAmount < cycleAmount) {... */\n      iszero\n      tag_35\n      jumpi\n        /* \"mycontract.sol\":960:969  newAmount */\n      dup1\n        /* \"mycontract.sol\":946:969  cycleAmount = newAmount */\n      swap3\n      pop\n        /* \"mycontract.sol\":895:988  if (newAmount < cycleAmount) {... */\n    tag_35:\n        /* \"mycontract.sol\":814:1002  {... */\n      pop\n        /* \"mycontract.sol\":809:812  i++ */\n      dup1\n      dup1\n      tag_36\n      swap1\n      tag_37\n      jump\t// in\n    tag_36:\n      swap2\n      pop\n      pop\n        /* \"mycontract.sol\":774:1002  for (uint i = 0; i < cycle.length; i++) {... */\n      jump(tag_26)\n    tag_27:\n      pop\n        /* \"mycontract.sol\":1024:1030  uint i */\n      0x00\n        /* \"mycontract.sol\":1019:1339  for (uint i = 0; i < cycle.length; i++) {... */\n    tag_38:\n        /* \"mycontract.sol\":1040:1045  cycle */\n      dup4\n        /* \"mycontract.sol\":1040:1052  cycle.length */\n      mload\n        /* \"mycontract.sol\":1036:1037  i */\n      dup2\n        /* \"mycontract.sol\":1036:1052  i < cycle.length */\n      lt\n        /* \"mycontract.sol\":1019:1339  for (uint i = 0; i < cycle.length; i++) {... */\n      iszero\n      tag_39\n      jumpi\n        /* \"mycontract.sol\":1077:1091  uint lastIndex */\n      0x00\n        /* \"mycontract.sol\":1107:1108  1 */\n      0x01\n        /* \"mycontract.sol\":1094:1099  cycle */\n      dup6\n        /* \"mycontract.sol\":1094:1106  cycle.length */\n      mload\n        /* \"mycontract.sol\":1094:1108  cycle.length-1 */\n      tag_41\n      swap2\n      swap1\n      tag_42\n      jump\t// in\n    tag_41:\n        /* \"mycontract.sol\":1077:1108  uint lastIndex = cycle.length-1 */\n      swap1\n      pop\n        /* \"mycontract.sol\":1135:1144  lastIndex */\n      dup1\n        /* \"mycontract.sol\":1130:1131  i */\n      dup3\n        /* \"mycontract.sol\":1130:1144  i != lastIndex */\n      eq\n        /* \"mycontract.sol\":1126:1312  if (i != lastIndex) {... */\n      tag_43\n      jumpi\n        /* \"mycontract.sol\":1196:1207  cycleAmount */\n      dup3\n        /* \"mycontract.sol\":1164:1168  ious */\n      0x00\n        /* \"mycontract.sol\":1164:1178  ious[cycle[i]] */\n      dup1\n        /* \"mycontract.sol\":1169:1174  cycle */\n      dup8\n        /* \"mycontract.sol\":1175:1176  i */\n      dup6\n        /* \"mycontract.sol\":1169:1177  cycle[i] */\n      dup2\n      mload\n      dup2\n      lt\n      tag_44\n      jumpi\n      tag_45\n      tag_31\n      jump\t// in\n    tag_45:\n    tag_44:\n      0x20\n      mul\n      0x20\n      add\n      add\n      mload\n        /* \"mycontract.sol\":1164:1178  ious[cycle[i]] */\n      0xffffffffffffffffffffffffffffffffffffffff\n      and\n      0xffffffffffffffffffffffffffffffffffffffff\n      and\n      dup2\n      mstore\n      0x20\n      add\n      swap1\n      dup2\n      mstore\n      0x20\n      add\n      0x00\n      keccak256\n        /* \"mycontract.sol\":1164:1192  ious[cycle[i]][cycle[i + 1]] */\n      0x00\n        /* \"mycontract.sol\":1179:1184  cycle */\n      dup8\n        /* \"mycontract.sol\":1189:1190  1 */\n      0x01\n        /* \"mycontract.sol\":1185:1186  i */\n      dup7\n        /* \"mycontract.sol\":1185:1190  i + 1 */\n      tag_46\n      swap2\n      swap1\n      tag_22\n      jump\t// in\n    tag_46:\n        /* \"mycontract.sol\":1179:1191  cycle[i + 1] */\n      dup2\n      mload\n      dup2\n      lt\n      tag_47\n      jumpi\n      tag_48\n      tag_31\n      jump\t// in\n    tag_48:\n    tag_47:\n      0x20\n      mul\n      0x20\n      add\n      add\n      mload\n        /* \"mycontract.sol\":1164:1192  ious[cycle[i]][cycle[i + 1]] */\n      0xffffffffffffffffffffffffffffffffffffffff\n      and\n      0xffffffffffffffffffffffffffffffffffffffff\n      and\n      dup2\n      mstore\n      0x20\n      add\n      swap1\n      dup2\n      mstore\n      0x20\n      add\n      0x00\n      keccak256\n      0x00\n        /* \"mycontract.sol\":1164:1207  ious[cycle[i]][cycle[i + 1]] -= cycleAmount */\n      dup3\n      dup3\n      sload\n      tag_49\n      swap2\n      swap1\n      tag_42\n      jump\t// in\n    tag_49:\n      swap3\n      pop\n      pop\n      dup2\n      swap1\n      sstore\n      pop\n        /* \"mycontract.sol\":1126:1312  if (i != lastIndex) {... */\n      jump(tag_50)\n    tag_43:\n        /* \"mycontract.sol\":1282:1293  cycleAmount */\n      dup3\n        /* \"mycontract.sol\":1254:1258  ious */\n      0x00\n        /* \"mycontract.sol\":1254:1268  ious[cycle[i]] */\n      dup1\n        /* \"mycontract.sol\":1259:1264  cycle */\n      dup8\n        /* \"mycontract.sol\":1265:1266  i */\n      dup6\n        /* \"mycontract.sol\":1259:1267  cycle[i] */\n      dup2\n      mload\n      dup2\n      lt\n      tag_51\n      jumpi\n      tag_52\n      tag_31\n      jump\t// in\n    tag_52:\n    tag_51:\n      0x20\n      mul\n      0x20\n      add\n      add\n      mload\n        /* \"mycontract.sol\":1254:1268  ious[cycle[i]] */\n      0xffffffffffffffffffffffffffffffffffffffff\n      and\n      0xffffffffffffffffffffffffffffffffffffffff\n      and\n      dup2\n      mstore\n      0x20\n      add\n      swap1\n      dup2\n      mstore\n      0x20\n      add\n      0x00\n      keccak256\n        /* \"mycontract.sol\":1254:1278  ious[cycle[i]][cycle[0]] */\n      0x00\n        /* \"mycontract.sol\":1269:1274  cycle */\n      dup8\n        /* \"mycontract.sol\":1275:1276  0 */\n      0x00\n        /* \"mycontract.sol\":1269:1277  cycle[0] */\n      dup2\n      mload\n      dup2\n      lt\n      tag_53\n      jumpi\n      tag_54\n      tag_31\n      jump\t// in\n    tag_54:\n    tag_53:\n      0x20\n      mul\n      0x20\n      add\n      add\n      mload\n        /* \"mycontract.sol\":1254:1278  ious[cycle[i]][cycle[0]] */\n      0xffffffffffffffffffffffffffffffffffffffff\n      and\n      0xffffffffffffffffffffffffffffffffffffffff\n      and\n      dup2\n      mstore\n      0x20\n      add\n      swap1\n      dup2\n      mstore\n      0x20\n      add\n      0x00\n      keccak256\n      0x00\n        /* \"mycontract.sol\":1254:1293  ious[cycle[i]][cycle[0]] -= cycleAmount */\n      dup3\n      dup3\n      sload\n      tag_55\n      swap2\n      swap1\n      tag_42\n      jump\t// in\n    tag_55:\n      swap3\n      pop\n      pop\n      dup2\n      swap1\n      sstore\n      pop\n        /* \"mycontract.sol\":1126:1312  if (i != lastIndex) {... */\n    tag_50:\n        /* \"mycontract.sol\":1059:1339  {... */\n      pop\n        /* \"mycontract.sol\":1054:1057  i++ */\n      dup1\n      dup1\n      tag_56\n      swap1\n      tag_37\n      jump\t// in\n    tag_56:\n      swap2\n      pop\n      pop\n        /* \"mycontract.sol\":1019:1339  for (uint i = 0; i < cycle.length; i++) {... */\n      jump(tag_38)\n    tag_39:\n      pop\n        /* \"mycontract.sol\":721:1349  { ... */\n      pop\n        /* \"mycontract.sol\":697:1349  if (cyclexist != false) { ... */\n    tag_25:\n        /* \"mycontract.sol\":568:1356  function add_IOU(address _creditor, uint _iou, address[] memory cycle, bool cyclexist) external {... */\n      pop\n      pop\n      pop\n      pop\n      jump\t// out\n        /* \"#utility.yul\":24:746   */\n    tag_58:\n        /* \"#utility.yul\":120:125   */\n      0x00\n        /* \"#utility.yul\":145:226   */\n      tag_60\n        /* \"#utility.yul\":161:225   */\n      tag_61\n        /* \"#utility.yul\":218:224   */\n      dup5\n        /* \"#utility.yul\":161:225   */\n      tag_62\n      jump\t// in\n    tag_61:\n        /* \"#utility.yul\":145:226   */\n      tag_63\n      jump\t// in\n    tag_60:\n        /* \"#utility.yul\":136:226   */\n      swap1\n      pop\n        /* \"#utility.yul\":246:251   */\n      dup1\n        /* \"#utility.yul\":275:281   */\n      dup4\n        /* \"#utility.yul\":268:273   */\n      dup3\n        /* \"#utility.yul\":261:282   */\n      mstore\n        /* \"#utility.yul\":309:313   */\n      0x20\n        /* \"#utility.yul\":302:307   */\n      dup3\n        /* \"#utility.yul\":298:314   */\n      add\n        /* \"#utility.yul\":291:314   */\n      swap1\n      pop\n        /* \"#utility.yul\":335:341   */\n      dup3\n        /* \"#utility.yul\":385:388   */\n      dup6\n        /* \"#utility.yul\":377:381   */\n      0x20\n        /* \"#utility.yul\":369:375   */\n      dup7\n        /* \"#utility.yul\":365:382   */\n      mul\n        /* \"#utility.yul\":360:363   */\n      dup3\n        /* \"#utility.yul\":356:383   */\n      add\n        /* \"#utility.yul\":353:389   */\n      gt\n        /* \"#utility.yul\":350:493   */\n      iszero\n      tag_64\n      jumpi\n        /* \"#utility.yul\":404:483   */\n      tag_65\n      tag_66\n      jump\t// in\n    tag_65:\n        /* \"#utility.yul\":350:493   */\n    tag_64:\n        /* \"#utility.yul\":517:518   */\n      0x00\n        /* \"#utility.yul\":502:740   */\n    tag_67:\n        /* \"#utility.yul\":527:533   */\n      dup6\n        /* \"#utility.yul\":524:525   */\n      dup2\n        /* \"#utility.yul\":521:534   */\n      lt\n        /* \"#utility.yul\":502:740   */\n      iszero\n      tag_69\n      jumpi\n        /* \"#utility.yul\":595:598   */\n      dup2\n        /* \"#utility.yul\":624:661   */\n      tag_70\n        /* \"#utility.yul\":657:660   */\n      dup9\n        /* \"#utility.yul\":645:655   */\n      dup3\n        /* \"#utility.yul\":624:661   */\n      tag_71\n      jump\t// in\n    tag_70:\n        /* \"#utility.yul\":619:622   */\n      dup5\n        /* \"#utility.yul\":612:662   */\n      mstore\n        /* \"#utility.yul\":691:695   */\n      0x20\n        /* \"#utility.yul\":686:689   */\n      dup5\n        /* \"#utility.yul\":682:696   */\n      add\n        /* \"#utility.yul\":675:696   */\n      swap4\n      pop\n        /* \"#utility.yul\":725:729   */\n      0x20\n        /* \"#utility.yul\":720:723   */\n      dup4\n        /* \"#utility.yul\":716:730   */\n      add\n        /* \"#utility.yul\":709:730   */\n      swap3\n      pop\n        /* \"#utility.yul\":562:740   */\n      pop\n        /* \"#utility.yul\":549:550   */\n      0x01\n        /* \"#utility.yul\":546:547   */\n      dup2\n        /* \"#utility.yul\":542:551   */\n      add\n        /* \"#utility.yul\":537:551   */\n      swap1\n      pop\n        /* \"#utility.yul\":502:740   */\n      jump(tag_67)\n    tag_69:\n        /* \"#utility.yul\":506:520   */\n      pop\n        /* \"#utility.yul\":126:746   */\n      pop\n      pop\n        /* \"#utility.yul\":24:746   */\n      swap4\n      swap3\n      pop\n      pop\n      pop\n      jump\t// out\n        /* \"#utility.yul\":752:891   */\n    tag_71:\n        /* \"#utility.yul\":798:803   */\n      0x00\n        /* \"#utility.yul\":836:842   */\n      dup2\n        /* \"#utility.yul\":823:843   */\n      calldataload\n        /* \"#utility.yul\":814:843   */\n      swap1\n      pop\n        /* \"#utility.yul\":852:885   */\n      tag_73\n        /* \"#utility.yul\":879:884   */\n      dup2\n        /* \"#utility.yul\":852:885   */\n      tag_74\n      jump\t// in\n    tag_73:\n        /* \"#utility.yul\":752:891   */\n      swap3\n      swap2\n      pop\n      pop\n      jump\t// out\n        /* \"#utility.yul\":914:1284   */\n    tag_75:\n        /* \"#utility.yul\":985:990   */\n      0x00\n        /* \"#utility.yul\":1034:1037   */\n      dup3\n        /* \"#utility.yul\":1027:1031   */\n      0x1f\n        /* \"#utility.yul\":1019:1025   */\n      dup4\n        /* \"#utility.yul\":1015:1032   */\n      add\n        /* \"#utility.yul\":1011:1038   */\n      slt\n        /* \"#utility.yul\":1001:1123   */\n      tag_77\n      jumpi\n        /* \"#utility.yul\":1042:1121   */\n      tag_78\n      tag_79\n      jump\t// in\n    tag_78:\n        /* \"#utility.yul\":1001:1123   */\n    tag_77:\n        /* \"#utility.yul\":1159:1165   */\n      dup2\n        /* \"#utility.yul\":1146:1166   */\n      calldataload\n        /* \"#utility.yul\":1184:1278   */\n      tag_80\n        /* \"#utility.yul\":1274:1277   */\n      dup5\n        /* \"#utility.yul\":1266:1272   */\n      dup3\n        /* \"#utility.yul\":1259:1263   */\n      0x20\n        /* \"#utility.yul\":1251:1257   */\n      dup7\n        /* \"#utility.yul\":1247:1264   */\n      add\n        /* \"#utility.yul\":1184:1278   */\n      tag_58\n      jump\t// in\n    tag_80:\n        /* \"#utility.yul\":1175:1278   */\n      swap2\n      pop\n        /* \"#utility.yul\":991:1284   */\n      pop\n        /* \"#utility.yul\":914:1284   */\n      swap3\n      swap2\n      pop\n      pop\n      jump\t// out\n        /* \"#utility.yul\":1290:1423   */\n    tag_81:\n        /* \"#utility.yul\":1333:1338   */\n      0x00\n        /* \"#utility.yul\":1371:1377   */\n      dup2\n        /* \"#utility.yul\":1358:1378   */\n      calldataload\n        /* \"#utility.yul\":1349:1378   */\n      swap1\n      pop\n        /* \"#utility.yul\":1387:1417   */\n      tag_83\n        /* \"#utility.yul\":1411:1416   */\n      dup2\n        /* \"#utility.yul\":1387:1417   */\n      tag_84\n      jump\t// in\n    tag_83:\n        /* \"#utility.yul\":1290:1423   */\n      swap3\n      swap2\n      pop\n      pop\n      jump\t// out\n        /* \"#utility.yul\":1429:1568   */\n    tag_85:\n        /* \"#utility.yul\":1475:1480   */\n      0x00\n        /* \"#utility.yul\":1513:1519   */\n      dup2\n        /* \"#utility.yul\":1500:1520   */\n      calldataload\n        /* \"#utility.yul\":1491:1520   */\n      swap1\n      pop\n        /* \"#utility.yul\":1529:1562   */\n      tag_87\n        /* \"#utility.yul\":1556:1561   */\n      dup2\n        /* \"#utility.yul\":1529:1562   */\n      tag_88\n      jump\t// in\n    tag_87:\n        /* \"#utility.yul\":1429:1568   */\n      swap3\n      swap2\n      pop\n      pop\n      jump\t// out\n        /* \"#utility.yul\":1574:2048   */\n    tag_12:\n        /* \"#utility.yul\":1642:1648   */\n      0x00\n        /* \"#utility.yul\":1650:1656   */\n      dup1\n        /* \"#utility.yul\":1699:1701   */\n      0x40\n        /* \"#utility.yul\":1687:1696   */\n      dup4\n        /* \"#utility.yul\":1678:1685   */\n      dup6\n        /* \"#utility.yul\":1674:1697   */\n      sub\n        /* \"#utility.yul\":1670:1702   */\n      slt\n        /* \"#utility.yul\":1667:1786   */\n      iszero\n      tag_90\n      jumpi\n        /* \"#utility.yul\":1705:1784   */\n      tag_91\n      tag_92\n      jump\t// in\n    tag_91:\n        /* \"#utility.yul\":1667:1786   */\n    tag_90:\n        /* \"#utility.yul\":1825:1826   */\n      0x00\n        /* \"#utility.yul\":1850:1903   */\n      tag_93\n        /* \"#utility.yul\":1895:1902   */\n      dup6\n        /* \"#utility.yul\":1886:1892   */\n      dup3\n        /* \"#utility.yul\":1875:1884   */\n      dup7\n        /* \"#utility.yul\":1871:1893   */\n      add\n        /* \"#utility.yul\":1850:1903   */\n      tag_71\n      jump\t// in\n    tag_93:\n        /* \"#utility.yul\":1840:1903   */\n      swap3\n      pop\n        /* \"#utility.yul\":1796:1913   */\n      pop\n        /* \"#utility.yul\":1952:1954   */\n      0x20\n        /* \"#utility.yul\":1978:2031   */\n      tag_94\n        /* \"#utility.yul\":2023:2030   */\n      dup6\n        /* \"#utility.yul\":2014:2020   */\n      dup3\n        /* \"#utility.yul\":2003:2012   */\n      dup7\n        /* \"#utility.yul\":1999:2021   */\n      add\n        /* \"#utility.yul\":1978:2031   */\n      tag_71\n      jump\t// in\n    tag_94:\n        /* \"#utility.yul\":1968:2031   */\n      swap2\n      pop\n        /* \"#utility.yul\":1923:2041   */\n      pop\n        /* \"#utility.yul\":1574:2048   */\n      swap3\n      pop\n      swap3\n      swap1\n      pop\n      jump\t// out\n        /* \"#utility.yul\":2054:2528   */\n    tag_8:\n        /* \"#utility.yul\":2122:2128   */\n      0x00\n        /* \"#utility.yul\":2130:2136   */\n      dup1\n        /* \"#utility.yul\":2179:2181   */\n      0x40\n        /* \"#utility.yul\":2167:2176   */\n      dup4\n        /* \"#utility.yul\":2158:2165   */\n      dup6\n        /* \"#utility.yul\":2154:2177   */\n      sub\n        /* \"#utility.yul\":2150:2182   */\n      slt\n        /* \"#utility.yul\":2147:2266   */\n      iszero\n      tag_96\n      jumpi\n        /* \"#utility.yul\":2185:2264   */\n      tag_97\n      tag_92\n      jump\t// in\n    tag_97:\n        /* \"#utility.yul\":2147:2266   */\n    tag_96:\n        /* \"#utility.yul\":2305:2306   */\n      0x00\n        /* \"#utility.yul\":2330:2383   */\n      tag_98\n        /* \"#utility.yul\":2375:2382   */\n      dup6\n        /* \"#utility.yul\":2366:2372   */\n      dup3\n        /* \"#utility.yul\":2355:2364   */\n      dup7\n        /* \"#utility.yul\":2351:2373   */\n      add\n        /* \"#utility.yul\":2330:2383   */\n      tag_71\n      jump\t// in\n    tag_98:\n        /* \"#utility.yul\":2320:2383   */\n      swap3\n      pop\n        /* \"#utility.yul\":2276:2393   */\n      pop\n        /* \"#utility.yul\":2432:2434   */\n      0x20\n        /* \"#utility.yul\":2458:2511   */\n      tag_99\n        /* \"#utility.yul\":2503:2510   */\n      dup6\n        /* \"#utility.yul\":2494:2500   */\n      dup3\n        /* \"#utility.yul\":2483:2492   */\n      dup7\n        /* \"#utility.yul\":2479:2501   */\n      add\n        /* \"#utility.yul\":2458:2511   */\n      tag_85\n      jump\t// in\n    tag_99:\n        /* \"#utility.yul\":2448:2511   */\n      swap2\n      pop\n        /* \"#utility.yul\":2403:2521   */\n      pop\n        /* \"#utility.yul\":2054:2528   */\n      swap3\n      pop\n      swap3\n      swap1\n      pop\n      jump\t// out\n        /* \"#utility.yul\":2534:3503   */\n    tag_18:\n        /* \"#utility.yul\":2642:2648   */\n      0x00\n        /* \"#utility.yul\":2650:2656   */\n      dup1\n        /* \"#utility.yul\":2658:2664   */\n      0x00\n        /* \"#utility.yul\":2666:2672   */\n      dup1\n        /* \"#utility.yul\":2715:2718   */\n      0x80\n        /* \"#utility.yul\":2703:2712   */\n      dup6\n        /* \"#utility.yul\":2694:2701   */\n      dup8\n        /* \"#utility.yul\":2690:2713   */\n      sub\n        /* \"#utility.yul\":2686:2719   */\n      slt\n        /* \"#utility.yul\":2683:2803   */\n      iszero\n      tag_101\n      jumpi\n        /* \"#utility.yul\":2722:2801   */\n      tag_102\n      tag_92\n      jump\t// in\n    tag_102:\n        /* \"#utility.yul\":2683:2803   */\n    tag_101:\n        /* \"#utility.yul\":2842:2843   */\n      0x00\n        /* \"#utility.yul\":2867:2920   */\n      tag_103\n        /* \"#utility.yul\":2912:2919   */\n      dup8\n        /* \"#utility.yul\":2903:2909   */\n      dup3\n        /* \"#utility.yul\":2892:2901   */\n      dup9\n        /* \"#utility.yul\":2888:2910   */\n      add\n        /* \"#utility.yul\":2867:2920   */\n      tag_71\n      jump\t// in\n    tag_103:\n        /* \"#utility.yul\":2857:2920   */\n      swap5\n      pop\n        /* \"#utility.yul\":2813:2930   */\n      pop\n        /* \"#utility.yul\":2969:2971   */\n      0x20\n        /* \"#utility.yul\":2995:3048   */\n      tag_104\n        /* \"#utility.yul\":3040:3047   */\n      dup8\n        /* \"#utility.yul\":3031:3037   */\n      dup3\n        /* \"#utility.yul\":3020:3029   */\n      dup9\n        /* \"#utility.yul\":3016:3038   */\n      add\n        /* \"#utility.yul\":2995:3048   */\n      tag_85\n      jump\t// in\n    tag_104:\n        /* \"#utility.yul\":2985:3048   */\n      swap4\n      pop\n        /* \"#utility.yul\":2940:3058   */\n      pop\n        /* \"#utility.yul\":3125:3127   */\n      0x40\n        /* \"#utility.yul\":3114:3123   */\n      dup6\n        /* \"#utility.yul\":3110:3128   */\n      add\n        /* \"#utility.yul\":3097:3129   */\n      calldataload\n        /* \"#utility.yul\":3156:3174   */\n      0xffffffffffffffff\n        /* \"#utility.yul\":3148:3154   */\n      dup2\n        /* \"#utility.yul\":3145:3175   */\n      gt\n        /* \"#utility.yul\":3142:3259   */\n      iszero\n      tag_105\n      jumpi\n        /* \"#utility.yul\":3178:3257   */\n      tag_106\n      tag_107\n      jump\t// in\n    tag_106:\n        /* \"#utility.yul\":3142:3259   */\n    tag_105:\n        /* \"#utility.yul\":3283:3361   */\n      tag_108\n        /* \"#utility.yul\":3353:3360   */\n      dup8\n        /* \"#utility.yul\":3344:3350   */\n      dup3\n        /* \"#utility.yul\":3333:3342   */\n      dup9\n        /* \"#utility.yul\":3329:3351   */\n      add\n        /* \"#utility.yul\":3283:3361   */\n      tag_75\n      jump\t// in\n    tag_108:\n        /* \"#utility.yul\":3273:3361   */\n      swap3\n      pop\n        /* \"#utility.yul\":3068:3371   */\n      pop\n        /* \"#utility.yul\":3410:3412   */\n      0x60\n        /* \"#utility.yul\":3436:3486   */\n      tag_109\n        /* \"#utility.yul\":3478:3485   */\n      dup8\n        /* \"#utility.yul\":3469:3475   */\n      dup3\n        /* \"#utility.yul\":3458:3467   */\n      dup9\n        /* \"#utility.yul\":3454:3476   */\n      add\n        /* \"#utility.yul\":3436:3486   */\n      tag_81\n      jump\t// in\n    tag_109:\n        /* \"#utility.yul\":3426:3486   */\n      swap2\n      pop\n        /* \"#utility.yul\":3381:3496   */\n      pop\n        /* \"#utility.yul\":2534:3503   */\n      swap3\n      swap6\n      swap2\n      swap5\n      pop\n      swap3\n      pop\n      jump\t// out\n        /* \"#utility.yul\":3509:3627   */\n    tag_110:\n        /* \"#utility.yul\":3596:3620   */\n      tag_112\n        /* \"#utility.yul\":3614:3619   */\n      dup2\n        /* \"#utility.yul\":3596:3620   */\n      tag_113\n      jump\t// in\n    tag_112:\n        /* \"#utility.yul\":3591:3594   */\n      dup3\n        /* \"#utility.yul\":3584:3621   */\n      mstore\n        /* \"#utility.yul\":3509:3627   */\n      pop\n      pop\n      jump\t// out\n        /* \"#utility.yul\":3633:3855   */\n    tag_15:\n        /* \"#utility.yul\":3726:3730   */\n      0x00\n        /* \"#utility.yul\":3764:3766   */\n      0x20\n        /* \"#utility.yul\":3753:3762   */\n      dup3\n        /* \"#utility.yul\":3749:3767   */\n      add\n        /* \"#utility.yul\":3741:3767   */\n      swap1\n      pop\n        /* \"#utility.yul\":3777:3848   */\n      tag_115\n        /* \"#utility.yul\":3845:3846   */\n      0x00\n        /* \"#utility.yul\":3834:3843   */\n      dup4\n        /* \"#utility.yul\":3830:3847   */\n      add\n        /* \"#utility.yul\":3821:3827   */\n      dup5\n        /* \"#utility.yul\":3777:3848   */\n      tag_110\n      jump\t// in\n    tag_115:\n        /* \"#utility.yul\":3633:3855   */\n      swap3\n      swap2\n      pop\n      pop\n      jump\t// out\n        /* \"#utility.yul\":3861:3990   */\n    tag_63:\n        /* \"#utility.yul\":3895:3901   */\n      0x00\n        /* \"#utility.yul\":3922:3942   */\n      tag_117\n      tag_118\n      jump\t// in\n    tag_117:\n        /* \"#utility.yul\":3912:3942   */\n      swap1\n      pop\n        /* \"#utility.yul\":3951:3984   */\n      tag_119\n        /* \"#utility.yul\":3979:3983   */\n      dup3\n        /* \"#utility.yul\":3971:3977   */\n      dup3\n        /* \"#utility.yul\":3951:3984   */\n      tag_120\n      jump\t// in\n    tag_119:\n        /* \"#utility.yul\":3861:3990   */\n      swap2\n      swap1\n      pop\n      jump\t// out\n        /* \"#utility.yul\":3996:4071   */\n    tag_118:\n        /* \"#utility.yul\":4029:4035   */\n      0x00\n        /* \"#utility.yul\":4062:4064   */\n      0x40\n        /* \"#utility.yul\":4056:4065   */\n      mload\n        /* \"#utility.yul\":4046:4065   */\n      swap1\n      pop\n        /* \"#utility.yul\":3996:4071   */\n      swap1\n      jump\t// out\n        /* \"#utility.yul\":4077:4388   */\n    tag_62:\n        /* \"#utility.yul\":4154:4158   */\n      0x00\n        /* \"#utility.yul\":4244:4262   */\n      0xffffffffffffffff\n        /* \"#utility.yul\":4236:4242   */\n      dup3\n        /* \"#utility.yul\":4233:4263   */\n      gt\n        /* \"#utility.yul\":4230:4286   */\n      iszero\n      tag_123\n      jumpi\n        /* \"#utility.yul\":4266:4284   */\n      tag_124\n      tag_125\n      jump\t// in\n    tag_124:\n        /* \"#utility.yul\":4230:4286   */\n    tag_123:\n        /* \"#utility.yul\":4316:4320   */\n      0x20\n        /* \"#utility.yul\":4308:4314   */\n      dup3\n        /* \"#utility.yul\":4304:4321   */\n      mul\n        /* \"#utility.yul\":4296:4321   */\n      swap1\n      pop\n        /* \"#utility.yul\":4376:4380   */\n      0x20\n        /* \"#utility.yul\":4370:4374   */\n      dup2\n        /* \"#utility.yul\":4366:4381   */\n      add\n        /* \"#utility.yul\":4358:4381   */\n      swap1\n      pop\n        /* \"#utility.yul\":4077:4388   */\n      swap2\n      swap1\n      pop\n      jump\t// out\n        /* \"#utility.yul\":4394:4699   */\n    tag_22:\n        /* \"#utility.yul\":4434:4437   */\n      0x00\n        /* \"#utility.yul\":4453:4473   */\n      tag_127\n        /* \"#utility.yul\":4471:4472   */\n      dup3\n        /* \"#utility.yul\":4453:4473   */\n      tag_113\n      jump\t// in\n    tag_127:\n        /* \"#utility.yul\":4448:4473   */\n      swap2\n      pop\n        /* \"#utility.yul\":4487:4507   */\n      tag_128\n        /* \"#utility.yul\":4505:4506   */\n      dup4\n        /* \"#utility.yul\":4487:4507   */\n      tag_113\n      jump\t// in\n    tag_128:\n        /* \"#utility.yul\":4482:4507   */\n      swap3\n      pop\n        /* \"#utility.yul\":4641:4642   */\n      dup3\n        /* \"#utility.yul\":4573:4639   */\n      0xffffffffffffffffffffffffffffffffffffffffffffffffffffffffffffffff\n        /* \"#utility.yul\":4569:4643   */\n      sub\n        /* \"#utility.yul\":4566:4567   */\n      dup3\n        /* \"#utility.yul\":4563:4644   */\n      gt\n        /* \"#utility.yul\":4560:4667   */\n      iszero\n      tag_129\n      jumpi\n        /* \"#utility.yul\":4647:4665   */\n      tag_130\n      tag_131\n      jump\t// in\n    tag_130:\n        /* \"#utility.yul\":4560:4667   */\n    tag_129:\n        /* \"#utility.yul\":4691:4692   */\n      dup3\n        /* \"#utility.yul\":4688:4689   */\n      dup3\n        /* \"#utility.yul\":4684:4693   */\n      add\n        /* \"#utility.yul\":4677:4693   */\n      swap1\n      pop\n        /* \"#utility.yul\":4394:4699   */\n      swap3\n      swap2\n      pop\n      pop\n      jump\t// out\n        /* \"#utility.yul\":4705:4896   */\n    tag_42:\n        /* \"#utility.yul\":4745:4749   */\n      0x00\n        /* \"#utility.yul\":4765:4785   */\n      tag_133\n        /* \"#utility.yul\":4783:4784   */\n      dup3\n        /* \"#utility.yul\":4765:4785   */\n      tag_113\n      jump\t// in\n    tag_133:\n        /* \"#utility.yul\":4760:4785   */\n      swap2\n      pop\n        /* \"#utility.yul\":4799:4819   */\n      tag_134\n        /* \"#utility.yul\":4817:4818   */\n      dup4\n        /* \"#utility.yul\":4799:4819   */\n      tag_113\n      jump\t// in\n    tag_134:\n        /* \"#utility.yul\":4794:4819   */\n      swap3\n      pop\n        /* \"#utility.yul\":4838:4839   */\n      dup3\n        /* \"#utility.yul\":4835:4836   */\n      dup3\n        /* \"#utility.yul\":4832:4840   */\n      lt\n        /* \"#utility.yul\":4829:4863   */\n      iszero\n      tag_135\n      jumpi\n        /* \"#utility.yul\":4843:4861   */\n      tag_136\n      tag_131\n      jump\t// in\n    tag_136:\n        /* \"#utility.yul\":4829:4863   */\n    tag_135:\n        /* \"#utility.yul\":4888:4889   */\n      dup3\n        /* \"#utility.yul\":4885:4886   */\n      dup3\n        /* \"#utility.yul\":4881:4890   */\n      sub\n        /* \"#utility.yul\":4873:4890   */\n      swap1\n      pop\n        /* \"#utility.yul\":4705:4896   */\n      swap3\n      swap2\n      pop\n      pop\n      jump\t// out\n        /* \"#utility.yul\":4902:4998   */\n    tag_137:\n        /* \"#utility.yul\":4939:4946   */\n      0x00\n        /* \"#utility.yul\":4968:4992   */\n      tag_139\n        /* \"#utility.yul\":4986:4991   */\n      dup3\n        /* \"#utility.yul\":4968:4992   */\n      tag_140\n      jump\t// in\n    tag_139:\n        /* \"#utility.yul\":4957:4992   */\n      swap1\n      pop\n        /* \"#utility.yul\":4902:4998   */\n      swap2\n      swap1\n      pop\n      jump\t// out\n        /* \"#utility.yul\":5004:5094   */\n    tag_141:\n        /* \"#utility.yul\":5038:5045   */\n      0x00\n        /* \"#utility.yul\":5081:5086   */\n      dup2\n        /* \"#utility.yul\":5074:5087   */\n      iszero\n        /* \"#utility.yul\":5067:5088   */\n      iszero\n        /* \"#utility.yul\":5056:5088   */\n      swap1\n      pop\n        /* \"#utility.yul\":5004:5094   */\n      swap2\n      swap1\n      pop\n      jump\t// out\n        /* \"#utility.yul\":5100:5226   */\n    tag_140:\n        /* \"#utility.yul\":5137:5144   */\n      0x00\n        /* \"#utility.yul\":5177:5219   */\n      0xffffffffffffffffffffffffffffffffffffffff\n        /* \"#utility.yul\":5170:5175   */\n      dup3\n        /* \"#utility.yul\":5166:5220   */\n      and\n        /* \"#utility.yul\":5155:5220   */\n      swap1\n      pop\n        /* \"#utility.yul\":5100:5226   */\n      swap2\n      swap1\n      pop\n      jump\t// out\n        /* \"#utility.yul\":5232:5309   */\n    tag_113:\n        /* \"#utility.yul\":5269:5276   */\n      0x00\n        /* \"#utility.yul\":5298:5303   */\n      dup2\n        /* \"#utility.yul\":5287:5303   */\n      swap1\n      pop\n        /* \"#utility.yul\":5232:5309   */\n      swap2\n      swap1\n      pop\n      jump\t// out\n        /* \"#utility.yul\":5315:5596   */\n    tag_120:\n        /* \"#utility.yul\":5398:5425   */\n      tag_146\n        /* \"#utility.yul\":5420:5424   */\n      dup3\n        /* \"#utility.yul\":5398:5425   */\n      tag_147\n      jump\t// in\n    tag_146:\n        /* \"#utility.yul\":5390:5396   */\n      dup2\n        /* \"#utility.yul\":5386:5426   */\n      add\n        /* \"#utility.yul\":5528:5534   */\n      dup2\n        /* \"#utility.yul\":5516:5526   */\n      dup2\n        /* \"#utility.yul\":5513:5535   */\n      lt\n        /* \"#utility.yul\":5492:5510   */\n      0xffffffffffffffff\n        /* \"#utility.yul\":5480:5490   */\n      dup3\n        /* \"#utility.yul\":5477:5511   */\n      gt\n        /* \"#utility.yul\":5474:5536   */\n      or\n        /* \"#utility.yul\":5471:5559   */\n      iszero\n      tag_148\n      jumpi\n        /* \"#utility.yul\":5539:5557   */\n      tag_149\n      tag_125\n      jump\t// in\n    tag_149:\n        /* \"#utility.yul\":5471:5559   */\n    tag_148:\n        /* \"#utility.yul\":5579:5589   */\n      dup1\n        /* \"#utility.yul\":5575:5577   */\n      0x40\n        /* \"#utility.yul\":5568:5590   */\n      mstore\n        /* \"#utility.yul\":5358:5596   */\n      pop\n        /* \"#utility.yul\":5315:5596   */\n      pop\n      pop\n      jump\t// out\n        /* \"#utility.yul\":5602:5835   */\n    tag_37:\n        /* \"#utility.yul\":5641:5644   */\n      0x00\n        /* \"#utility.yul\":5664:5688   */\n      tag_151\n        /* \"#utility.yul\":5682:5687   */\n      dup3\n        /* \"#utility.yul\":5664:5688   */\n      tag_113\n      jump\t// in\n    tag_151:\n        /* \"#utility.yul\":5655:5688   */\n      swap2\n      pop\n        /* \"#utility.yul\":5710:5776   */\n      0xffffffffffffffffffffffffffffffffffffffffffffffffffffffffffffffff\n        /* \"#utility.yul\":5703:5708   */\n      dup3\n        /* \"#utility.yul\":5700:5777   */\n      eq\n        /* \"#utility.yul\":5697:5800   */\n      iszero\n      tag_152\n      jumpi\n        /* \"#utility.yul\":5780:5798   */\n      tag_153\n      tag_131\n      jump\t// in\n    tag_153:\n        /* \"#utility.yul\":5697:5800   */\n    tag_152:\n        /* \"#utility.yul\":5827:5828   */\n      0x01\n        /* \"#utility.yul\":5820:5825   */\n      dup3\n        /* \"#utility.yul\":5816:5829   */\n      add\n        /* \"#utility.yul\":5809:5829   */\n      swap1\n      pop\n        /* \"#utility.yul\":5602:5835   */\n      swap2\n      swap1\n      pop\n      jump\t// out\n        /* \"#utility.yul\":5841:6021   */\n    tag_131:\n        /* \"#utility.yul\":5889:5966   */\n      0x4e487b7100000000000000000000000000000000000000000000000000000000\n        /* \"#utility.yul\":5886:5887   */\n      0x00\n        /* \"#utility.yul\":5879:5967   */\n      mstore\n        /* \"#utility.yul\":5986:5990   */\n      0x11\n        /* \"#utility.yul\":5983:5984   */\n      0x04\n        /* \"#utility.yul\":5976:5991   */\n      mstore\n        /* \"#utility.yul\":6010:6014   */\n      0x24\n        /* \"#utility.yul\":6007:6008   */\n      0x00\n        /* \"#utility.yul\":6000:6015   */\n      revert\n        /* \"#utility.yul\":6027:6207   */\n    tag_31:\n        /* \"#utility.yul\":6075:6152   */\n      0x4e487b7100000000000000000000000000000000000000000000000000000000\n        /* \"#utility.yul\":6072:6073   */\n      0x00\n        /* \"#utility.yul\":6065:6153   */\n      mstore\n        /* \"#utility.yul\":6172:6176   */\n      0x32\n        /* \"#utility.yul\":6169:6170   */\n      0x04\n        /* \"#utility.yul\":6162:6177   */\n      mstore\n        /* \"#utility.yul\":6196:6200   */\n      0x24\n        /* \"#utility.yul\":6193:6194   */\n      0x00\n        /* \"#utility.yul\":6186:6201   */\n      revert\n        /* \"#utility.yul\":6213:6393   */\n    tag_125:\n        /* \"#utility.yul\":6261:6338   */\n      0x4e487b7100000000000000000000000000000000000000000000000000000000\n        /* \"#utility.yul\":6258:6259   */\n      0x00\n        /* \"#utility.yul\":6251:6339   */\n      mstore\n        /* \"#utility.yul\":6358:6362   */\n      0x41\n        /* \"#utility.yul\":6355:6356   */\n      0x04\n        /* \"#utility.yul\":6348:6363   */\n      mstore\n        /* \"#utility.yul\":6382:6386   */\n      0x24\n        /* \"#utility.yul\":6379:6380   */\n      0x00\n        /* \"#utility.yul\":6372:6387   */\n      revert\n        /* \"#utility.yul\":6399:6516   */\n    tag_79:\n        /* \"#utility.yul\":6508:6509   */\n      0x00\n        /* \"#utility.yul\":6505:6506   */\n      dup1\n        /* \"#utility.yul\":6498:6510   */\n      revert\n        /* \"#utility.yul\":6522:6639   */\n    tag_66:\n        /* \"#utility.yul\":6631:6632   */\n      0x00\n        /* \"#utility.yul\":6628:6629   */\n      dup1\n        /* \"#utility.yul\":6621:6633   */\n      revert\n        /* \"#utility.yul\":6645:6762   */\n    tag_107:\n        /* \"#utility.yul\":6754:6755   */\n      0x00\n        /* \"#utility.yul\":6751:6752   */\n      dup1\n        /* \"#utility.yul\":6744:6756   */\n      revert\n        /* \"#utility.yul\":6768:6885   */\n    tag_92:\n        /* \"#utility.yul\":6877:6878   */\n      0x00\n        /* \"#utility.yul\":6874:6875   */\n      dup1\n        /* \"#utility.yul\":6867:6879   */\n      revert\n        /* \"#utility.yul\":6891:6993   */\n    tag_147:\n        /* \"#utility.yul\":6932:6938   */\n      0x00\n        /* \"#utility.yul\":6983:6985   */\n      0x1f\n        /* \"#utility.yul\":6979:6986   */\n      not\n        /* \"#utility.yul\":6974:6976   */\n      0x1f\n        /* \"#utility.yul\":6967:6972   */\n      dup4\n        /* \"#utility.yul\":6963:6977   */\n      add\n        /* \"#utility.yul\":6959:6987   */\n      and\n        /* \"#utility.yul\":6949:6987   */\n      swap1\n      pop\n        /* \"#utility.yul\":6891:6993   */\n      swap2\n      swap1\n      pop\n      jump\t// out\n        /* \"#utility.yul\":6999:7121   */\n    tag_74:\n        /* \"#utility.yul\":7072:7096   */\n      tag_163\n        /* \"#utility.yul\":7090:7095   */\n      dup2\n        /* \"#utility.yul\":7072:7096   */\n      tag_137\n      jump\t// in\n    tag_163:\n        /* \"#utility.yul\":7065:7070   */\n      dup2\n        /* \"#utility.yul\":7062:7097   */\n      eq\n        /* \"#utility.yul\":7052:7115   */\n      tag_164\n      jumpi\n        /* \"#utility.yul\":7111:7112   */\n      0x00\n        /* \"#utility.yul\":7108:7109   */\n      dup1\n        /* \"#utility.yul\":7101:7113   */\n      revert\n        /* \"#utility.yul\":7052:7115   */\n    tag_164:\n        /* \"#utility.yul\":6999:7121   */\n      pop\n      jump\t// out\n        /* \"#utility.yul\":7127:7243   */\n    tag_84:\n        /* \"#utility.yul\":7197:7218   */\n      tag_166\n        /* \"#utility.yul\":7212:7217   */\n      dup2\n        /* \"#utility.yul\":7197:7218   */\n      tag_141\n      jump\t// in\n    tag_166:\n        /* \"#utility.yul\":7190:7195   */\n      dup2\n        /* \"#utility.yul\":7187:7219   */\n      eq\n        /* \"#utility.yul\":7177:7237   */\n      tag_167\n      jumpi\n        /* \"#utility.yul\":7233:7234   */\n      0x00\n        /* \"#utility.yul\":7230:7231   */\n      dup1\n        /* \"#utility.yul\":7223:7235   */\n      revert\n        /* \"#utility.yul\":7177:7237   */\n    tag_167:\n        /* \"#utility.yul\":7127:7243   */\n      pop\n      jump\t// out\n        /* \"#utility.yul\":7249:7371   */\n    tag_88:\n        /* \"#utility.yul\":7322:7346   */\n      tag_169\n        /* \"#utility.yul\":7340:7345   */\n      dup2\n        /* \"#utility.yul\":7322:7346   */\n      tag_113\n      jump\t// in\n    tag_169:\n        /* \"#utility.yul\":7315:7320   */\n      dup2\n        /* \"#utility.yul\":7312:7347   */\n      eq\n        /* \"#utility.yul\":7302:7365   */\n      tag_170\n      jumpi\n        /* \"#utility.yul\":7361:7362   */\n      0x00\n        /* \"#utility.yul\":7358:7359   */\n      dup1\n        /* \"#utility.yul\":7351:7363   */\n      revert\n        /* \"#utility.yul\":7302:7365   */\n    tag_170:\n        /* \"#utility.yul\":7249:7371   */\n      pop\n      jump\t// out\n\n    auxdata: 0xa2646970667358221220304d3dd307f77c9a8a1933eadeb0bca2f55524c0bc14bf3ad83d713facae91c964736f6c63430008070033\n}\n",
				"bytecode": {
					"linkReferences": {},
					"object": "608060405234801561001057600080fd5b5061097f806100206000396000f3fe608060405234801561001057600080fd5b50600436106100415760003560e01c8063215accc714610046578063713584a614610062578063ab8aee6914610092575b600080fd5b610060600480360381019061005b91906105c8565b6100ae565b005b61007c60048036038101906100779190610588565b610144565b604051610089919061069a565b60405180910390f35b6100ac60048036038101906100a79190610608565b6101ca565b005b806000803373ffffffffffffffffffffffffffffffffffffffff1673ffffffffffffffffffffffffffffffffffffffff16815260200190815260200160002060008473ffffffffffffffffffffffffffffffffffffffff1673ffffffffffffffffffffffffffffffffffffffff16815260200190815260200160002060008282546101399190610706565b925050819055505050565b60008060008473ffffffffffffffffffffffffffffffffffffffff1673ffffffffffffffffffffffffffffffffffffffff16815260200190815260200160002060008373ffffffffffffffffffffffffffffffffffffffff1673ffffffffffffffffffffffffffffffffffffffff16815260200190815260200160002054905092915050565b60001515811515146104a5576000612710905060005b83518110156102c957600080600086848151811061020157610200610881565b5b602002602001015173ffffffffffffffffffffffffffffffffffffffff1673ffffffffffffffffffffffffffffffffffffffff1681526020019081526020016000206000866001856102539190610706565b8151811061026457610263610881565b5b602002602001015173ffffffffffffffffffffffffffffffffffffffff1673ffffffffffffffffffffffffffffffffffffffff168152602001908152602001600020549050828110156102b5578092505b5080806102c190610809565b9150506101e0565b5060005b83518110156104a2576000600185516102e6919061075c565b90508082146103c6578260008087858151811061030657610305610881565b5b602002602001015173ffffffffffffffffffffffffffffffffffffffff1673ffffffffffffffffffffffffffffffffffffffff1681526020019081526020016000206000876001866103589190610706565b8151811061036957610368610881565b5b602002602001015173ffffffffffffffffffffffffffffffffffffffff1673ffffffffffffffffffffffffffffffffffffffff16815260200190815260200160002060008282546103ba919061075c565b9250508190555061048e565b826000808785815181106103dd576103dc610881565b5b602002602001015173ffffffffffffffffffffffffffffffffffffffff1673ffffffffffffffffffffffffffffffffffffffff16815260200190815260200160002060008760008151811061043557610434610881565b5b602002602001015173ffffffffffffffffffffffffffffffffffffffff1673ffffffffffffffffffffffffffffffffffffffff1681526020019081526020016000206000828254610486919061075c565b925050819055505b50808061049a90610809565b9150506102cd565b50505b50505050565b60006104be6104b9846106da565b6106b5565b905080838252602082019050828560208602820111156104e1576104e06108e4565b5b60005b8581101561051157816104f7888261051b565b8452602084019350602083019250506001810190506104e4565b5050509392505050565b60008135905061052a81610904565b92915050565b600082601f830112610545576105446108df565b5b81356105558482602086016104ab565b91505092915050565b60008135905061056d8161091b565b92915050565b60008135905061058281610932565b92915050565b6000806040838503121561059f5761059e6108ee565b5b60006105ad8582860161051b565b92505060206105be8582860161051b565b9150509250929050565b600080604083850312156105df576105de6108ee565b5b60006105ed8582860161051b565b92505060206105fe85828601610573565b9150509250929050565b60008060008060808587031215610622576106216108ee565b5b60006106308782880161051b565b945050602061064187828801610573565b935050604085013567ffffffffffffffff811115610662576106616108e9565b5b61066e87828801610530565b925050606061067f8782880161055e565b91505092959194509250565b610694816107ce565b82525050565b60006020820190506106af600083018461068b565b92915050565b60006106bf6106d0565b90506106cb82826107d8565b919050565b6000604051905090565b600067ffffffffffffffff8211156106f5576106f46108b0565b5b602082029050602081019050919050565b6000610711826107ce565b915061071c836107ce565b9250827fffffffffffffffffffffffffffffffffffffffffffffffffffffffffffffffff0382111561075157610750610852565b5b828201905092915050565b6000610767826107ce565b9150610772836107ce565b92508282101561078557610784610852565b5b828203905092915050565b600061079b826107ae565b9050919050565b60008115159050919050565b600073ffffffffffffffffffffffffffffffffffffffff82169050919050565b6000819050919050565b6107e1826108f3565b810181811067ffffffffffffffff82111715610800576107ff6108b0565b5b80604052505050565b6000610814826107ce565b91507fffffffffffffffffffffffffffffffffffffffffffffffffffffffffffffffff82141561084757610846610852565b5b600182019050919050565b7f4e487b7100000000000000000000000000000000000000000000000000000000600052601160045260246000fd5b7f4e487b7100000000000000000000000000000000000000000000000000000000600052603260045260246000fd5b7f4e487b7100000000000000000000000000000000000000000000000000000000600052604160045260246000fd5b600080fd5b600080fd5b600080fd5b600080fd5b6000601f19601f8301169050919050565b61090d81610790565b811461091857600080fd5b50565b610924816107a2565b811461092f57600080fd5b50565b61093b816107ce565b811461094657600080fd5b5056fea2646970667358221220304d3dd307f77c9a8a1933eadeb0bca2f55524c0bc14bf3ad83d713facae91c964736f6c63430008070033",
					"opcodes": "PUSH1 0x80 PUSH1 0x40 MSTORE CALLVALUE DUP1 ISZERO PUSH2 0x10 JUMPI PUSH1 0x0 DUP1 REVERT JUMPDEST POP PUSH2 0x97F DUP1 PUSH2 0x20 PUSH1 0x0 CODECOPY PUSH1 0x0 RETURN INVALID PUSH1 0x80 PUSH1 0x40 MSTORE CALLVALUE DUP1 ISZERO PUSH2 0x10 JUMPI PUSH1 0x0 DUP1 REVERT JUMPDEST POP PUSH1 0x4 CALLDATASIZE LT PUSH2 0x41 JUMPI PUSH1 0x0 CALLDATALOAD PUSH1 0xE0 SHR DUP1 PUSH4 0x215ACCC7 EQ PUSH2 0x46 JUMPI DUP1 PUSH4 0x713584A6 EQ PUSH2 0x62 JUMPI DUP1 PUSH4 0xAB8AEE69 EQ PUSH2 0x92 JUMPI JUMPDEST PUSH1 0x0 DUP1 REVERT JUMPDEST PUSH2 0x60 PUSH1 0x4 DUP1 CALLDATASIZE SUB DUP2 ADD SWAP1 PUSH2 0x5B SWAP2 SWAP1 PUSH2 0x5C8 JUMP JUMPDEST PUSH2 0xAE JUMP JUMPDEST STOP JUMPDEST PUSH2 0x7C PUSH1 0x4 DUP1 CALLDATASIZE SUB DUP2 ADD SWAP1 PUSH2 0x77 SWAP2 SWAP1 PUSH2 0x588 JUMP JUMPDEST PUSH2 0x144 JUMP JUMPDEST PUSH1 0x40 MLOAD PUSH2 0x89 SWAP2 SWAP1 PUSH2 0x69A JUMP JUMPDEST PUSH1 0x40 MLOAD DUP1 SWAP2 SUB SWAP1 RETURN JUMPDEST PUSH2 0xAC PUSH1 0x4 DUP1 CALLDATASIZE SUB DUP2 ADD SWAP1 PUSH2 0xA7 SWAP2 SWAP1 PUSH2 0x608 JUMP JUMPDEST PUSH2 0x1CA JUMP JUMPDEST STOP JUMPDEST DUP1 PUSH1 0x0 DUP1 CALLER PUSH20 0xFFFFFFFFFFFFFFFFFFFFFFFFFFFFFFFFFFFFFFFF AND PUSH20 0xFFFFFFFFFFFFFFFFFFFFFFFFFFFFFFFFFFFFFFFF AND DUP2 MSTORE PUSH1 0x20 ADD SWAP1 DUP2 MSTORE PUSH1 0x20 ADD PUSH1 0x0 KECCAK256 PUSH1 0x0 DUP5 PUSH20 0xFFFFFFFFFFFFFFFFFFFFFFFFFFFFFFFFFFFFFFFF AND PUSH20 0xFFFFFFFFFFFFFFFFFFFFFFFFFFFFFFFFFFFFFFFF AND DUP2 MSTORE PUSH1 0x20 ADD SWAP1 DUP2 MSTORE PUSH1 0x20 ADD PUSH1 0x0 KECCAK256 PUSH1 0x0 DUP3 DUP3 SLOAD PUSH2 0x139 SWAP2 SWAP1 PUSH2 0x706 JUMP JUMPDEST SWAP3 POP POP DUP2 SWAP1 SSTORE POP POP POP JUMP JUMPDEST PUSH1 0x0 DUP1 PUSH1 0x0 DUP5 PUSH20 0xFFFFFFFFFFFFFFFFFFFFFFFFFFFFFFFFFFFFFFFF AND PUSH20 0xFFFFFFFFFFFFFFFFFFFFFFFFFFFFFFFFFFFFFFFF AND DUP2 MSTORE PUSH1 0x20 ADD SWAP1 DUP2 MSTORE PUSH1 0x20 ADD PUSH1 0x0 KECCAK256 PUSH1 0x0 DUP4 PUSH20 0xFFFFFFFFFFFFFFFFFFFFFFFFFFFFFFFFFFFFFFFF AND PUSH20 0xFFFFFFFFFFFFFFFFFFFFFFFFFFFFFFFFFFFFFFFF AND DUP2 MSTORE PUSH1 0x20 ADD SWAP1 DUP2 MSTORE PUSH1 0x20 ADD PUSH1 0x0 KECCAK256 SLOAD SWAP1 POP SWAP3 SWAP2 POP POP JUMP JUMPDEST PUSH1 0x0 ISZERO ISZERO DUP2 ISZERO ISZERO EQ PUSH2 0x4A5 JUMPI PUSH1 0x0 PUSH2 0x2710 SWAP1 POP PUSH1 0x0 JUMPDEST DUP4 MLOAD DUP2 LT ISZERO PUSH2 0x2C9 JUMPI PUSH1 0x0 DUP1 PUSH1 0x0 DUP7 DUP5 DUP2 MLOAD DUP2 LT PUSH2 0x201 JUMPI PUSH2 0x200 PUSH2 0x881 JUMP JUMPDEST JUMPDEST PUSH1 0x20 MUL PUSH1 0x20 ADD ADD MLOAD PUSH20 0xFFFFFFFFFFFFFFFFFFFFFFFFFFFFFFFFFFFFFFFF AND PUSH20 0xFFFFFFFFFFFFFFFFFFFFFFFFFFFFFFFFFFFFFFFF AND DUP2 MSTORE PUSH1 0x20 ADD SWAP1 DUP2 MSTORE PUSH1 0x20 ADD PUSH1 0x0 KECCAK256 PUSH1 0x0 DUP7 PUSH1 0x1 DUP6 PUSH2 0x253 SWAP2 SWAP1 PUSH2 0x706 JUMP JUMPDEST DUP2 MLOAD DUP2 LT PUSH2 0x264 JUMPI PUSH2 0x263 PUSH2 0x881 JUMP JUMPDEST JUMPDEST PUSH1 0x20 MUL PUSH1 0x20 ADD ADD MLOAD PUSH20 0xFFFFFFFFFFFFFFFFFFFFFFFFFFFFFFFFFFFFFFFF AND PUSH20 0xFFFFFFFFFFFFFFFFFFFFFFFFFFFFFFFFFFFFFFFF AND DUP2 MSTORE PUSH1 0x20 ADD SWAP1 DUP2 MSTORE PUSH1 0x20 ADD PUSH1 0x0 KECCAK256 SLOAD SWAP1 POP DUP3 DUP2 LT ISZERO PUSH2 0x2B5 JUMPI DUP1 SWAP3 POP JUMPDEST POP DUP1 DUP1 PUSH2 0x2C1 SWAP1 PUSH2 0x809 JUMP JUMPDEST SWAP2 POP POP PUSH2 0x1E0 JUMP JUMPDEST POP PUSH1 0x0 JUMPDEST DUP4 MLOAD DUP2 LT ISZERO PUSH2 0x4A2 JUMPI PUSH1 0x0 PUSH1 0x1 DUP6 MLOAD PUSH2 0x2E6 SWAP2 SWAP1 PUSH2 0x75C JUMP JUMPDEST SWAP1 POP DUP1 DUP3 EQ PUSH2 0x3C6 JUMPI DUP3 PUSH1 0x0 DUP1 DUP8 DUP6 DUP2 MLOAD DUP2 LT PUSH2 0x306 JUMPI PUSH2 0x305 PUSH2 0x881 JUMP JUMPDEST JUMPDEST PUSH1 0x20 MUL PUSH1 0x20 ADD ADD MLOAD PUSH20 0xFFFFFFFFFFFFFFFFFFFFFFFFFFFFFFFFFFFFFFFF AND PUSH20 0xFFFFFFFFFFFFFFFFFFFFFFFFFFFFFFFFFFFFFFFF AND DUP2 MSTORE PUSH1 0x20 ADD SWAP1 DUP2 MSTORE PUSH1 0x20 ADD PUSH1 0x0 KECCAK256 PUSH1 0x0 DUP8 PUSH1 0x1 DUP7 PUSH2 0x358 SWAP2 SWAP1 PUSH2 0x706 JUMP JUMPDEST DUP2 MLOAD DUP2 LT PUSH2 0x369 JUMPI PUSH2 0x368 PUSH2 0x881 JUMP JUMPDEST JUMPDEST PUSH1 0x20 MUL PUSH1 0x20 ADD ADD MLOAD PUSH20 0xFFFFFFFFFFFFFFFFFFFFFFFFFFFFFFFFFFFFFFFF AND PUSH20 0xFFFFFFFFFFFFFFFFFFFFFFFFFFFFFFFFFFFFFFFF AND DUP2 MSTORE PUSH1 0x20 ADD SWAP1 DUP2 MSTORE PUSH1 0x20 ADD PUSH1 0x0 KECCAK256 PUSH1 0x0 DUP3 DUP3 SLOAD PUSH2 0x3BA SWAP2 SWAP1 PUSH2 0x75C JUMP JUMPDEST SWAP3 POP POP DUP2 SWAP1 SSTORE POP PUSH2 0x48E JUMP JUMPDEST DUP3 PUSH1 0x0 DUP1 DUP8 DUP6 DUP2 MLOAD DUP2 LT PUSH2 0x3DD JUMPI PUSH2 0x3DC PUSH2 0x881 JUMP JUMPDEST JUMPDEST PUSH1 0x20 MUL PUSH1 0x20 ADD ADD MLOAD PUSH20 0xFFFFFFFFFFFFFFFFFFFFFFFFFFFFFFFFFFFFFFFF AND PUSH20 0xFFFFFFFFFFFFFFFFFFFFFFFFFFFFFFFFFFFFFFFF AND DUP2 MSTORE PUSH1 0x20 ADD SWAP1 DUP2 MSTORE PUSH1 0x20 ADD PUSH1 0x0 KECCAK256 PUSH1 0x0 DUP8 PUSH1 0x0 DUP2 MLOAD DUP2 LT PUSH2 0x435 JUMPI PUSH2 0x434 PUSH2 0x881 JUMP JUMPDEST JUMPDEST PUSH1 0x20 MUL PUSH1 0x20 ADD ADD MLOAD PUSH20 0xFFFFFFFFFFFFFFFFFFFFFFFFFFFFFFFFFFFFFFFF AND PUSH20 0xFFFFFFFFFFFFFFFFFFFFFFFFFFFFFFFFFFFFFFFF AND DUP2 MSTORE PUSH1 0x20 ADD SWAP1 DUP2 MSTORE PUSH1 0x20 ADD PUSH1 0x0 KECCAK256 PUSH1 0x0 DUP3 DUP3 SLOAD PUSH2 0x486 SWAP2 SWAP1 PUSH2 0x75C JUMP JUMPDEST SWAP3 POP POP DUP2 SWAP1 SSTORE POP JUMPDEST POP DUP1 DUP1 PUSH2 0x49A SWAP1 PUSH2 0x809 JUMP JUMPDEST SWAP2 POP POP PUSH2 0x2CD JUMP JUMPDEST POP POP JUMPDEST POP POP POP POP JUMP JUMPDEST PUSH1 0x0 PUSH2 0x4BE PUSH2 0x4B9 DUP5 PUSH2 0x6DA JUMP JUMPDEST PUSH2 0x6B5 JUMP JUMPDEST SWAP1 POP DUP1 DUP4 DUP3 MSTORE PUSH1 0x20 DUP3 ADD SWAP1 POP DUP3 DUP6 PUSH1 0x20 DUP7 MUL DUP3 ADD GT ISZERO PUSH2 0x4E1 JUMPI PUSH2 0x4E0 PUSH2 0x8E4 JUMP JUMPDEST JUMPDEST PUSH1 0x0 JUMPDEST DUP6 DUP2 LT ISZERO PUSH2 0x511 JUMPI DUP2 PUSH2 0x4F7 DUP9 DUP3 PUSH2 0x51B JUMP JUMPDEST DUP5 MSTORE PUSH1 0x20 DUP5 ADD SWAP4 POP PUSH1 0x20 DUP4 ADD SWAP3 POP POP PUSH1 0x1 DUP2 ADD SWAP1 POP PUSH2 0x4E4 JUMP JUMPDEST POP POP POP SWAP4 SWAP3 POP POP POP JUMP JUMPDEST PUSH1 0x0 DUP2 CALLDATALOAD SWAP1 POP PUSH2 0x52A DUP2 PUSH2 0x904 JUMP JUMPDEST SWAP3 SWAP2 POP POP JUMP JUMPDEST PUSH1 0x0 DUP3 PUSH1 0x1F DUP4 ADD SLT PUSH2 0x545 JUMPI PUSH2 0x544 PUSH2 0x8DF JUMP JUMPDEST JUMPDEST DUP2 CALLDATALOAD PUSH2 0x555 DUP5 DUP3 PUSH1 0x20 DUP7 ADD PUSH2 0x4AB JUMP JUMPDEST SWAP2 POP POP SWAP3 SWAP2 POP POP JUMP JUMPDEST PUSH1 0x0 DUP2 CALLDATALOAD SWAP1 POP PUSH2 0x56D DUP2 PUSH2 0x91B JUMP JUMPDEST SWAP3 SWAP2 POP POP JUMP JUMPDEST PUSH1 0x0 DUP2 CALLDATALOAD SWAP1 POP PUSH2 0x582 DUP2 PUSH2 0x932 JUMP JUMPDEST SWAP3 SWAP2 POP POP JUMP JUMPDEST PUSH1 0x0 DUP1 PUSH1 0x40 DUP4 DUP6 SUB SLT ISZERO PUSH2 0x59F JUMPI PUSH2 0x59E PUSH2 0x8EE JUMP JUMPDEST JUMPDEST PUSH1 0x0 PUSH2 0x5AD DUP6 DUP3 DUP7 ADD PUSH2 0x51B JUMP JUMPDEST SWAP3 POP POP PUSH1 0x20 PUSH2 0x5BE DUP6 DUP3 DUP7 ADD PUSH2 0x51B JUMP JUMPDEST SWAP2 POP POP SWAP3 POP SWAP3 SWAP1 POP JUMP JUMPDEST PUSH1 0x0 DUP1 PUSH1 0x40 DUP4 DUP6 SUB SLT ISZERO PUSH2 0x5DF JUMPI PUSH2 0x5DE PUSH2 0x8EE JUMP JUMPDEST JUMPDEST PUSH1 0x0 PUSH2 0x5ED DUP6 DUP3 DUP7 ADD PUSH2 0x51B JUMP JUMPDEST SWAP3 POP POP PUSH1 0x20 PUSH2 0x5FE DUP6 DUP3 DUP7 ADD PUSH2 0x573 JUMP JUMPDEST SWAP2 POP POP SWAP3 POP SWAP3 SWAP1 POP JUMP JUMPDEST PUSH1 0x0 DUP1 PUSH1 0x0 DUP1 PUSH1 0x80 DUP6 DUP8 SUB SLT ISZERO PUSH2 0x622 JUMPI PUSH2 0x621 PUSH2 0x8EE JUMP JUMPDEST JUMPDEST PUSH1 0x0 PUSH2 0x630 DUP8 DUP3 DUP9 ADD PUSH2 0x51B JUMP JUMPDEST SWAP5 POP POP PUSH1 0x20 PUSH2 0x641 DUP8 DUP3 DUP9 ADD PUSH2 0x573 JUMP JUMPDEST SWAP4 POP POP PUSH1 0x40 DUP6 ADD CALLDATALOAD PUSH8 0xFFFFFFFFFFFFFFFF DUP2 GT ISZERO PUSH2 0x662 JUMPI PUSH2 0x661 PUSH2 0x8E9 JUMP JUMPDEST JUMPDEST PUSH2 0x66E DUP8 DUP3 DUP9 ADD PUSH2 0x530 JUMP JUMPDEST SWAP3 POP POP PUSH1 0x60 PUSH2 0x67F DUP8 DUP3 DUP9 ADD PUSH2 0x55E JUMP JUMPDEST SWAP2 POP POP SWAP3 SWAP6 SWAP2 SWAP5 POP SWAP3 POP JUMP JUMPDEST PUSH2 0x694 DUP2 PUSH2 0x7CE JUMP JUMPDEST DUP3 MSTORE POP POP JUMP JUMPDEST PUSH1 0x0 PUSH1 0x20 DUP3 ADD SWAP1 POP PUSH2 0x6AF PUSH1 0x0 DUP4 ADD DUP5 PUSH2 0x68B JUMP JUMPDEST SWAP3 SWAP2 POP POP JUMP JUMPDEST PUSH1 0x0 PUSH2 0x6BF PUSH2 0x6D0 JUMP JUMPDEST SWAP1 POP PUSH2 0x6CB DUP3 DUP3 PUSH2 0x7D8 JUMP JUMPDEST SWAP2 SWAP1 POP JUMP JUMPDEST PUSH1 0x0 PUSH1 0x40 MLOAD SWAP1 POP SWAP1 JUMP JUMPDEST PUSH1 0x0 PUSH8 0xFFFFFFFFFFFFFFFF DUP3 GT ISZERO PUSH2 0x6F5 JUMPI PUSH2 0x6F4 PUSH2 0x8B0 JUMP JUMPDEST JUMPDEST PUSH1 0x20 DUP3 MUL SWAP1 POP PUSH1 0x20 DUP2 ADD SWAP1 POP SWAP2 SWAP1 POP JUMP JUMPDEST PUSH1 0x0 PUSH2 0x711 DUP3 PUSH2 0x7CE JUMP JUMPDEST SWAP2 POP PUSH2 0x71C DUP4 PUSH2 0x7CE JUMP JUMPDEST SWAP3 POP DUP3 PUSH32 0xFFFFFFFFFFFFFFFFFFFFFFFFFFFFFFFFFFFFFFFFFFFFFFFFFFFFFFFFFFFFFFFF SUB DUP3 GT ISZERO PUSH2 0x751 JUMPI PUSH2 0x750 PUSH2 0x852 JUMP JUMPDEST JUMPDEST DUP3 DUP3 ADD SWAP1 POP SWAP3 SWAP2 POP POP JUMP JUMPDEST PUSH1 0x0 PUSH2 0x767 DUP3 PUSH2 0x7CE JUMP JUMPDEST SWAP2 POP PUSH2 0x772 DUP4 PUSH2 0x7CE JUMP JUMPDEST SWAP3 POP DUP3 DUP3 LT ISZERO PUSH2 0x785 JUMPI PUSH2 0x784 PUSH2 0x852 JUMP JUMPDEST JUMPDEST DUP3 DUP3 SUB SWAP1 POP SWAP3 SWAP2 POP POP JUMP JUMPDEST PUSH1 0x0 PUSH2 0x79B DUP3 PUSH2 0x7AE JUMP JUMPDEST SWAP1 POP SWAP2 SWAP1 POP JUMP JUMPDEST PUSH1 0x0 DUP2 ISZERO ISZERO SWAP1 POP SWAP2 SWAP1 POP JUMP JUMPDEST PUSH1 0x0 PUSH20 0xFFFFFFFFFFFFFFFFFFFFFFFFFFFFFFFFFFFFFFFF DUP3 AND SWAP1 POP SWAP2 SWAP1 POP JUMP JUMPDEST PUSH1 0x0 DUP2 SWAP1 POP SWAP2 SWAP1 POP JUMP JUMPDEST PUSH2 0x7E1 DUP3 PUSH2 0x8F3 JUMP JUMPDEST DUP2 ADD DUP2 DUP2 LT PUSH8 0xFFFFFFFFFFFFFFFF DUP3 GT OR ISZERO PUSH2 0x800 JUMPI PUSH2 0x7FF PUSH2 0x8B0 JUMP JUMPDEST JUMPDEST DUP1 PUSH1 0x40 MSTORE POP POP POP JUMP JUMPDEST PUSH1 0x0 PUSH2 0x814 DUP3 PUSH2 0x7CE JUMP JUMPDEST SWAP2 POP PUSH32 0xFFFFFFFFFFFFFFFFFFFFFFFFFFFFFFFFFFFFFFFFFFFFFFFFFFFFFFFFFFFFFFFF DUP3 EQ ISZERO PUSH2 0x847 JUMPI PUSH2 0x846 PUSH2 0x852 JUMP JUMPDEST JUMPDEST PUSH1 0x1 DUP3 ADD SWAP1 POP SWAP2 SWAP1 POP JUMP JUMPDEST PUSH32 0x4E487B7100000000000000000000000000000000000000000000000000000000 PUSH1 0x0 MSTORE PUSH1 0x11 PUSH1 0x4 MSTORE PUSH1 0x24 PUSH1 0x0 REVERT JUMPDEST PUSH32 0x4E487B7100000000000000000000000000000000000000000000000000000000 PUSH1 0x0 MSTORE PUSH1 0x32 PUSH1 0x4 MSTORE PUSH1 0x24 PUSH1 0x0 REVERT JUMPDEST PUSH32 0x4E487B7100000000000000000000000000000000000000000000000000000000 PUSH1 0x0 MSTORE PUSH1 0x41 PUSH1 0x4 MSTORE PUSH1 0x24 PUSH1 0x0 REVERT JUMPDEST PUSH1 0x0 DUP1 REVERT JUMPDEST PUSH1 0x0 DUP1 REVERT JUMPDEST PUSH1 0x0 DUP1 REVERT JUMPDEST PUSH1 0x0 DUP1 REVERT JUMPDEST PUSH1 0x0 PUSH1 0x1F NOT PUSH1 0x1F DUP4 ADD AND SWAP1 POP SWAP2 SWAP1 POP JUMP JUMPDEST PUSH2 0x90D DUP2 PUSH2 0x790 JUMP JUMPDEST DUP2 EQ PUSH2 0x918 JUMPI PUSH1 0x0 DUP1 REVERT JUMPDEST POP JUMP JUMPDEST PUSH2 0x924 DUP2 PUSH2 0x7A2 JUMP JUMPDEST DUP2 EQ PUSH2 0x92F JUMPI PUSH1 0x0 DUP1 REVERT JUMPDEST POP JUMP JUMPDEST PUSH2 0x93B DUP2 PUSH2 0x7CE JUMP JUMPDEST DUP2 EQ PUSH2 0x946 JUMPI PUSH1 0x0 DUP1 REVERT JUMPDEST POP JUMP INVALID LOG2 PUSH5 0x6970667358 0x22 SLT KECCAK256 ADDRESS 0x4D RETURNDATASIZE 0xD3 SMOD 0xF7 PUSH29 0x9A8A1933EADEB0BCA2F55524C0BC14BF3AD83D713FACAE91C964736F6C PUSH4 0x43000807 STOP CALLER "
				},
				"gasEstimates": {
					"creation": {
						"codeDepositCost": "486200",
						"executionCost": "518",
						"totalCost": "486718"
					},
					"external": {
						"add_IOU(address,uint256)": "infinite",
						"add_IOU(address,uint256,address[],bool)": "infinite",
						"lookup(address,address)": "infinite"
					}
				},
				"methodIdentifiers": {
					"add_IOU(address,uint256)": "215accc7",
					"add_IOU(address,uint256,address[],bool)": "ab8aee69",
					"lookup(address,address)": "713584a6"
				}
			},
			"storageLayout": {
				"storage": [
					{
						"astId": 8,
						"contract": "mycontract.sol:blockWise",
						"label": "ious",
						"offset": 0,
						"slot": "0",
						"type": "t_mapping(t_address,t_mapping(t_address,t_uint256))"
					}
				],
				"types": {
					"t_address": {
						"encoding": "inplace",
						"label": "address",
						"numberOfBytes": "20"
					},
					"t_mapping(t_address,t_mapping(t_address,t_uint256))": {
						"encoding": "mapping",
						"key": "t_address",
						"label": "mapping(address => mapping(address => uint256))",
						"numberOfBytes": "32",
						"value": "t_mapping(t_address,t_uint256)"
					},
					"t_mapping(t_address,t_uint256)": {
						"encoding": "mapping",
						"key": "t_address",
						"label": "mapping(address => uint256)",
						"numberOfBytes": "32",
						"value": "t_uint256"
					},
					"t_uint256": {
						"encoding": "inplace",
						"label": "uint256",
						"numberOfBytes": "32"
					}
				}
			},
			"userdoc": {
				"kind": "user",
				"methods": {},
				"version": 1
			}
		}
	}
}